:100000000C945E000C9486000C9486000C94860080
:100010000C9486000C9486000C9486000C94860048
:100020000C9486000C9486000C9486000C94860038
:100030000C9486000C9486000C9486000C94860028
:100040000C9437050C9486000C94A7050C9481053C
:100050000C9486000C9486000C9486000C94860008
:100060000C940C040C9486001F1C1F1E1F1E1F1FC7
:100070001E1F1E1F00000000250028002B00040486
:100080000404040404040202020202020303030340
:10009000030301020408102040800102040810201C
:1000A0000102040810200000000800020100000303
:1000B00004070000000000000000D90511241FBE45
:1000C000CFEFD8E0DEBFCDBF11E0A0E0B1E0E0E0CF
:1000D000F2E102C005900D92A63CB107D9F723E0EA
:1000E000A6ECB1E001C01D92AC32B207E1F710E01E
:1000F000CEE5D0E004C02197FE010E94F308CD3583
:10010000D107C9F70E9412060C94FE080C94000057
:100110002091820290918102213208F046C08091A4
:100120005E028111FCCF32E030935E0231E0309309
:100130005D023FEF30935C0210925B0220935A0203
:10014000A1E6B2E04AE352E0FA013E2F341B321737
:1001500018F43D913193F9CF109239022091390270
:10016000990F922B9093390290913802913041F47B
:1001700010923802909139029093BB0095EC01C027
:1001800095EE9093BC0090915E029230E1F39091D5
:100190005C029F3F79F080915C02803241F0809157
:1001A0005C02803331F084E005C081E003C082E06E
:1001B00001C083E0109260021092820210925F02EE
:1001C000089590915E029111FCCF813208F080E297
:1001D00091E090935E0290935D022FEF20935C027A
:1001E00010925B02280F20935A029093390290914B
:1001F0003902906D9093390290913802913041F418
:1002000010923802909139029093BB0095EC01C096
:1002100095EE9093BC0090915E029130E1F3909145
:100220005B02981710F480915B02AAE3B2E028E128
:1002300032E0F9019E2F921B981718F49D9191932B
:10024000F9CF1092170280931602089590E0FC01F6
:10025000EA55FF4F2491FC01EE56FF4F3491FC010B
:10026000E258FF4FE491EE23B1F1222339F123301C
:1002700091F038F42130A9F0223001F584B58F7D5A
:1002800012C0273091F02830A1F02430B9F48091C9
:1002900080008F7D03C0809180008F7780938000E5
:1002A0000DC084B58F7784BD09C08091B0008F7771
:1002B00003C08091B0008F7D8093B000F0E0EE0F1E
:1002C000FF1FEC58FF4FA591B4918FB7F894EC91B4
:1002D0003E2B3C938FBF0895E0918F02F0919002E6
:1002E0000190F081E02D682F8FE892E0099485ED70
:1002F0008093BC008091BC0084FDFCCF10925E0214
:1003000008953FB7F8948091CB019091CC01A091D2
:10031000CD01B091CE0126B5A89B05C02F3F19F0A5
:100320000196A11DB11D3FBFBA2FA92F982F882775
:10033000820F911DA11DB11DBC01CD0142E0660FD0
:10034000771F881F991F4A95D1F708950895E09166
:10035000170280911602E81730F4F0E0E85EFD4FD6
:10036000808190E008958FEF9FEF0895909117029C
:1003700080911602981750F4E92FF0E0E85EFD4FE7
:10038000208130E09F5F9093170202C02FEF3FEF74
:10039000C90108958091160290E020911702821BF6
:1003A00091090895CF92DF92EF92FF920F931F93DE
:1003B000CF93DF937C018A0180915F02882389F0CB
:1003C000EB016B01C40ED51ECC15DD05F1F0699172
:1003D000D701ED91FC910190F081E02DC7010995C5
:1003E000F3CF842F413288F490915E02943069F407
:1003F0004093F101FB012FEC31E0D9019A2F921BC0
:10040000981718F491919D93F9CFC801DF91CF917E
:100410001F910F91FF90EF90DF90CF900895209162
:100420005F022223C9F020918202203240F021E0B5
:1004300030E0FC013383228380E090E008958091D6
:100440006002E82FF0E0EF59FD4F60838F5F8093EB
:1004500060028093820209C080915E02843029F498
:1004600081E08093F1016093CF0181E090E00895F5
:10047000803D27E0920710F0805D974050E0E8E66D
:10048000F0E021E02E1B322F3E0F361728F4349176
:10049000430F511D3196F7CF633038F09C01237024
:1004A0003327232B11F44F5F5F4F2DE631E0829FFE
:1004B000B001839F700D929F700D112461507109DE
:1004C0009C012D5F3F4F3695279536952795CB019B
:1004D000820F931F840F951F0895EF92FF920F9341
:1004E0001F93CF93DF93EC0188814A81698190E06B
:1004F0000E9438029C01A8E1B0E00E94D9082B813B
:100500007B018C01E20EF11C011D111DA801970158
:10051000ACE3B0E00E94E8082C817B018C01E20E84
:10052000F11C011D111DA80197010E94E8082D81F1
:10053000DC01CB01820F911DA11DB11DBC01CD01BC
:1005400060587C4B8249974CDF91CF911F910F915E
:10055000FF90EF900895CF92DF92EF92FF920F936A
:100560001F93CF93DF936C017A018B01C0E0D0E041
:10057000CE15DF0589F0D8016D918D01D601ED9181
:10058000FC910190F081E02DC6010995892B11F4B1
:100590007E0102C02196ECCFC701DF91CF911F9160
:1005A0000F91FF90EF90DF90CF900895FC01918D17
:1005B000828D981761F0828DDF01A80FB11D5D96C5
:1005C0008C91928D9F5F9F73928F90E008958FEF33
:1005D0009FEF0895FC01918D828D981731F0828DE7
:1005E000E80FF11D858D90E008958FEF9FEF08953E
:1005F000FC01918D228D892F90E0805C9F4F821BA2
:1006000091098F73992708958FE892E00E94F8026C
:1006100021E0892B09F420E0822F0895FC01848DCC
:10062000DF01A80FB11DA35ABF4F2C91848D90E01C
:1006300001968F739927848FA689B7892C93A089F7
:10064000B1898C9180648C93938D848D981306C0AE
:100650000288F389E02D80818F7D80830895EF9259
:10066000FF920F931F93CF93DF93EC0181E0888F6C
:100670009B8D8C8D981305C0E889F989808185FD53
:1006800024C0F62E0B8D10E00F5F1F4F0F73112744
:10069000E02E8C8DE8120CC00FB607FCFACFE8896B
:1006A000F989808185FFF5CFCE010E940E03F1CF3D
:1006B0008B8DFE01E80FF11DE35AFF4FF0820B8F87
:1006C000EA89FB898081806207C0EE89FF896083A7
:1006D000E889F98980818064808381E090E0DF91FE
:1006E000CF911F910F91FF90EF900895CF93DF93DB
:1006F000EC01888D8823C9F0EA89FB89808185FD1A
:1007000005C0A889B9898C9186FD0FC00FB607FC7A
:10071000F5CF808185FFF2CFA889B9898C9185FFBB
:10072000EDCFCE010E940E03E7CFDF91CF91089568
:1007300080E090E0892B29F00E94040381110C9441
:1007400000000895009769F0FC0101900020E9F78E
:100750003197AF01481B590BBC018FE892E00C9414
:10076000AB0280E090E00895CF93DF930E94A20354
:10077000EC0184E791E00E94A2038C0F9D1FDF91A2
:10078000CF9108958F929F92AF92BF920F931F9334
:10079000CF93DF93CDB7DEB7A1970FB6F894DEBF46
:1007A0000FBECDBF19A2423008F44AE08E010F5DA2
:1007B0001F4F842E912CA12CB12CA50194010E94D5
:1007C000B708E62FB901CA0101501109EA3014F443
:1007D000E05D01C0E95CD801EC93232B242B252B91
:1007E00061F7C8010E94A203A1960FB6F894DEBF7C
:1007F0000FBECDBFDF91CF911F910F91BF90AF90F2
:100800009F908F900895682F70E080E090E04AE01C
:100810000C94C2030E94F9081F920F920FB60F9218
:1008200011242F933F934F935F936F937F938F93F5
:100830009F93AF93BF93EF93FF938091B900887F0D
:10084000803609F49CC068F5883209F45BC090F4E6
:10085000803109F454C038F4882309F4F3C0883097
:1008600009F44DC0F3C0883109F44CC0803209F45A
:100870005DC0ECC0803409F468C048F4803309F4EA
:1008800055C0883309F0E2C080935C02D5C0803542
:1008900009F44FC0883509F45DC0883409F0D6C02A
:1008A000D3C0883909F4C4C0A8F4883709F467C0F4
:1008B00038F4883609F463C0803709F460C0C6C0D4
:1008C000883809F4B5C0803909F45FC0803809F070
:1008D000BDC05BC0803B09F483C038F4803A09F4A2
:1008E00066C0883A09F47CC0B1C0803C09F4A4C059
:1008F000883C09F4A1C0883B09F487C0A7C0809157
:10090000390210C090915B0280915A02981770F5DD
:10091000E0915B0281E08E0F80935B02F0E0E65C89
:10092000FD4F80818093BB0085EC83C080935C0287
:100930008BC0E0915B0281E08E0F80935B0280911F
:10094000BB00F0E0E65CFD4F808390915B028091FC
:100950005A026BC0E0915B0281E08E0F80935B02D4
:100960008091BB00F0E0E65CFD4F808380915D02EA
:1009700081116AC081E08093380284EA5EC083E01E
:1009800080935E0210921502CFCF809115028032C3
:1009900008F04EC0E091150281E08E0F80931502A1
:1009A0008091BB00F0E0EB50FE4F8083BDCF809183
:1009B0001502803230F4E0911502F0E0EB50FE4F6A
:1009C00010820E9477016091150270E0E091F301BE
:1009D000F091F40185EF91E00995109215022CC079
:1009E00084E080935E021092F2011092F101E09196
:1009F000EF01F091F00109958091F101811105C09D
:100A000081E08093F1011092CF01E091F20181E049
:100A10008E0F8093F201F0E0E153FE4F80818093CE
:100A2000BB009091F2018091F101981708F47CCFFE
:100A300085E88093BC000AC085EC8093BC001092CE
:100A40005E0204C010925C020E947701FF91EF9158
:100A5000BF91AF919F918F917F916F915F914F91D6
:100A60003F912F910F900FBE0F901F9018951F92DE
:100A70000F920FB60F9211242F933F938F939F9352
:100A8000AF93BF938091C7019091C801A091C90114
:100A9000B091CA013091C60123E0230F2D3720F415
:100AA0000196A11DB11D05C026E8230F0296A11DC8
:100AB000B11D2093C6018093C7019093C801A093F4
:100AC000C901B093CA018091CB019091CC01A09152
:100AD000CD01B091CE010196A11DB11D8093CB0136
:100AE0009093CC01A093CD01B093CE01BF91AF9173
:100AF0009F918F913F912F910F900FBE0F901F905C
:100B000018951F920F920FB60F9211242F933F93B7
:100B10004F935F936F937F938F939F93AF93BF9305
:100B2000EF93FF938FE892E00E940E03FF91EF9105
:100B3000BF91AF919F918F917F916F915F914F91F5
:100B40003F912F910F900FBE0F901F9018951F92FD
:100B50000F920FB60F9211242F938F939F93EF93C1
:100B6000FF93E0919F02F091A0028081E091A502A5
:100B7000F091A60282FD12C090818091A8028F5F41
:100B80008F732091A902821751F0E091A802F0E042
:100B9000E157FD4F958F8093A80201C08081FF919E
:100BA000EF919F918F912F910F900FBE0F901F90FB
:100BB0001895E3E8F2E01382128288EE93E0A0E059
:100BC000B0E084839583A683B78328E531E0318341
:100BD0002083EFE8F2E01382128284839583A68358
:100BE000B78388E691E09183808385EC90E09587D8
:100BF000848784EC90E09787868780EC90E0918BE7
:100C0000808B81EC90E0938B828B82EC90E0958BD3
:100C1000848B86EC90E0978B868B118E128E138ED0
:100C2000148E0895CF93DF93CDB7DEB727970FB615
:100C3000F894DEBF0FBECDBF789484B5826084BDCA
:100C400084B5816084BD85B5826085BD85B58160D0
:100C500085BD80916E00816080936E00109281004E
:100C60008091810082608093810080918100816009
:100C700080938100809180008160809380008091CA
:100C8000B10084608093B1008091B0008160809356
:100C9000B00080917A00846080937A0080917A001D
:100CA000826080937A0080917A00816080937A00DC
:100CB00080917A00806880937A001092C100E09160
:100CC0009F02F091A00282E08083E0919F02F09168
:100CD000A0021082E0919B02F0919C021082E091B0
:100CE0009D02F0919E0280E180831092A702E09124
:100CF000A302F091A40286E08083E091A102F0912A
:100D0000A202808180618083E091A102F091A20221
:100D1000808188608083E091A102F091A2028081AD
:100D200080688083E091A102F091A20280818F7D92
:100D30008083109217021092160210926002109295
:100D4000820210925E0211E010935D02109238024E
:100D500082E10E94260183E10E9426018091B90070
:100D60008E7F8093B9008091B9008D7F8093B90008
:100D700088E48093B80085E48093BC0010935F0200
:100D800008E600938102109260021092820260E0F5
:100D900083E892E00E940F020E94880081E090E0C8
:100DA0000E94E10083E892E00E94B60187FF36C00E
:100DB00087E791E00E94B40310935F0200938102E1
:100DC000109260021092820260E083E892E00E943A
:100DD0000F0260E083E892E00E940F0260E583E882
:100DE00092E00E940F0268E183E892E00E940F0205
:100DF00060E083E892E00E940F0260E183E892E005
:100E00000E940F0261E183E892E00E940F0267E115
:100E100083E892E00E940F020E9488001AEFECE340
:100E20008E2E912CA12CB12CF3E92F2EFEEF3F2E0C
:100E300021E020935F0238E6309381021092600235
:100E40001092820260E083E892E00E940F020E940A
:100E5000880087E090E00E94E10083E892E00E9431
:100E6000B6018F77982F92959F70082F919F000D54
:100E7000112483E892E00E94B6019C01332794E09C
:100E8000359527959A95E1F7F82E129FF00C1124CD
:100E900083E892E00E94B6019C01332744E0359537
:100EA00027954A95E1F7E82E129FE00C112483E87C
:100EB00092E00E94B60183E892E00E94B6019C0194
:100EC000332754E0359527955A95E1F7D82E129F90
:100ED000D00C112483E892E00E94B6019C013327D4
:100EE00064E0359527956A95E1F7C82E129FC00CEE
:100EF000112483E892E00E94B601AC01552774E00A
:100F0000559547957A95E1F7149F800D1124682F28
:100F100070E06053784F8983CA82DB82EC82FD8265
:100F20000E83072E000C880B990B4AE00E94C20327
:100F30008FE20E946C018A810E9403048FE20E946A
:100F40006C018B810E9403048BE891E00E94A20354
:100F500089814B816A8190E00E943802069667E0A1
:100F600070E00E94A3084CE0489F9001499F300D1B
:100F70001124C90180509F4F0E94A2038EE891E086
:100F80000E94A2038C810E9403048AE30E946C01E8
:100F90008D810E9403048AE30E946C018E810E946D
:100FA000030484E791E00E94A20381E991E00E949A
:100FB000A203CE0101960E946D024AE00E94C20384
:100FC0008DEA91E00E94A203CE0101960E946D027B
:100FD00020E831E541E050E00E94B708CA01B901BC
:100FE0004AE00E94C20382EB91E00E94B403CE016A
:100FF00001960E946D026253794583469843A5018C
:1010000094010E94B708062FCA01B901A5019401F5
:101010000E94B708F62ECA01B90128E130E040E08D
:1010200050E00E94B708E62E3901D12C81E09D2DB9
:10103000937009F080E091E09D0D482F50E0BA01D7
:1010400063597E4F6616770638F09101241B350BE5
:10105000620E731ED92EEACF51E0E52FF0E0E95978
:10106000FF4FE491882319F0523009F4EF5FF0E06C
:1010700091E0950F6E167F0620F06E1A7F0A592FA9
:10108000ECCF84EB91E05F830E94A2036D2D70E0B2
:101090006053784F072E000C880B990B4AE00E9492
:1010A000C2038FE20E946C015F81852F0E940304BE
:1010B0008FE20E946C0181E0860D0E94030480E2B1
:1010C0000E946C018E2D0E9403048AE30E946C0131
:1010D0008F2D0E9403048AE30E946C01802F0E94DE
:1010E000030484E791E00E94A20384E791E00E9458
:1010F000A2030E9481012B013C0188EBC82E8BE0EA
:10110000D82EE12CF12C0E948101DC01CB01841945
:101110009509A609B709883E9340A105B10558F085
:1011200031E0C31AD108E108F10848EE440E43E06B
:10113000541E611C711CC114D104E104F10419F79F
:101140000E94980375CEAA1BBB1B51E107C0AA1FC2
:10115000BB1FA617B70710F0A61BB70B881F991F58
:101160005A95A9F780959095BC01CD010895A1E20B
:101170001A2EAA1BBB1BFD010DC0AA1FBB1FEE1F11
:10118000FF1FA217B307E407F50720F0A21BB30B5C
:10119000E40BF50B661F771F881F991F1A9469F7D8
:1011A00060957095809590959B01AC01BD01CF0134
:1011B0000895A29FB001B39FC001A39F700D811D30
:1011C0001124911DB29F700D811D1124911D089550
:1011D0000E94D908A59F900DB49F900DA49F800DEB
:1011E000911D11240895EE0FFF1F0590F491E02D3D
:1011F000099481E090E0F8940C94FE08F894FFCFF5
:1012000053756E6461790000000000004D6F6E64DC
:101210006179000000000000547565736461790015
:10122000000000005765646E65736461790000001A
:1012300054687572736461790000000046726964D5
:101240006179000000000000536174757264617977
:1012500000000000000000000F02D201CA01B60128
:10126000A701A601000000002F03AB02F802D6027E
:10127000EA0276030D0A00525443206973204E4F50
:10128000542072756E6E696E672100202800292037
:10129000002073696E6365206D69646E69676874A8
:1012A00020312F312F31393730203D200073203D40
:1012B00020006400206E6F77202B203764202B20C5
:0612C0003330733A2000F8
:00000001FF
