:100000000C945D000C9485000C9485000C94850084
:100010000C9485000C9485000C9485000C9485004C
:100020000C9485000C9485000C9485000C9485003C
:100030000C9485000C9485000C9485000C9485002C
:100040000C94170F0C9485000C945B090C943509E3
:100050000C9485000C9485000C9485000C9485000C
:100060000C9485000C94850000000008000201003B
:100070000003040700000000000000000000000072
:10008000250028002B0000000000240027002A0083
:10009000040404040404040402020202020203032E
:1000A0000303030301020408102040800102040836
:1000B0001020010204081020E11211241FBECFEF0E
:1000C000D8E0DEBFCDBF23E0A4E6B2E001C01D92C0
:1000D000A936B207E1F712E0A0E0B1E0EEE3F7E203
:1000E00002C005900D92A436B107D9F710E0CDE516
:1000F000D0E004C02197FE010E947013CC35D107D7
:10010000C9F70E9420110C949D130C940000CF930A
:10011000DF931F92CDB7DEB76983DC01ED91FC91CF
:100120000280F381E02D41E050E0BE016F5F7F4F20
:1001300009950F90DF91CF910895FC01818D928DEB
:100140000895FC018489958908952EEA31E0FC0127
:1001500031832083FB014089518962897389FC01C5
:1001600042835383648375830895DC01ED91FC9190
:10017000008CF18DE02D0994CF93DF931F92CDB7C2
:10018000DEB76983DC01ED91FC910280F381E02D03
:1001900041E050E0BE016F5F7F4F09950F90DF9106
:1001A000CF910895FC019485FB018485981303C0C9
:1001B00081E0943009F480E0089521E0FC01848519
:1001C000843009F420E0822F08950895CF93DF93BF
:1001D0001F92CDB7DEB76983DC01ED91FC910280FF
:1001E000F381E02D41E050E0BE016F5F7F4F099544
:1001F0000F90DF91CF910895DC01ED91FC91048C7B
:10020000F58DE02D099591E089270895862F0895B1
:1002100081E086270895CF92DF92EF92FF920F93AD
:100220001F93CF93DF93CDB7DEB7AF970FB6F89498
:10023000DEBF0FBECDBF7C016A010EEA11E01A835A
:1002400009831C861B8688EE93E0A0E0B0E08D87D2
:100250009E87AF87B88B80E191E09A878987188F56
:100260000F8B198E1A8E1B8E1C8E84E089A31DA302
:100270000CA31EA21FA218A619A680912D0390916F
:100280002E03A0912F03B09130038CA79DA7AEA79A
:10029000BFA78B839C83AD83BE8318861F82AE016C
:1002A0004C5D5F4FCE0101960E94190C8130910583
:1002B000B1F4D701ED91FC910088F189E02D1BA7E5
:1002C0000AA78EA19FA1A8A5B9A58CA79DA7AEA797
:1002D000BFA7A601BE01665D7F4FC7010995AF9616
:1002E0000FB6F894DEBF0FBECDBFDF91CF911F9147
:1002F0000F91FF90EF90DF90CF900895CF92DF9213
:10030000EF92FF920F931F93CF93DF93CDB7DEB79A
:10031000AF970FB6F894DEBF0FBECDBF7C016A0168
:100320000EEA11E01A8309831C861B8688EE93E08F
:10033000A0E0B0E08D879E87AF87B88B80E191E029
:100340009A878987188F0F8B198E1A8E1B8E1C8E99
:1003500084E089A31DA30CA31EA21FA218A619A6A0
:1003600080912D0390912E03A0912F03B091300323
:100370008CA79DA7AEA7BFA78B839C83AD83BE83AD
:1003800018861F82AE014C5D5F4FCE0101960E9420
:10039000190C81309105B1F4D701ED91FC910484E1
:1003A000F585E02D1BA70AA78EA19FA1A8A5B9A539
:1003B0008CA79DA7AEA7BFA7A601BE01665D7F4F14
:1003C000C7010995AF960FB6F894DEBF0FBECDBF3B
:1003D000DF91CF911F910F91FF90EF90DF90CF9021
:1003E0000895CF93DF93EC01888D843061F00E94F3
:1003F0009910E88DF0E0EE0FFF1FEC59FD4F1182D0
:10040000108284E0888FDF91CF910895EF92FF9260
:100410001F93CF93DF93FC01208D243011F080E0F7
:100420001CC07B01EC0110E0812F0E948908811122
:1004300002C0188F05C08831E1F31F5F1430A1F7A7
:10044000888D843061F3FD86EC861A8E198E20E04B
:10045000A70162E00E94AD1081E0DF91CF911F9172
:10046000FF90EF9008950F931F93CF93DF931F9208
:10047000CDB7DEB78C01DC01ED91FC910480F581F4
:10048000E02D0995892B51F0BE016F5F7F4FF80178
:1004900084850E940510898190E002C08FEF9FEF54
:1004A0000F90DF91CF911F910F910895FC018485EA
:1004B0000C944610CF93DF931F92CDB7DEB741E087
:1004C00050E0BE016F5F7F4FFC0184850E944610A3
:1004D000181619061CF4898190E002C08FEF9FEF77
:1004E0000F90DF91CF910895FC018485843011F045
:1004F0000C94241080E090E008950E9476139B01F4
:1005000090E00496982F8827642F820F931F0C94F5
:10051000E30F0F931F93CF93DF931F92CDB7DEB7F7
:1005200090E00496982F88278C01060F171F0E94D1
:10053000630F8FE00E947D0F812F0E947D0F802F1F
:100540000E947D0F80E00E947D0F89830E94610FD1
:1005500089810F90DF91CF911F910F910895CF93D3
:10056000DF93C82FD62F472F60E170E00E947F02F3
:100570004D2F61E170E08C2FDF91CF910C947F02C1
:10058000FC018485843011F00C94890880E0089582
:10059000CF93DF93FC0124852430D1F0EC010E943D
:1005A000C002843181F0882371F0883161F08C3190
:1005B00061F4E881F9810480F581E02DCE0109958F
:1005C00021E0892B19F420E001C021E0822F01C035
:1005D00080E0DF91CF91089508958CBD9DBD089571
:1005E000AF92BF92CF92DF92FF920F931F93CF9360
:1005F000DF938C015B01EA01FC01C688D788F08C8F
:1006000080E590E00E94ED028F2D0E94FD0B8C177B
:100610009D0720F48F2D0E94FD0BEC019E01A5018A
:10062000B6018F2D0E94980BF801868997898C0F4F
:100630009D1F978B868BCE01DF91CF911F910F91DC
:10064000FF90DF90CF90BF90AF900895CF93FC01C3
:10065000C08D80E590E00E94ED0260E270E08C2F9A
:100660000E94F11062E070E08C2F0E94890284FDEC
:1006700015C062E070E08C2F0E94890283FF09C0E0
:1006800048E162E070E08C2F0E947F0280E090E001
:100690000DC080E590E00E94ED02E4CF40E162E011
:1006A00070E08C2F0E947F0281E090E0CF9108954E
:1006B000FF920F931F93CF93DF93FB01DC015796BB
:1006C0001C921E9256975896FC908281811109C007
:1006D0008381811106C08481811103C085818823B3
:1006E000E9F041155105D1F08A01EF0180E590E074
:1006F0000E94ED02BE016E5F7F4F2F2D30E0922FE2
:10070000882744E050E0845F9B4F0E94B40FB801FB
:100710008F2D0E94AF0281E090E002C080E090E067
:10072000DF91CF911F910F91FF9008958F929F922B
:10073000AF92BF92CF92DF92EF92FF920F931F93EF
:10074000CF93DF93CDB7DEB72D970FB6F894DEBF0A
:100750000FBECDBF7C0100E010E038EE832E33E009
:10076000932EA12CB12C48E5C42E41E0D42E1C823E
:100770001B828D829E82AF82B886DA82C9820D8703
:10078000CE0101960E94C002811123C0F70144816D
:10079000558120E061E0802F0E94AD1080E590E05F
:1007A0000E94ED0263E070E0802F0E948902833195
:1007B00029F462E070E0802F0E94F110F70184813B
:1007C0009581000F111FF801EC59FD4F9183808333
:1007D00005C00F5F1F4F0430110549F62D960FB667
:1007E000F894DEBF0FBECDBFDF91CF911F910F9167
:1007F000FF90EF90DF90CF90BF90AF909F908F9041
:100800000895CF92DF92EF92FF921F93CF93DF93E1
:10081000FC011485143099F1EC0180E590E00E9410
:10082000ED0268E070E0812F0E94F1100E940B0F32
:100830006B017C01CE010E94C0028823B1F061E00F
:1008400070E080E090E00E94D10E0E940B0FDC016E
:10085000CB018C199D09AE09BF09883E9340A105C3
:10086000B10540F38C850E949910EC85F0E0EE0F05
:10087000FF1FEC59FD4F1182108284E08C87DF91BD
:10088000CF911F91FF90EF90DF90CF9008954F92FE
:100890005F926F927F928F929F92AF92BF92CF9210
:1008A000DF92EF92FF921F93CF93DF93CDB7DEB726
:1008B0002D970FB6F894DEBF0FBECDBF7C0194E636
:1008C000A92E92E0B92E10E0C12CD12C28EE422E98
:1008D00023E0522E612C712C38E5832E31E0932ECB
:1008E0001C821B824D825E826F8278869A82898208
:1008F0001D87D5012D913D915D01F7018481958181
:1009000028173907B1F4CE0101960E94C002843144
:1009100069F0CE0101960E94C0028C3151F4CE01E3
:1009200001960E947402892B91F003C0CC24C394D9
:10093000D12C1F5F1430A1F6CD2871F4D701ED91B1
:10094000FC910480F581E02DC701099505C0CE0119
:1009500001960E940104EDCF2D960FB6F894DEBFEC
:100960000FBECDBFDF91CF911F91FF90EF90DF9031
:10097000CF90BF90AF909F908F907F906F905F903F
:100980004F9008958F929F92AF92BF92CF92DF9235
:10099000EF92FF920F931F93CF936C015B017A014B
:1009A000FC01C485C43041F481E090E0F6019383FA
:1009B000828380E090E04EC08A014130584010F0C0
:1009C00000E018E080E590E00E94ED028C2F0E948C
:1009D000FD0B4C0163E070E08C2F0E94890287318F
:1009E00011F08C3121F48016910660F302C000E012
:1009F00010E080E590E00E94ED029801A50160E022
:100A000070E08C2F0E94980B60E270E08C2F0E94A7
:100A1000F11062E070E08C2F0E94890284FD10C00A
:100A200063E070E08C2F0E948902811104C08C2F3A
:100A30000E949910B9CF80E590E00E94ED02E9CFC5
:100A400040E162E070E08C2F0E947F02012B09F4EC
:100A5000ABCFC701CF911F910F91FF90EF90DF9027
:100A6000CF90BF90AF909F908F9008952F923F921C
:100A70004F925F926F927F928F929F92AF92BF92AE
:100A8000CF92DF92EF92FF920F931F93CF93DF935A
:100A9000CDB7DEB72E970FB6F894DEBF0FBECDBF31
:100AA0007C016B015A010E94470404E612E020E039
:100AB000612C712C88EE282E83E0382E412C512C8D
:100AC00098E5892E91E0992E1C821B822D823E8210
:100AD0004F8258869A8289822D87F80141915191DF
:100AE0008F01F701848195814817590741F4CE01A0
:100AF00001962E870E94C0022E858731E9F02F5F74
:100B0000243011F7C3012E960FB6F894DEBF0FBE46
:100B1000CDBFDF91CF911F910F91FF90EF90DF90AC
:100B2000CF90BF90AF909F908F907F906F905F908D
:100B30004F903F902F900895A501B601CE010196E8
:100B40002E870E94C204680E791E2E85D8CFCF92C0
:100B5000DF92FF920F931F93CF93DF93FC012485C5
:100B6000243009F077C06A01EB018C01F12C8F2D44
:100B70000E948908811103C0F801F48607C08B7FA9
:100B80008831D1F3F394F4E0FF12F1CFF8018485BA
:100B9000843009F45FC020910001309101012F5F82
:100BA0003F4F11F420E030EC30930101209300011D
:100BB000409100015091010120E061E00E94AD10E0
:100BC000F801F4848A818F3F51F48B818F3F91F437
:100BD0008C818F3F79F48D818F3F61F438C0811112
:100BE00009C08B81811106C08C81811103C08D8168
:100BF000882369F1C114D10451F180E590E00E948D
:100C0000ED02BE016E5F7F4F8F2D90E0982F8827F9
:100C100044E050E0845F9B4F0E94B40FB6018F2DDB
:100C20000E94AF0264E070E08F2D0E94F110C801B5
:100C30000E94C002873189F061E070E080E090E0BE
:100C40000E94D10EC8010E94C0028111F0CF84E041
:100C5000F801848780E090E002C081E090E0DF91BD
:100C6000CF911F910F91FF90DF90CF900895CF9279
:100C7000DF92EF92FF920F931F93CF93DF936C015C
:100C80007A018B01C0E0D0E0CE15DF0589F0D801F4
:100C90006D918D01D601ED91FC910190F081E02DD7
:100CA000C6010995892B11F47E0102C02196ECCF73
:100CB000C701DF91CF911F910F91FF90EF90DF90CF
:100CC000CF900895FC01918D828D981761F0828DEF
:100CD000DF01A80FB11D5D968C91928D9F5F9F7370
:100CE000928F90E008958FEF9FEF0895FC01918D12
:100CF000828D981731F0828DE80FF11D858D90E07F
:100D000008958FEF9FEF0895FC01918D228D892F1B
:100D100090E0805C9F4F821B91098F739927089503
:100D20008EE892E00E94840621E0892B09F420E0FD
:100D3000822F0895FC01848DDF01A80FB11DA35AF5
:100D4000BF4F2C91848D90E001968F739927848FEB
:100D5000A689B7892C93A089B1898C9180648C93E2
:100D6000938D848D981306C00288F389E02D8081CD
:100D70008F7D80830895EF92FF920F931F93CF93FF
:100D8000DF93EC0181E0888F9B8D8C8D981305C0DB
:100D9000E889F989808185FD24C0F62E0B8D10E04D
:100DA0000F5F1F4F0F731127E02E8C8DE8120CC0C0
:100DB0000FB607FCFACFE889F989808185FFF5CF66
:100DC000CE010E949A06F1CF8B8DFE01E80FF11D36
:100DD000E35AFF4FF0820B8FEA89FB8980818062A2
:100DE00007C0EE89FF896083E889F9898081806482
:100DF000808381E090E0DF91CF911F910F91FF9070
:100E0000EF900895CF93DF93EC01888D8823C9F08C
:100E1000EA89FB89808185FD05C0A889B9898C9103
:100E200086FD0FC00FB607FCF5CF808185FFF2CF9E
:100E3000A889B9898C9185FFEDCFCE010E949A06D1
:100E4000E7CFDF91CF91089580E090E0892B29F0E2
:100E50000E94900681110C94000008950895611578
:100E6000710579F0FB0101900020E9F73197AF019E
:100E7000461B570BDC01ED91FC910280F381E02DC4
:100E8000099480E090E008950F931F93CF93DF9330
:100E9000EC010E942F078C0166EB71E0CE010E94ED
:100EA0002F07800F911FDF91CF911F910F91089510
:100EB000BF92CF92DF92EF92FF920F931F93CF9347
:100EC000DF9300D000D000D0CDB7DEB7FC01208D7D
:100ED000243009F053C06A017B018C01B12C63E01E
:100EE00070E08B2D0E948902811103C0F801B08E41
:100EF00006C08831D9F3B394F4E0BF12F0CFF80103
:100F0000808D8430D9F196E0E2E3F1E0DE011196C4
:100F100001900D929A95E1F7F70193819F779C8359
:100F200094819D8395819E83B7016E5F7F4F90E092
:100F3000982F882744E050E0845F9B4F0E94B40FB5
:100F4000B601F801808D0E94AF02F801808D90E01B
:100F5000982F882746E050E0BE016F5F7F4F8A5F81
:100F60009B4F0E94B40FF801128E118E20E8A6014B
:100F700062E0808D0E94AD1081E001C080E0269685
:100F80000FB6F894DEBF0FBECDBFDF91CF911F919A
:100F90000F91FF90EF90DF90CF90BF900895CF9387
:100FA000DF931F92CDB7DEB7FC01218D328D232B4D
:100FB00049F0BE016F5F7F4F808D0E9405108981CF
:100FC00090E002C08FEF9FEF0F90DF91CF910895D7
:100FD000CF93DF93FC01218D328D2115310519F45A
:100FE0008FEF9FEF11C0EC014217530708F0A901E2
:100FF000888D0E9446101816190694F7298D3A8D8F
:10100000281B390B3A8F298FDF91CF9108950F93C9
:101010001F93CF93DF931F92CDB7DEB7FC01218DD5
:10102000328D232B61F08C0141E050E0BE016F5FF7
:101030007F4F808D0E944610181619061CF08FEF06
:101040009FEF08C0F801818D928D0197928F818F5B
:10105000898190E00F90DF91CF911F910F910895BA
:101060000F931F93CF93DF93CDB7DEB728970FB6BB
:10107000F894DEBF0FBECDBF8C01F801818D928D3B
:10108000892B49F0D801ED91FC910680F781E02D84
:10109000C8010995F2CF808D0E94241018161906F8
:1010A0005CF548E050E0BE016F5F7F4FD801589675
:1010B0008C910E9446109C0118161906DCF4898157
:1010C0009A81AB81BC81F801808B918BA28BB38B11
:1010D0008D8190E0982F88272E81820F911D958B0E
:1010E000848B2F8130E0322F22278885280F311DF5
:1010F000328F218FC90102C080E090E028960FB6A0
:10110000F894DEBF0FBECDBFDF91CF911F910F913D
:1011100008951F93CF93DF931F92CDB7DEB7182F9B
:1011200080E590E00E94ED0263E070E0812F0E9474
:10113000890289830E94EC0289810F90DF91CF910F
:101140001F9108954F925F926F927F92EF92FF925C
:101150000F931F93CF93DF93CDB7DEB7A1970FB651
:10116000F894DEBF0FBECDBF7C01FA01CB0119A2FE
:10117000223008F42AE08E010F5D1F4F422E512CC1
:10118000612C712CBF01A30192010E947B13F90114
:10119000CA01015011096A3014F4605D01C0695C34
:1011A000D8016C93232B242B252B61F7B801C701A1
:1011B0000E942F07A1960FB6F894DEBF0FBECDBFD9
:1011C000DF91CF911F910F91FF90EF907F906F90E3
:1011D0005F904F9008958F929F92AF92BF92CF925F
:1011E000DF92EF92FF920F931F93CF93DF937C01D7
:1011F000EB016C0182E0C80ED11C4701E5E08E0EC8
:10120000911C00E010E0F60141916F0150E060E0B8
:1012100070E02AE0CE010E94A2085C01E881F98119
:101220000190F081E02D6EE2CE0109958A0D9B1DA3
:10123000080F191FC814D90431F7F701458150E090
:1012400060E070E02AE0CE010E94A208800F911FAA
:10125000DF91CF911F910F91FF90EF90DF90CF9092
:10126000BF90AF909F908F9008951F920F920FB6EE
:101270000F9211242F933F934F935F936F937F931C
:101280008F939F93AF93BF93EF93FF938EE892E07A
:101290000E949A06FF91EF91BF91AF919F918F911C
:1012A0007F916F915F914F913F912F910F900FBE62
:1012B0000F901F9018951F920F920FB60F92112446
:1012C0002F938F939F93EF93FF93E0919E02F09162
:1012D0009F028081E091A402F091A50282FD12C0DC
:1012E00090818091A7028F5F8F732091A80282174F
:1012F00051F0E091A702F0E0E257FD4F958F809307
:10130000A70201C08081FF91EF919F918F912F9152
:101310000F900FBE0F901F901895CF92DF92EF9213
:10132000FF920F931F93CF93DF93CDB7DEB7C254D5
:10133000D1090FB6F894DEBF0FBECDBFFC0182818C
:101340009381A481B58123968CAF9DAFAEAFBFAF23
:10135000239721E023962FAF239723964CAD5DADC5
:101360006EAD7FAD23974BAB5CAB6DAB7EAB89AF06
:101370009AAFABAFBCAF8DA79EA7AFA7B8AB28AB5A
:101380004DA55EA56FA578A94FA358A769A77AA711
:101390002EAB4BA95CA96DA97EA949A35AA36BA347
:1013A0007CA38B8F9C8FAD8FBE8F4EEA51E05C8B00
:1013B0004B8B3FEF3D8B3E8B3F8B188E5E874D876F
:1013C0002AA7CFA0D8A4E9A4FAA4CF86D88AE98A0C
:1013D000FA8A2CA309A11AA12BA13CA109871A877B
:1013E0002B873C875A8349838B839C83AD83BE8341
:1013F0006CE271E080E090E00E94D10E1FB7F8949B
:1014000080916C02811163C08AE990E0FC01249113
:101410004EEA50E0FA01649130E0220F331F2A5760
:101420003F4FF901A591B4912C91622309F040C07E
:10143000E2E7F0E02491FA014491FC0194919923B0
:10144000B9F1222339F1233091F038F42130A9F099
:10145000223001F584B58F7D12C0273091F02830FD
:10146000A1F02430B9F4809180008F7D03C0809179
:1014700080008F77809380000DC084B58F7784BD06
:1014800009C08091B0008F7703C08091B0008F7D3C
:101490008093B000E92FF0E0EE0FFF1FE458FF4FFC
:1014A000A591B4918FB7F8949C91492B4C938FBF21
:1014B0008AE00E9401118CB580618CBD8CB580647E
:1014C0008CBD8DE00E9401118BE00E940111809182
:1014D0006C028F5F80936C021FBF229A80E590E0C0
:1014E0000E94ED0260E880E090E00E94E30F65E575
:1014F0008BE190E00E94E30F65E58AE190E00E94B5
:10150000E30F0E94EC0280E090E4909379028093D4
:10151000780280E090E6909381028093800280E0E0
:1015200098E490937B0280937A0280E098E690930F
:1015300083028093820280E090E590937D02809305
:101540007C0280E090E7909385028093840280E0A3
:1015500098E590937F0280937E0280E098E79093D5
:1015600087028093860280E590E00E94ED0246E0CB
:1015700050E062E071E089E090E00E94B40F44E046
:1015800050E0BE016D5F7F4F8FE090E00E94B40F8E
:1015900044E050E0BE01615F7F4F81E090E00E9437
:1015A000B40F44E050E0BE016B5E7F4F85E090E0F9
:1015B0000E94B40F0E94EC0281E08C8789859A8595
:1015C000AB85BC8580932D0390932E03A0932F03AE
:1015D000B0933003CE5BDF4F0FB6F894DEBF0FBE83
:1015E000CDBFDF91CF911F910F91FF90EF90DF90D2
:1015F000CF900895CF92DF92EF92FF920F931F93B7
:10160000CF93DF936B01770FEE08FF08F7FE1BC047
:10161000EC016DE20E94E6008C0144275527BA01D7
:101620004C195D096E097F092AE0CE010E94A208CB
:10163000800F911FDF91CF911F910F91FF90EF903D
:10164000DF90CF9008952AE0B701A601DF91CF91F6
:101650001F910F91FF90EF90DF90CF900C94A20814
:101660008F929F92AF92BF92CF92DF92EF92FF92B2
:101670000F931F93CF93DF93B82E4B018A01A22EB5
:1016800068E270E00E948902C82FD0E069E270E051
:101690008B2D0E948902DC2FCC27C82B9E0137702E
:1016A000CB2CD12CC601880F991FAC0140585D4F3F
:1016B0006A01FA0180819181820F931FA801420F74
:1016C000531F4130584098F060E078E07B01E21A07
:1016D000F30AA701B4010E94840FA8014E195F0903
:1016E000B4016E0D7F1DF6018081918102C0A801B9
:1016F000B4010E94840FA1100EC0C00FD11F4D2F46
:1017000068E270E08B2D0E947F024C2F69E270E04E
:101710008B2D0E947F02DF91CF911F910F91FF903F
:10172000EF90DF90CF90BF90AF909F908F900895F3
:101730009F92AF92BF92CF92DF92EF92FF920F9360
:101740001F93CF93DF93982E8B015A01690164E2B6
:1017500070E00E948902E82EF12C65E270E0892D8C
:101760000E948902FE2CEE24E82AE701C00FD11F57
:101770009E013770E92CF12CC701880F991FAC012D
:1017800048585D4F7A01FA0180819181820F931F41
:10179000A9014C0D5D1D4130584090F000E018E06B
:1017A000021B130BA801B5010E94B40FA601401B38
:1017B000510BB501600F711FF7018081918102C04B
:1017C000A601B5010E94B40FCC0DDD1D4D2F64E2C2
:1017D00070E0892D0E947F024C2F65E270E0892D18
:1017E000DF91CF911F910F91FF90EF90DF90CF90FD
:1017F000BF90AF909F900C947F02FF920F931F9326
:10180000CF93DF93F82EC0E0D0E08F2D0E94650FBC
:101810008C01892B21F08F2D0E94650FEC01C017E0
:10182000D10799F7CE01DF91CF911F910F91FF90D2
:1018300008952F923F924F925F926F927F928F9274
:101840009F92AF92BF92CF92DF92EF92FF920F934F
:101850001F93CF93DF93CDB7DEB765970FB6F8949C
:10186000DEBF0FBECDBF7C016B013A01FB0120E062
:1018700080E090E06AE03191332309F140ED430FBD
:101880004A3080F4689FA001699F500D1124CA015D
:10189000C097830F911D37FD9A958F3F910559F39E
:1018A00050F313C03E3289F4233079F0D301A20FF4
:1018B000B11D12968C932F5F80E090E0DCCF233037
:1018C00021F4F301858381E021C0F7014281538136
:1018D0006481758180918A0290918B02A0918C0223
:1018E000B0918D02481759076A077B0709F49EC11A
:1018F0000E940B0F8701085F1F4F6F7077277C5F77
:10190000C8010E940602813019F080E090E0F3C126
:101910008EEA91E09A838983F70182819381A48181
:10192000B5818B839C83AD83BE8345E350E0BE01CC
:101930006F5F7F4FC8010E945803892B19F4C12C97
:10194000D12C6FC10E940B0FF70177836683762736
:10195000672776277A83698342E050E0BE016F5F94
:101960007F4FC8010E94F00281E090E09E878D8742
:1019700042E050E0BE01635F7F4FC8010E94F00269
:1019800080E091E09E878D8742E050E0BE01635F7A
:101990007F4FC8010E94F0021E861D8642E050E083
:1019A000BE01635F7F4FC8010E94F00242E050E039
:1019B000BE01635F7F4FC8010E94F00242E050E029
:1019C000BE01635F7F4FC8010E94F0025601F5011E
:1019D0008081882311F1F6015F018191811115C089
:1019E00045018C189D081814190494F48F8641E061
:1019F00050E0BE01615F7F4FC8010E94F002A40168
:101A0000B601C8010E94F00203C08E3229F7E8CF68
:101A10006501FFEFCF1ADF0ADACF1F8641E050E001
:101A2000BE01615F7F4FC8010E94F002C12CDD241E
:101A3000D394DE86CD8642E050E0BE01635F7F4FE7
:101A4000C8010E94F002DE86CD8642E050E0BE0171
:101A5000635F7F4FC8010E94F002C8010E94260305
:101A6000892B09F46CCF63E0A62EB12CF2E06F0E47
:101A7000711C0E940B0F1B012C01C8010E94300831
:101A800018161906A4F00E940B0FDC01CB01821975
:101A90009309A409B50989389341A105B105D0F48A
:101AA00062E370E080E090E00E94D10EE6CFF701A3
:101AB0004281538164817581808D918DA28DB38D1A
:101AC000481759076A077B0741F4848D958DC597A0
:101AD00021F406C02FEF3FEF9AC02EEF3FEF97C0E3
:101AE000F70181A192A10C970CF4A6C04CE050E044
:101AF000BE016F5F7F4FC8010E94E8078B8190E0B5
:101B0000982F88272C81822B9A8B898B298130E012
:101B1000322F22274A81242BF70146815781421711
:101B2000530709F086C097FF84C08F709270892B8D
:101B300009F0DEC0CF80D12CDC2CCC248885C82ACB
:101B4000C114D10409F4D1C0812C912C8D8190E075
:101B5000982F88272E81822B8816990608F46FC04B
:101B6000812C912C41E050E0BE016D5E7F4FC80199
:101B70000E94E8078B89982F907C09F093C081110F
:101B800086C08B898111EECF42E050E0BE01615FDB
:101B90007F4FC8010E94E80742E050E0BE01635F4A
:101BA0007F4FC8010E94E807C8010E940708C801CA
:101BB0000E940708C8010E940708C8010E94070880
:101BC00042E050E0BE016F5E7F4FC8010E94E8070F
:101BD0008F8598898115914009F069C02D853E85D2
:101BE0003227232732272130310509F060C0898947
:101BF0009A898115944009F075C044E050E0B30122
:101C0000C8012C8B3D8B0E94E8072C893D89690116
:101C1000F1E0AF1AB10829F02FEFC216D20609F48D
:101C200028CFC8010E94F101C60165C08EEF9FEF69
:101C300062C02CEF3FEFEBCF2DEF3FEFE8CF41E05D
:101C400050E0BE01635F7F4FC8010E94E8078D85A9
:101C5000811113C08D858111F2CFC8010E94070840
:101C6000C8010E940708C8010E940708C8010E9415
:101C70000708FFEF8F1A9F0A69CF8D859FEF980F96
:101C80009D87882339F3C8010E940708F6CF8B8906
:101C90009FEF980F9B8B882309F473CFC8010E9494
:101CA0000708F5CFC8010E9407081B8A6ACF412C9C
:101CB000512C89899A899827892798274816590687
:101CC00038F4C8010E9407088FEF481A580AF1CF6C
:101CD000EFEF8E1A9E0A8C149D0409F043CF26EF75
:101CE0003FEF95CF27EF3FEF92CF2AEF3FEF8FCF18
:101CF0002BEF3FEF8CCF65960FB6F894DEBF0FBE8B
:101D0000CDBFDF91CF911F910F91FF90EF90DF90AA
:101D1000CF90BF90AF909F908F907F906F905F908B
:101D20004F903F902F9008953FB7F89480917402A0
:101D300090917502A0917602B091770226B5A89B8A
:101D400005C02F3F19F00196A11DB11D3FBFBA2F4D
:101D5000A92F982F8827820F911DA11DB11DBC01AD
:101D6000CD0142E0660F771F881F991F4A95D1F772
:101D700008951F93CF93DF93182F66E270E00E94BF
:101D80008902C82FD0E067E270E0812F0E948902AB
:101D9000DC2FCC279E01282BC901DF91CF911F9109
:101DA00008958F929F92AF92BF92CF92DF92EF925F
:101DB000FF926B017C010E94940E4B015C01C114E7
:101DC000D104E104F104F1F00E94940EDC01CB0196
:101DD00088199909AA09BB09883E9340A105B10554
:101DE00070F321E0C21AD108E108F10888EE880EEC
:101DF00083E0981EA11CB11CC114D104E104F104BC
:101E000019F7DDCFFF90EF90DF90CF90BF90AF90AC
:101E10009F908F9008952FB7F89460917002709101
:101E2000710280917202909173022FBF08951F92E8
:101E30000F920FB60F9211242F933F938F939F937E
:101E4000AF93BF938091700290917102A091720242
:101E5000B091730230916F0223E0230F2D3720F4ED
:101E60000196A11DB11D05C026E8230F0296A11DF4
:101E7000B11D20936F028093700290937102A09322
:101E80007202B09373028091740290917502A091D6
:101E90007602B09177020196A11DB11D8093740264
:101EA00090937502A0937602B0937702BF91AF91A1
:101EB0009F918F913F912F910F900FBE0F901F9088
:101EC00018952A9A08952A9808951F93CF93DF931F
:101ED000182F60E270E00E948902C82FD0E061E212
:101EE00070E0812F0E948902DC2FCC279E01282BD5
:101EF000C901DF91CF911F9108958EBD00000DB4EF
:101F000007FEFDCF8EB50895CF92DF92EF92FF923C
:101F10000F931F93CF93DF93EC017A018B016C0138
:101F2000C40ED51ECC15DD05A9F00E94630F8FE00D
:101F30000E947D0F8D2F0E947D0F8C2F0E947D0FA0
:101F4000219680E00E947D0FF80181938F010E940D
:101F5000610FE8CFC701DF91CF911F910F91FF90E3
:101F6000EF90DF90CF900895CF92DF92EF92FF92A3
:101F70000F931F93CF93DF93EC017A018B016C01D8
:101F8000C40ED51ECC15DD05A1F00E94630F80EFB5
:101F90000E947D0F8D2F0E947D0F8C2F0E947D0F40
:101FA0002196F80181918F010E947D0F0E94610F9F
:101FB000E9CFC701DF91CF911F910F91FF90EF9073
:101FC000DF90CF9008951F93CF93DF9300D0CDB7CC
:101FD000DEB7182F6A8399830E94630F80EF0E94F7
:101FE0007D0F9981892F0E947D0F812F0E947D0F87
:101FF0006A81862F0E947D0F0E94610F81E00F9001
:102000000F90DF91CF911F9108951F93CF93DF938E
:1020100000D0CDB7DEB7182F80E590E069837A83D2
:102020000E94ED0221E041E050E069817A81812F38
:102030000E94300B0E94EC0281E090E00F900F9024
:10204000DF91CF911F910895FF920F931F93CF932C
:10205000DF93F82E80E590E00E94ED02C0E0D0E032
:102060008F2D0E94B90E8C01892B21F08F2D0E949B
:10207000B90EEC01C017D10799F70E94EC02CE010E
:10208000DF91CF911F910F91FF900895AF92BF9272
:10209000CF92DF92EF92FF921F93CF93DF93182F8F
:1020A0005B017A0180E590E00E94ED02C0E0D0E0A3
:1020B000812F0E94B90E6C01892B21F0812F0E9483
:1020C000B90EEC01CC15DD0599F7209799F463E082
:1020D00070E0812F0E9489028431F1F08823E1F0C1
:1020E000C1E0D0E08C3111F4C0E0D0E0D195C195D1
:1020F000D10912C0EC16FD060CF4E7011C161D06F2
:102100005CF420E0AE01B501812F0E94300B60E449
:1021100070E0812F0E94F1100E94EC02CE01DF914D
:10212000CF911F91FF90EF90DF90CF90BF90AF9035
:102130000895CF93C82F80E590E00E94ED0260E102
:1021400070E08C2F0E94F1104FEF62E070E08C2F56
:102150000E947F02CF910C94EC02FF920F931F9389
:10216000CF93DF9300D0CDB7DEB7F82E8A012A8354
:1021700069830E94991080E590E00E94ED022A8117
:102180006981462F422B60E070E08F2D0E947F0214
:102190000115110551F400916D0210916E020F5F4F
:1021A0001F4F10936E0200936D02412F64E070E0A8
:1021B0008F2D0E947F02402F65E070E08F2D0E94DE
:1021C0007F0261E070E08F2D0E94F1100E94EC020E
:1021D00081E00F900F90DF91CF911F910F91FF90B1
:1021E0000895CF93C82F462F61E070E00E947F02D0
:1021F00061E070E08C2F0E9489028111F9CFCF91AC
:10220000089590E0FC01EC55FF4F2491FC01E0574C
:10221000FF4F8491882399F090E0880F991FFC016B
:10222000EA57FF4FA591B491FC01E458FF4F859107
:1022300094918FB7F894EC91E22BEC938FBF0895B3
:10224000CF93DF93CDB7DEB76A970FB6F894DEBFB2
:102250000FBECDBF789484B5826084BD84B58160A3
:1022600084BD85B5826085BD85B5816085BD809161
:102270006E00816080936E001092810080918100D9
:1022800082608093810080918100816080938100D1
:10229000809180008160809380008091B100846093
:1022A0008093B1008091B00081608093B0008091F4
:1022B0007A00846080937A0080917A0082608093B3
:1022C0007A0080917A00816080937A0080917A0010
:1022D000806880937A001092C100E0919E02F09194
:1022E0009F0282E08083E0919A02F0919B0210822B
:1022F000E0919C02F0919D028FEC80831092A602E7
:10230000E091A202F091A30286E08083E091A00216
:10231000F091A102808180618083E091A002F09120
:10232000A102808188608083E091A002F091A102E7
:10233000808180688083E091A002F091A102808179
:102340008F7D80830EEA11E01A83098380913B031D
:1023500090913C03A0913D03B0913E038B839C83FD
:10236000AD83BE83CE0101960E948D0983E393E085
:102370000E94960369EB71E08EE892E00E942F07BD
:102380001A8309831B821C821D821E8280E590E0D5
:102390000E94ED0244E050E0BE016D5F7F4F8FE090
:1023A00090E00E94840F0E94EC026EE872E0CE0181
:1023B00001960E94EB0866EB71E08EE892E00E94C5
:1023C0002F0798EE892E93E0992EA12CB12C28E5A9
:1023D000C22E21E0D22E83E393E00E94470484E6DC
:1023E000E82E82E0F82E10E01C821B828D829E82F5
:1023F000AF82B886DA82C9821D87F70121913191B7
:102400007F0180913703909138032817390739F5F8
:10241000CE0101960E94C002873111F08C31F9F48F
:10242000CE0101960E947402892BC9F08B819C8198
:10243000998B888B8D819E81AF81B8858A8B9B8B90
:10244000AC8BBD8B89859A85AB85BC858E8B9F8B2C
:10245000A88FB98FDF86CE868D858A8F0CC01F5FCF
:10246000143011F6198A188A8A8A9B8AAC8ABD8A26
:10247000DF86CE861A8F8A8D843009F49FC067EC80
:1024800071E08EE892E00E94440711E0CE010E96C2
:102490000E94C802882309F481C0CE010E960E94D2
:1024A0007402892B99F3CE010E960E945A02082FCE
:1024B000682F8EE892E00E94BB060A3009F069C0DE
:1024C000112319F362ED71E0CE010E960E944407CC
:1024D00062EE71E0CE010E960E9444076AEF71E051
:1024E000CE010E960E9444076CE072E0CE010E967B
:1024F0000E94440766EB71E0CE010E960E942F0702
:1025000067E172E0CE010E960E94440767E272E036
:10251000CE010E960E94440700E010E0802F8064F8
:1025200080937C0080917A00806480937A0080910F
:102530007A0086FDFCCFE090780080917900F12C44
:10254000F82A6EE272E0CE010E960E942F07B801C3
:10255000CE010E960E94FA0A6CE372E0CE010E964E
:102560000E942F07B701CE010E960E94FA0A61E47D
:1025700072E0CE010E960E9444070F5F1F4F063097
:10258000110561F668E472E0CE010E960E944407E0
:1025900005C00D3009F47ACF10E078CF61E070E02B
:1025A00080E090E00E94D10ECE010E960E940104C0
:1025B00060E572E08EE892E00E9444070E942407E2
:1025C0000ACFE8E8F2E08EEA91E0918380831282FC
:1025D000138214821582EFE3F3E0918380831282E9
:1025E000138214821582E5E4F3E0918380831282E2
:1025F000138214821582EEE8F2E01382128248EE12
:1026000053E060E070E044835583668377832CE772
:1026100031E03183208325EC30E03587248724ECBA
:1026200030E03787268720EC30E0318B208B21EC9F
:1026300030E0338B228B22EC30E0358B248B26EC80
:1026400030E0378B268B118E128E138E148EEBE4B6
:10265000F3E0918380831282138214821582E1E574
:10266000F3E0918380831282138214821582E7E55E
:10267000F3E0918380831282138214821582EDE548
:10268000F3E0918380831282138214821582EBE23D
:10269000F3E0918380831282138214821582E3E631
:1026A000F3E0918380831282138214821582E9E31E
:1026B000F3E09183808380EC828388EA838381E0E6
:1026C000848381EB8583E3E3F3E0138212828CE958
:1026D00091E09183808380E590E0958384830895E1
:1026E000EE0FFF1F0590F491E02D099481E090E03A
:1026F000F8940C949D13A1E21A2EAA1BBB1BFD019A
:102700000DC0AA1FBB1FEE1FFF1FA217B307E407D0
:10271000F50720F0A21BB30BE40BF50B661F771F28
:10272000881F991F1A9469F7609570958095909508
:0E2730009B01AC01BD01CF010895F894FFCFCD
:10273E0000C0DEADBEEFFEED0100000000000000A7
:10274E008700F0029D000708CF072E070602F10151
:10275E0058030B0126033008E807B500A500A100B9
:10276E00580701005E000000000000007D027D029F
:10277E007D027D027D027D027D027D027D027D0253
:10278E007D027D0200000000E600C20474025A02BF
:10279E003302E500A7057E0156020104C802DD00E2
:1027AE0008010601D200FC0000000000BB0637063F
:1027BE008406620676060207000000007D023706D8
:1027CE007D027D027D027D0200000000BC00360508
:1027DE009603000000007D02370600000000EB08A3
:1027EE00000000007D020D0A00736572766572208E
:1027FE00697320617420006E657720636C69656E65
:10280E007400485454502F312E3120323030204F26
:10281E004B00436F6E74656E742D547970653A205B
:10282E00746578742F68746D6C00436F6E6E65639B
:10283E0074696F6E3A20636C6F73650052656672D1
:10284E006573683A2035003C21444F435459504536
:10285E002048544D4C3E003C68746D6C3E00616ED9
:10286E00616C6F6720696E7075742000206973202B
:10287E00003C6272202F3E003C2F68746D6C3E004F
:10288E00636C69656E7420646973636F6E6E6563E5
:04289E0074656400F9
:00000001FF
