:100000000C9463000C948B000C948B000C948B006C
:100010000C948B000C948B000C948B000C948B0034
:100020000C948B000C948B000C948B000C948B0024
:100030000C948B000C948B000C948B000C948B0014
:100040000C94DC040C948B000C948B000C948B00AF
:100050000C948B000C948B000C948B000C948B00F4
:100060000C94B1030C948B000000000024002700C6
:100070002A001F1C1F1E1F1E1F1F1E1F1E1F0000E9
:100080000000250028002B000404040404040404D8
:100090000202020202020303030303030102040833
:1000A00010204080010204081020010204081020E2
:1000B0000000000800020100000304070000000027
:1000C00000000000260511241FBECFEFD8E0DEBFE0
:1000D000CDBF11E0A0E0B1E0ECEBFDE002C0059087
:1000E0000D92A031B107D9F721E0A0E1B1E001C044
:1000F0001D92A53EB207E1F710E0C3E6D0E004C0D0
:100100002197FE010E94D106C236D107C9F70E948D
:1001100044050C94DC060C9400009091AA01911106
:10012000FCCF813208F080E291E09093AA01909395
:10013000A9012FEF2093A8011092A701280F209367
:10014000A6019093A5019091A501906D9093A501B2
:100150009091A401913041F41092A4019091A501D5
:100160009093BB0095EC01C095EE9093BC009091EC
:10017000AA019130E1F39091A701981710F48091B2
:10018000A701A4E8B1E02DEA31E0F9019E2F921B0E
:10019000981718F49D919193F9CF1092AC01809328
:1001A000AB0108952091830190918201213208F0E2
:1001B00046C08091AA018111FCCF32E03093AA01A0
:1001C00031E03093A9013FEF3093A8011092A701CD
:1001D0002093A601A2E6B1E044E851E0FA013E2FE7
:1001E000341B321718F43D913193F9CF1092A501C9
:1001F0002091A501990F922B9093A5019091A401B4
:10020000913041F41092A4019091A5019093BB000C
:1002100095EC01C095EE9093BC009091AA019230AC
:10022000E1F39091A8019F3F79F08091A80180327D
:1002300041F08091A801803331F084E005C081E075
:1002400003C082E001C083E010926101109283013B
:1002500010926001089585ED8093BC008091BC00F0
:1002600084FDFCCF1092AA010895CF92DF92EF9205
:10027000FF920F931F93CF93DF936C017A018B0151
:10028000C0E0D0E0CE15DF0589F0D8016D918D0179
:10029000D601ED91FC910190F081E02DC601099508
:1002A000892B11F47E0102C02196ECCFC701DF91AA
:1002B000CF911F910F91FF90EF90DF90CF90089515
:1002C00090E0FC01E055FF4F3491FC01E456FF4FF4
:1002D0002491FC01E857FF4FE491EE2309F43BC061
:1002E000332339F1333091F038F43130A9F0323022
:1002F00001F584B58F7D12C0373091F03830A1F010
:100300003430B9F4809180008F7D03C080918000EB
:100310008F77809380000DC084B58F7784BD09C02E
:100320008091B0008F7703C08091B0008F7D809363
:10033000B000F0E0EE0FFF1FE258FF4FA591B4911F
:100340008FB7F894EC91611103C020952E2301C062
:100350002E2B2C938FBF08953FB7F89480911501F1
:1003600090911601A0911701B091180126B5A89B94
:1003700005C02F3F19F00196A11DB11D3FBFBA2F37
:10038000A92F982F8827820F911DA11DB11DBC0197
:10039000CD0142E0660F771F881F991F4A95D1F75C
:1003A00008950895E091AC018091AB01E81730F415
:1003B000F0E0E355FE4F808190E008958FEF9FEFCE
:1003C00008959091AC018091AB01981750F4E92FFA
:1003D000F0E0E355FE4F208130E09F5F9093AC0149
:1003E00002C02FEF3FEFC90108958091AB0190E06B
:1003F0002091AC01821B91090895CF92DF92EF9278
:10040000FF920F931F93CF93DF937C018A0180911A
:100410006001882389F0EB016B01C40ED51ECC1559
:10042000DD05F1F06991D701ED91FC910190F0812A
:10043000E02DC7010995F3CF842F413288F49091C4
:10044000AA01943069F440933B01FB0129E131E0BA
:10045000D9019A2F921B981718F491919D93F9CF77
:10046000C801DF91CF911F910F91FF90EF90DF9026
:10047000CF900895209160012223C9F0209183013B
:10048000203240F021E030E0FC013383228380E021
:1004900090E0089580916101E82FF0E0EE59FE4F61
:1004A00060838F5F809361018093830109C0809195
:1004B000AA01843029F481E080933B016093190103
:1004C00081E090E00895CF92DF92EF92FF920F9338
:1004D0001F93CF93DF93EC0181E08093600188E666
:1004E00080938201109261011092830160E08DEC93
:1004F00091E00E943A020E94D20087E090E00E94C0
:100500008D008DEC91E00E94E1018F77982F9295FC
:100510009F701AEF082F919F000D11248DEC91E030
:100520000E94E1019C01332794E0359527959A9527
:10053000E1F7F82E129FF00C11248DEC91E00E944F
:10054000E1019C01332744E0359527954A95E1F771
:10055000E82E129FE00C11248DEC91E00E94E10145
:100560008DEC91E00E94E1019C01332754E0359528
:1005700027955A95E1F7D82E129FD00C11248DECB7
:1005800091E00E94E1019C01332764E035952795B5
:100590006A95E1F7C82E129FC00C11248DEC91E0F2
:1005A0000E94E1019C01332774E0359527957A95E7
:1005B000E1F7129F800D11248883C982DA82EB82D1
:1005C000FC820D83CE01DF91CF911F910F91FF909F
:1005D000EF90DF90CF900895EF92FF920F931F93CB
:1005E000CF93DF93EC0139818881682F70E04A81D5
:1005F00050E0E2E7F0E091E09E1B292F2E0F231739
:1006000028F42491420F511D3196F7CF333020F05A
:10061000837011F44F5F5F4F8DE691E0689F90010A
:10062000699F300D789F300D1124215031096D5F85
:100630007F4F7695679576956795260F371F240F20
:10064000351FA8E1B0E00E94B7062B817B018C0129
:10065000E20EF11C011D111DA8019701ACE3B0E0F1
:100660000E94C6062C817B018C01E20EF11C011D4B
:10067000111DA80197010E94C6062D81DC01CB0146
:10068000820F911DA11DB11DBC01CD0160587C4B95
:100690008249974CDF91CF911F910F91FF90EF907E
:1006A0000895CF92DF92EF92FF92CF93DF93EC0108
:1006B000CB01BA01605873448D4698432CE3C22E97
:1006C000D12CE12CF12CA70196010E9495066D8397
:1006D000CA01B901A70196010E9495066C83CA015F
:1006E000B90128E130E040E050E00E9495066B83BC
:1006F000188263E97EEF8881482F437091E009F00A
:1007000090E0492F50E0FA01E359FE4F2E173F07C2
:1007100040F0FB01E41BF50B2E0F3F1F8F5F88831A
:10072000EACF81E089838981E82FF0E0EF58FF4F1D
:10073000E491992319F0823009F4EF5FF0E02E176D
:100740003F0720F02E1B3F0B8F5FECCF2F5F2A83DC
:10075000DF91CF91FF90EF90DF90CF9008950E94AE
:10076000D7061F920F920FB60F9211242F933F932B
:100770004F935F936F937F938F939F93AF93BF93A9
:10078000EF93FF938091B900887F803609F49CC075
:1007900068F5883209F45BC090F4803109F454C0E4
:1007A00038F4882309F4F3C0883009F44DC0F3C04D
:1007B000883109F44CC0803209F45DC0ECC080344B
:1007C00009F468C048F4803309F455C0883309F04F
:1007D000E2C08093A801D5C0803509F44FC08835A8
:1007E00009F45DC0883409F0D6C0D3C0883909F453
:1007F000C4C0A8F4883709F467C038F4883609F40F
:1008000063C0803709F460C0C6C0883809F4B5C039
:10081000803909F45FC0803809F0BDC05BC0803BFF
:1008200009F483C038F4803A09F466C0883A09F4C0
:100830007CC0B1C0803C09F4A4C0883C09F4A1C0CC
:10084000883B09F487C0A7C08091A50110C0909192
:10085000A7018091A601981770F5E091A70181E0AA
:100860008E0F8093A701F0E0EC57FE4F80818093BC
:10087000BB0085EC83C08093A8018BC0E091A701E9
:1008800081E08E0F8093A7018091BB00F0E0EC57D0
:10089000FE4F80839091A7018091A6016BC0E091EB
:1008A000A70181E08E0F8093A7018091BB00F0E04B
:1008B000EC57FE4F80838091A90181116AC081E0CD
:1008C0008093A40184EA5EC083E08093AA01109221
:1008D0005F01CFCF80915F01803208F04EC0E09180
:1008E0005F0181E08E0F80935F018091BB00F0E09B
:1008F000E15CFE4F8083BDCF80915F01803230F498
:10090000E0915F01F0E0E15CFE4F10820E942B015C
:1009100060915F0170E0E0913D01F0913E018FE355
:1009200091E0099510925F012CC084E08093AA01A8
:1009300010923C0110923B01E0913901F0913A0193
:10094000099580913B01811105C081E080933B01B5
:1009500010921901E0913C0181E08E0F80933C01DF
:10096000F0E0E75EFE4F80818093BB0090913C01F8
:1009700080913B01981708F47CCF85E88093BC00F8
:100980000AC085EC8093BC001092AA0104C01092AA
:10099000A8010E942B01FF91EF91BF91AF919F9110
:1009A0008F917F916F915F914F913F912F910F9018
:1009B0000FBE0F901F9018951F920F920FB60F92B7
:1009C00011242F933F938F939F93AF93BF93809165
:1009D000110190911201A0911301B0911401309175
:1009E000100123E0230F2D3720F40196A11DB11D26
:1009F00005C026E8230F0296A11DB11D209310010A
:100A00008093110190931201A0931301B0931401EC
:100A10008091150190911601A0911701B0911801D4
:100A20000196A11DB11D8093150190931601A0930D
:100A30001701B0931801BF91AF919F918F913F9192
:100A40002F910F900FBE0F901F901895EDECF1E0D5
:100A50001382128288EE93E0A0E0B0E08483958355
:100A6000A683B78384E091E09183808340E050E0E7
:100A7000BA018FED91E00E94510340E050E0BA01CD
:100A800089ED91E00C945103CF93DF93CDB7DEB79E
:100A90002C970FB6F894DEBF0FBECDBF789484B507
:100AA000826084BD84B5816084BD85B5826085BD6A
:100AB00085B5816085BD80916E00816080936E00F8
:100AC00010928100809181008260809381008091EA
:100AD000810081608093810080918000816080939B
:100AE00080008091B10084608093B1008091B0005B
:100AF00081608093B00080917A00846080937A0056
:100B000080917A00826080937A0080917A0081607F
:100B100080937A0080917A00806880937A001092A6
:100B2000C1001092AC011092AB01109261011092C1
:100B300083011092AA0111E01093A9011092A4015F
:100B400061E082E10E94600161E083E10E94600156
:100B50008091B9008E7F8093B9008091B9008D7F1C
:100B60008093B90088E48093B80085E48093BC004A
:100B70001093600188E680938201109261011092C7
:100B8000830160E08DEC91E00E943A020E94D20065
:100B900081E090E00E948D008DEC91E00E94E101E7
:100BA00087FF31C0109360011092610110928301A0
:100BB00060E08DEC91E00E943A0260E08DEC91E003
:100BC0000E943A0260E08DEC91E00E943A0263E0FC
:100BD0008DEC91E00E943A0260E08DEC91E00E9481
:100BE0003A0261E28DEC91E00E943A0261E08DEC04
:100BF00091E00E943A0264E18DEC91E00E943A0299
:100C00000E94D2000DC0CE0101960E94630286E0D0
:100C1000FE013196A9EDB1E001900D928A95E1F7C0
:100C2000EEE9F0E02491EAE8F0E08491882399F07D
:100C300090E0880F991FFC01E859FF4FA591B491EE
:100C4000FC01E258FF4F859194918FB7F894EC9195
:100C5000E22BEC938FBF96E0392E24EB422E512CE1
:100C6000612C712C00E010E0CE0107960E94630217
:100C7000CE0101960E946302FE013196DE011796B5
:100C8000832D01900D928A95E1F7CE0107960E947F
:100C9000EC026B017C0189ED91E00E94EC02A7015E
:100CA0009601261B370B480B590BCA01B901A3014A
:100CB00092010E949506672B682B692B79F561E0FC
:100CC00082E00E9460010E94AC014B015C0180E661
:100CD000C82E8AEED82EE12CF12C0E94AC01DC014A
:100CE000CB0188199909AA09BB09883E9340A1053F
:100CF000B10558F031E0C31AD108E108F10848EE17
:100D0000840E43E0941EA11CB11CC114D104E10463
:100D1000F10419F760E082E00E94600101151105FD
:100D200009F4A2CF0E9400009FCFA1E21A2EAA1BB5
:100D3000BB1BFD010DC0AA1FBB1FEE1FFF1FA2178B
:100D4000B307E407F50720F0A21BB30BE40BF50B88
:100D5000661F771F881F991F1A9469F76095709511
:100D6000809590959B01AC01BD01CF010895A29F94
:100D7000B001B39FC001A39F700D811D1124911D6F
:100D8000B29F700D811D1124911D08950E94B70618
:100D9000A59F900DB49F900DA49F800D911D1124CF
:100DA0000895EE0FFF1F0590F491E02D099481E066
:0C0DB00090E0F8940C94DC06F894FFCF5F
:100DBC00000000003A02FD01F501E101D201D10170
:00000001FF
