:100000000C9458000C9480000C9480000C94800098
:100010000C9480000C9480000C9480000C94800060
:100020000C9480000C9480000C9480000C94800050
:100030000C9480000C9480000C9480000C94800040
:100040000C94A8040C9480000C9480000C94800004
:100050000C9480000C9480000C9480000C94800020
:100060000C947D030C948000000000002500280003
:100070002B00040404040404040402020202020229
:10008000030303030303010204081020408001025C
:1000900004081020010204081020000000080002DB
:1000A00001000003040700000000000000001C0520
:1000B00011241FBECFEFD8E0DEBFCDBF11E0A0E01E
:1000C000B1E0EAE7F4E102C005900D92A232B10777
:1000D000D9F721E0A2E2B1E001C01D92A93FB20729
:1000E000E1F710E0C8E5D0E004C02197FE010E94CE
:1000F000BD07C735D107C9F70E9435050C943B0AE7
:100100000C9400002091DE019091DD01213208F075
:1001100046C08091BA018111FCCF32E03093BA0120
:1001200031E03093B9013FEF3093B8011092B7013D
:100130002093B601ADEBB1E046E951E0FA013E2F64
:10014000341B321718F43D913193F9CF1092950179
:1001500020919501990F922B909395019091940184
:10016000913041F410929401909195019093BB00CD
:1001700095EC01C095EE9093BC009091BA0192303D
:10018000E1F39091B8019F3F79F08091B8018032FE
:1001900041F08091B801803331F084E005C081E006
:1001A00003C082E001C083E01092BC011092DE0126
:1001B0001092BB01089590E0FC01E656FF4F249198
:1001C000FC01EA57FF4F3491FC01EE58FF4FE491D8
:1001D000EE23B1F1222339F1233091F038F42130AC
:1001E000A9F0223001F584B58F7D12C0273091F03F
:1001F0002830A1F02430B9F4809180008F7D03C0B5
:10020000809180008F77809380000DC084B58F77B8
:1002100084BD09C08091B0008F7703C08091B00089
:100220008F7D8093B000F0E0EE0FFF1FE859FF4F85
:10023000A591B4918FB7F894EC913E2B3C938FBF6E
:1002400008959091BA019111FCCF813208F080E2BB
:1002500091E09093BA019093B9012FEF2093B801E8
:100260001092B701280F2093B601909395019091B9
:100270009501906D9093950190919401913041F486
:1002800010929401909195019093BB0095EC01C060
:1002900095EE9093BC009091BA019130E1F390916A
:1002A000B701981710F48091B701A6E9B1E024E7EF
:1002B00031E0F9019E2F921B981718F49D919193AC
:1002C000F9CF1092730180937201089585ED8093A8
:1002D000BC008091BC0084FDFCCF1092BA0108954F
:1002E0001092BA0181E08093B9011092940182E1E9
:1002F0000E94DB0083E10E94DB00E9EBF0E08081FB
:100300008E7F808380818D7F808388E48093B80096
:1003100085E48093BC0008953FB7F894809127014D
:1003200090912801A0912901B0912A0126B5A89B9E
:1003300005C02F3F19F00196A11DB11D3FBFBA2F77
:10034000A92F982F8827820F911DA11DB11DBC01D7
:10035000CD0142E0660F771F881F991F4A95D1F79C
:1003600008950895E091730180917201E81730F4C7
:10037000F0E0EC58FE4F808190E008958FEF9FEF02
:1003800008959091730180917201981750F4E92FAC
:10039000F0E0EC58FE4F208130E09F5F90937301B6
:1003A00002C02FEF3FEFC90108958091720190E0E4
:1003B00020917301821B91090895CF92DF92EF92F1
:1003C000FF920F931F93CF93DF937C018A0180915B
:1003D000BB01882389F0EB016B01C40ED51ECC153F
:1003E000DD05F1F06991D701ED91FC910190F0816B
:1003F000E02DC7010995F3CF842F413288F4909105
:10040000BA01943069F440934D01FB012BE231E0D5
:10041000D9019A2F921B981718F491919D93F9CFB7
:10042000C801DF91CF911F910F91FF90EF90DF9066
:10043000CF9008952091BB012223C9F02091DE01C5
:10044000203240F021E030E0FC013383228380E061
:1004500090E008958091BC01E82FF0E0E354FE4F56
:1004600060838F5F8093BC018093DE0109C080911F
:10047000BA01843029F481E080934D0160932B010F
:1004800081E090E00895CF93DF93EC0181E08093C9
:10049000BB018EE38093DD011092BC011092DE015E
:1004A00068818FED91E00E941A0269818FED91E0E1
:1004B0000E941A02DF91CF910C948200CF93DF93B8
:1004C00000D0CDB7DEB780E489836A83CE01019680
:1004D0000E94430281E090E00F900F90DF91CF9156
:1004E0000895CF92DF92EF92FF920F931F93CF93D5
:1004F000DF936C017A018B01C0E0D0E0CE15DF05FF
:1005000089F0D8016D918D01D601ED91FC9101909A
:10051000F081E02DC6010995892B11F47E0102C0FE
:100520002196ECCFC701DF91CF911F910F91FF90E2
:10053000EF90DF90CF9008950E94BA090F931F9318
:10054000CF93DF93EC0188819981009729F02A816C
:100550003B812617370788F48B016F5F7F4F0E941E
:10056000F008009761F0998388831B830A832C81AC
:100570003D81232B11F4FC01108281E001C080E059
:10058000DF91CF911F910F910895CF93DF93EC01ED
:1005900088819981009711F00E9458081982188269
:1005A0001D821C821B821A82DF91CF910895EF92E7
:1005B000FF920F931F93CF93DF93EC01FB01848194
:1005C0009581E080F1800C811D81E114F104B1F08E
:1005D0000097B9F0080F191FB801CE010E949E02C2
:1005E000882361F0288139818C819D81B701820F38
:1005F000931F0E94C8091D830C8303C0CE010E9473
:10060000C502CE01DF91CF911F910F91FF90EF9026
:100610000895EF92FF920F931F93CF93DF93EC0116
:100620007B018A01BA010E949E02811104C0CE01A1
:100630000E94C50207C01D830C83B7018881998180
:100640000E94C809CE01DF91CF911F910F91FF90B9
:10065000EF900895FC01808191810C945808EF92ED
:10066000FF920F931F93CF93DF93CDB7DEB72997F8
:100670000FB6F894DEBF0FBECDBF8C01862FF801F8
:1006800011821082138212821582148250E09E0120
:100690002F5F3F4F7901B90190E00E94CF09F70128
:1006A00001900020E9F73197AF014E195F09B701BA
:1006B000C8010E94090329960FB6F894DEBF0FBE49
:1006C000CDBFDF91CF911F910F91FF90EF900895D3
:1006D000FC0111821082138212821582148261152C
:1006E000710551F0FB0101900020E9F73197AF014E
:1006F000461B570B0C94090308951F920F920FB6D7
:100700000F9211242F933F934F935F936F937F9397
:100710008F939F93AF93BF93EF93FF938091B90013
:10072000887F803609F49CC068F5883209F45BC084
:1007300090F4803109F454C038F4882309F4F3C0EC
:10074000883009F44DC0F3C0883109F44CC08032C0
:1007500009F45DC0ECC0803409F468C048F480330B
:1007600009F455C0883309F0E2C08093B801D5C0C0
:10077000803509F44FC0883509F45DC0883409F02C
:10078000D6C0D3C0883909F4C4C0A8F4883709F4A6
:1007900067C038F4883609F463C0803709F460C054
:1007A000C6C0883809F4B5C0803909F45FC0803804
:1007B00009F0BDC05BC0803B09F483C038F4803AC7
:1007C00009F466C0883A09F47CC0B1C0803C09F4E1
:1007D000A4C0883C09F4A1C0883B09F487C0A7C025
:1007E0008091950110C09091B7018091B601981742
:1007F00070F5E091B70181E08E0F8093B701F0E0D2
:10080000EA56FE4F80818093BB0085EC83C08093C5
:10081000B8018BC0E091B70181E08E0F8093B701E2
:100820008091BB00F0E0EA56FE4F80839091B701C3
:100830008091B6016BC0E091B70181E08E0F80938B
:10084000B7018091BB00F0E0EA56FE4F80838091B3
:10085000B90181116AC081E08093940184EA5EC08D
:1008600083E08093BA0110927101CFCF8091710122
:10087000803208F04EC0E091710181E08E0F8093CC
:1008800071018091BB00F0E0EF5AFE4F8083BDCF35
:1008900080917101803230F4E0917101F0E0EF5A03
:1008A000FE4F10820E9466016091710170E0E0913C
:1008B0004F01F091500181E591E00995109271018D
:1008C0002CC084E08093BA0110924E0110924D0129
:1008D000E0914B01F0914C01099580914D018111FE
:1008E00005C081E080934D0110922B01E0914E01F3
:1008F00081E08E0F80934E01F0E0E55DFE4F808138
:100900008093BB0090914E0180914D01981708F49F
:100910007CCF85E88093BC000AC085EC8093BC0046
:100920001092BA0104C01092B8010E946601FF91B2
:10093000EF91BF91AF919F918F917F916F915F9157
:100940004F913F912F910F900FBE0F901F901895D0
:100950001F920F920FB60F9211242F933F938F93F4
:100960009F93AF93BF938091230190912401A09115
:100970002501B09126013091220123E0230F2D376C
:1009800020F40196A11DB11D05C026E8230F029693
:10099000A11DB11D20932201809323019093240176
:1009A000A0932501B0932601809127019091280101
:1009B000A0912901B0912A010196A11DB11D80933A
:1009C000270190932801A0932901B0932A01BF9198
:1009D000AF919F918F913F912F910F900FBE0F90EC
:1009E0001F901895CF93C62F91E09093BB0192E68C
:1009F0009093DD011092BC011092DE01682F8FED03
:100A000091E00E941A026C2F8FED91E00E941A0271
:100A1000CF910C948200CF93DF9300D0CDB7DEB797
:100A200090E899838A83CE0101960E9443020F9039
:100A30000F90DF91CF910895EFEDF1E013821282D4
:100A400088EE93E0A0E0B0E084839583A683B7832B
:100A50008AE091E091838083EBEEF1E013821282D1
:100A60008AE191E0918380830895CF93DF93CDB79E
:100A7000DEB7AF970FB6F894DEBF0FBECDBF789448
:100A800084B5826084BD84B5816084BD85B5826093
:100A900085BD85B5816085BD80916E008160809344
:100AA0006E001092810080918100826080938100AD
:100AB00080918100816080938100809180008160BD
:100AC000809380008091B10084608093B100809118
:100AD000B00081608093B00080917A008460809340
:100AE0007A0080917A00826080937A0080917A0007
:100AF000816080937A0080917A00806880937A0088
:100B00001092C10010927301109272011092BC01F8
:100B10001092DE010E94700111E01093BB0188E683
:100B20008093DD0160E08FED91E00E941A020E9447
:100B3000820081E090E00E9421018FED91E00E940F
:100B4000C10187FF30C01093BB011092BC0110920D
:100B5000DE0160E08FED91E00E941A0260E08FED0F
:100B600091E00E941A0260E08FED91E00E941A026B
:100B700063E08FED91E00E941A0260E08FED91E05A
:100B80000E941A0261E28FED91E00E941A0261E078
:100B90008FED91E00E941A0264E18FED91E00E94D6
:100BA0001A020E9482001092730110927201109238
:100BB000BC011092DE010E9470018091EF01982F1C
:100BC00098609093EF0112E01093F3011092F401FA
:100BD000EBE3FDE03197F1F788620E940B058BE4AF
:100BE00096E40197F1F78091EF0180620E940B0576
:100BF00083E592E00197F1F78091EF0180620E9416
:100C00000B058091EF0180620E940B0584E08093C8
:100C1000F0018CE00E940B0581E00E940B058BE344
:100C20009FE10197F1F71093F10186E00E940B0517
:100C300060E080E00E94F2046FEF88E00E94F2041E
:100C400060E281E00E94F2046FEF84E00E94F2040F
:100C50006FEF83E00E94F2046FEF82E00E94F204E3
:100C60008E010F5F1F4F22242394EAEFFE2E209265
:100C7000BB0128E62093DD011092BC011092DE0139
:100C800060E08FED91E00E941A020E94820087E0EE
:100C900090E00E9421018FED91E00E94C1018F77C9
:100CA000982F92959F70882E9F9D800C11248FED18
:100CB00091E00E94C1019C01332794E0359527956E
:100CC0009A95E1F7982EF29E900C11248FED91E009
:100CD0000E94C1019C01332744E0359527954A9530
:100CE000E1F7E82EF29EE00C11248FED91E00E94D6
:100CF000C1018FED91E00E94C1019C01332754E0B6
:100D0000359527955A95E1F7782EF29E700C1124AF
:100D10008FED91E00E94C1019C01332764E035957D
:100D200027956A95E1F7382EF29E300C11248FED4D
:100D300091E00E94C1019C01332774E0359527950D
:100D40007A95E1F7F29E800D1124C82ED12C80E314
:100D5000C81A88EFD80A90E899839A83C8010E943C
:100D600043021B8A1A8A1D8A1C8A1F8A1E8A4AE02D
:100D7000B801C6010E94DA09F80101900020E9F7E4
:100D80003197AF01401B510BB801CE0142960E9432
:100D900009036EE171E0C8010E9468034AE0632D17
:100DA000CE0148960E942F036EE171E0CE014E966F
:100DB0000E9468034AE0672DCE018A960E942F03A5
:100DC0001DA21CA21FA21EA219A618A66AA57BA579
:100DD0006115710531F04EA55FA5CE0184960E9484
:100DE0000903BE01625E7F4FCE0184960E94D70246
:100DF000BE01685E7F4F0E94D702B8010E94D702F1
:100E0000BE016E5E7F4F0E94D702FC014481558176
:100E1000608171818BEE91E00E947102CE01849617
:100E20000E942A03CE018A960E942A03CE014E9682
:100E30000E942A03CE0148960E942A03C8010E94FC
:100E40002A03CE0142960E942A03F0E8F98320EC9F
:100E50002A83C8010E9443024AE0682DC8010E940B
:100E60002F0360E271E0CE0142960E9468034AE0DF
:100E7000692DCE0148960E942F0360E271E0CE01F9
:100E80004E960E9468034AE06E2DCE018A960E941B
:100E90002F031DA21CA21FA21EA219A618A66AA596
:100EA0007BA56115710531F04EA55FA5CE01849635
:100EB0000E940903BE01625E7F4FCE0184960E94AC
:100EC000D702BE01685E7F4F0E94D702BE016E5EF0
:100ED0007F4F0E94D702B8010E94D702FC014481D3
:100EE0005581608171818BEE91E00E947102CE018B
:100EF00084960E942A03CE018A960E942A03CE017C
:100F00004E960E942A03CE0148960E942A03CE01E3
:100F100042960E942A03C8010E942A030E948C0163
:100F20002B013C0188EE882E83E0982EA12CB12C59
:100F30000E948C01DC01CB0184199509A609B7092F
:100F4000883E9340A105B10558F0F1E08F1A910851
:100F5000A108B10828EE420E23E0521E611C711C4C
:100F600081149104A104B10419F780E090E0892B69
:100F700009F47DCE0E94000076CEEE0FFF1F059093
:100F8000F491E02D0994CF93DF938230910510F412
:100F900082E090E0E091F701F091F80120E030E08C
:100FA000C0E0D0E0309711F14081518148175907D6
:100FB000C0F04817590761F482819381209719F096
:100FC0009B838A832BC09093F8018093F70126C0FE
:100FD0002115310519F04217530718F49A01BE0183
:100FE000DF01EF010280F381E02DDCCF2115310517
:100FF00009F1281B390B2430310590F412968D919C
:101000009C9113976115710521F0FB0193838283F5
:1010100004C09093F8018093F701FD01329644C01B
:10102000FD01E20FF31F81939193225031092D931B
:101030003C933AC02091F5013091F601232B41F405
:1010400020910201309103013093F6012093F501C4
:1010500020910001309101012115310541F42DB796
:101060003EB74091040150910501241B350BE091DE
:10107000F501F091F601E217F307A0F42E1B3F0BE8
:101080002817390778F0AC014E5F5F4F24173507FA
:1010900048F04E0F5F1F5093F6014093F501819386
:1010A000919302C0E0E0F0E0CF01DF91CF9108958D
:1010B0000F931F93CF93DF93009709F48CC0FC012B
:1010C0003297138212820091F7011091F8010115F5
:1010D000110581F420813181820F931F2091F50148
:1010E0003091F6012817390779F5F093F601E0936E
:1010F000F50171C0D80140E050E0AE17BF0750F4D1
:1011000012962D913C911397AD012115310509F1EE
:10111000D901F3CF9D01DA0133832283608171818C
:10112000860F971F8217930769F4EC012881398194
:10113000260F371F2E5F3F4F318320838A819B818B
:1011400093838283452B29F4F093F801E093F70110
:1011500042C01396FC93EE931297ED014991599179
:101160009E01240F351FE217F30771F480819181EE
:10117000840F951F029611969C938E938281938182
:1011800013969C938E931297E0E0F0E0D8011296AC
:101190008D919C911397009719F0F8018C01F6CF6F
:1011A0008D919C9198012E5F3F4F820F931F20914C
:1011B000F5013091F6012817390769F4309729F4C1
:1011C0001092F8011092F70102C01382128210935C
:1011D000F6010093F501DF91CF911F910F910895D2
:1011E000A0E0B0E0E6EFF8E00C94080AEC0100970C
:1011F00021F4CB010E94C307B8C0FC01E60FF71F22
:101200009C0122503109E217F30708F4ACC0D90160
:101210000D911C91119706171707B0F005301105B5
:1012200008F49FC0C80104978617970708F499C06F
:1012300002501109061B170B019311936D937C93B8
:10124000CF010E9458088DC05B01A01AB10A4C0161
:10125000800E911EA091F701B091F80140E050E09E
:10126000E12CF12C109709F44AC0A815B905D1F565
:101270006D907C901197630182E0C80ED11CCA1456
:10128000DB0480F1A3014A195B096A0182E0C80E00
:10129000D11C1296BC9012971396AC91B5E0CB1668
:1012A000D10440F0B282A38351834083D9016D936E
:1012B0007C930AC00E5F1F4FC301800F911FF9017D
:1012C00091838083EB2DFA2FE114F10431F0D701E3
:1012D0001396FC93EE93129744C0F093F801E093B9
:1012E000F7013FC08D919C9111974817590708F459
:1012F000AC017D0112960D90BC91A02DB3CF8091D1
:10130000F5019091F60188159905E1F44617570704
:10131000C8F48091000190910101009741F48DB7CC
:101320009EB74091040150910501841B950BE8176D
:10133000F907C8F4F093F601E093F501F901718320
:1013400060830FC0CB010E94C3077C01009759F056
:10135000A801BE010E94BF09CE010E945808C70122
:1013600004C0CE0102C080E090E0CDB7DEB7EEE071
:101370000C94240A81E090E0F8940C943B0AFB0161
:10138000DC0102C001900D9241505040D8F7089501
:10139000FB01DC0101900D920020E1F70895453238
:1013A000510520F4423010F00C94DA09FB01108250
:1013B000CB010895BB27FB015527AA27880F991F4A
:1013C000AA1FA41710F0A41B83955051B9F7A05D74
:1013D000AA3308F0A95DA193009779F7B111B193F1
:1013E0001192CB010C94F409DC01FC01672F71917F
:1013F0007723E1F7329704C07C916D9370836291FB
:10140000AE17BF07C8F308952F923F924F925F9295
:101410006F927F928F929F92AF92BF92CF92DF9204
:10142000EF92FF920F931F93CF93DF93CDB7DEB769
:10143000CA1BDB0B0FB6F894DEBF0FBECDBF0994FD
:101440002A88398848885F846E847D848C849B8454
:10145000AA84B984C884DF80EE80FD800C811B8162
:10146000AA81B981CE0FD11D0FB6F894DEBF0FBE91
:0A147000CDBFED010895F894FFCF01
:10147A000000F9018000000000001A02DD01D50118
:10148A00C101B201B101000000005E0271022F0029
:02149A003A0016
:00000001FF
