:100000000C9454000C947C000C947C000C947C00A8
:100010000C947C000C947C000C947C000C947C0070
:100020000C947C000C947C000C947C000C947C0060
:100030000C947C000C947C000C947C000C947C0050
:100040000C9441010C947C000C947C000C947C007A
:100050000C947C000C947C000C947C000C947C0030
:100060000C947C000C947C0000000000240027000D
:100070002A0000000000250028002B0004040404CE
:100080000404040402020202020203030303030342
:10009000010204081020408001020408102001021F
:1000A00004081020ED01630211241FBECFEFD8E039
:1000B000DEBFCDBF11E0A0E0B1E0E2EBF7E002C0AF
:1000C00005900D92A232B107D9F721E0A2E2B1E08A
:1000D00001C01D92A235B207E1F710E0C3E5D0E000
:1000E00004C02197FE010E946902C235D107C9F7F9
:1000F0000E948B010C94CC030C9400003FB7F89441
:100100008091370190913801A0913901B0913A0165
:1001100026B5A89B05C02F3F19F00196A11DB11D62
:100120003FBFBA2FA92F982F8827820F911DA11D9D
:10013000B11DBC01CD0142E0660F771F881F991FDA
:100140004A95D1F708958F929F92AF92BF92CF9226
:10015000DF92EF92FF926B017C010E947E004B01C7
:100160005C01C114D104E104F104F1F00E947E00AD
:10017000DC01CB0188199909AA09BB09883E934083
:10018000A105B10570F321E0C21AD108E108F10818
:1001900088EE880E83E0981EA11CB11CC114D10406
:1001A000E104F10419F7DDCFFF90EF90DF90CF90DD
:1001B000BF90AF909F908F900895A0914301B09110
:1001C00044012091470180913F0190914001AC0191
:1001D000440F551F840F951F70914101609142019A
:1001E0005FB7F8944C91322F30953423242BE72FAE
:1001F000F62F8E0F9F1FE817F90781F0419168E0F5
:100200002C9300C047FF3C93440F00C000C000C0C7
:1002100008F43C9300C06A9599F7EDCF5FBF61E0A9
:1002200070E080E090E00C94A30040E050E020916A
:100230003F01309140014217530708F5FA01FF27AB
:10024000E217F307C8F4242F220F240F30E0E091C7
:100250004101F0914201E20FF31F6083E0914101FF
:10026000F0914201E20FF31F8183E0914101F0918F
:100270004201E20FF31F12824F5F5F4FD8CF81E040
:1002800008951F920F920FB60F9211242F933F9350
:100290008F939F93AF93BF938091330190913401DB
:1002A000A0913501B09136013091320123E0230F46
:1002B0002D3720F40196A11DB11D05C026E8230F9E
:1002C0000296A11DB11D20933201809333019093BA
:1002D0003401A0933501B09336018091370190919C
:1002E0003801A0913901B0913A010196A11DB11DCB
:1002F0008093370190933801A0933901B0933A016C
:10030000BF91AF919F918F913F912F910F900FBE11
:100310000F901F901895789484B5826084BD84B541
:10032000816084BD85B5826085BD85B5816085BDF0
:1003300080916E00816080936E00109281008091A8
:100340008100826080938100809181008160809330
:100350008100809180008160809380008091B10055
:1003600084608093B1008091B00081608093B00080
:1003700080917A00846080937A0080917A00826014
:1003800080937A0080917A00816080937A008091D6
:100390007A00806880937A001092C100C0E0D0E0BB
:1003A00060E08FEF0E9415010E94DD0064EF71E0B4
:1003B00080E090E00E94A3006FEF80E00E941501B2
:1003C0000E94DD0064EF71E080E090E00E94A300F5
:1003D000209731F30E940000E3CF86E080932A014A
:1003E00087E080932B0199E090932C0195E0909306
:1003F000220194E0909323019AE09093240195E1E7
:1004000090933B019DE090933C0180933D014DE929
:1004100050E0FA0184918093470189E890E0FC0163
:10042000249130E0220F331F2E583F4FF901659180
:1004300074917093440160934301FA014491FC016B
:100440008491882399F090E0880F991FFC01E85966
:10045000FF4FA591B491FC01EE58FF4F8591949107
:100460008FB7F8949C91492B4C938FBF82E090E01A
:100470009093400180933F0186E090E00E946F02DC
:100480009093420180934101892B21F486E091E011
:100490000E949C0320E030E080913F019091400158
:1004A000AC01440F551F840F951F2817390750F4CE
:1004B000E0914101F0914201E20FF31F10822F5FA2
:1004C0003F4FEACF089580914101909142010C94F1
:1004D0000403EE0FFF1F0590F491E02D0994CF93D4
:1004E000DF938230910510F482E090E0E0914A01C0
:1004F000F0914B0120E030E0C0E0D0E0309711F106
:100500004081518148175907C0F04817590761F4D5
:1005100082819381209719F09B838A832BC09093CB
:100520004B0180934A0126C02115310519F042176D
:10053000530718F49A01BE01DF01EF010280F38135
:10054000E02DDCCF2115310509F1281B390B2430B2
:10055000310590F412968D919C9113976115710558
:1005600021F0FB019383828304C090934B0180931D
:100570004A01FD01329644C0FD01E20FF31F819351
:100580009193225031092D933C933AC02091480118
:1005900030914901232B41F4209102013091030154
:1005A00030934901209348012091000130910101CD
:1005B0002115310541F42DB73EB74091040150910A
:1005C0000501241B350BE0914801F0914901E21728
:1005D000F307A0F42E1B3F0B2817390778F0AC0166
:1005E0004E5F5F4F2417350748F04E0F5F1F509343
:1005F0004901409348018193919302C0E0E0F0E00B
:10060000CF01DF91CF9108950F931F93CF93DF9385
:10061000009709F48CC0FC0132971382128200917A
:100620004A0110914B010115110581F4208131819E
:10063000820F931F209148013091490128173907F3
:1006400079F5F0934901E093480171C0D80140E089
:1006500050E0AE17BF0750F412962D913C911397BE
:10066000AD012115310509F1D901F3CF9D01DA0161
:100670003383228360817181860F971F82179307CE
:1006800069F4EC0128813981260F371F2E5F3F4F17
:10069000318320838A819B8193838283452B29F434
:1006A000F0934B01E0934A0142C01396FC93EE9302
:1006B0001297ED01499159919E01240F351FE217C0
:1006C000F30771F480819181840F951F0296119632
:1006D0009C938E938281938113969C938E93129711
:1006E000E0E0F0E0D80112968D919C91139700976D
:1006F00019F0F8018C01F6CF8D919C9198012E5F35
:100700003F4F820F931F20914801309149012817D4
:10071000390769F4309729F410924B0110924A017D
:1007200002C0138212821093490100934801DF91A5
:10073000CF911F910F9108950F931F93CF93DF9344
:10074000E0914E01F0914F01238121FF1BC08C01EC
:10075000D0E0C0E0F80181918F0160914E0170916D
:100760004F01DB011896ED91FC911997882331F028
:100770000995892B79F3DFEFCFEFECCF8AE009956C
:10078000892B19F08FEF9FEF02C08D2F9C2FDF91E7
:10079000CF911F910F91089510E0C3E5D0E004C000
:1007A000FE010E9469022196C435D107C9F7F89469
:0207B000FFCF79
:1007B2000000520180005468657265206973206EE2
:1007C2006F7420656E6F7567682073706163652151
:0207D2000D0018
:00000001FF
