:100000000C9485190C94B6190C94B6190C94B61965
:100010000C94B6190C94B6190C94B6190C94B61924
:100020000C94B6190C94B6190C94B6190C94B61914
:100030000C94B6190C94B6190C94B6190C94B61904
:100040000C94B6190C944BA30C94B6190C94B619D5
:100050000C94B6190C94B6190C9408B60C94F3F4DD
:100060000C94B6190C94B8190C94B6190C94B619D2
:100070000C94B6190C94B6190C94B6190C94B619C4
:100080000C94B6190C94B6190C94B6190C94B619B4
:100090000C94B6190C94B6190C94B6190C94B619A4
:1000A0000C94B6190C94B6190C94B6190C94B61994
:1000B0000C94B6190C94B6190C94B6190C94B61984
:1000C0000C94B6190C94B6190C94B6190C94B61974
:1000D0000C94B6190C94B6190C94B6190C94B61964
:1000E0000C94B61984B694B6B3B6B8B6BBB6C0B65F
:1000F000C3B6C8B6CBB6D0B6D3B6D8B6E2B628F635
:100100002DF632F63CF646F6BFF650F658F660F697
:100110006AF674F67EF68DF697F6BFF6A1F6ABF6A4
:10012000B5F6E0F6E3F6D2F6D6F6DCF61AF7E7F621
:10013000EBF6F1F6F5F6F9F6FFF603F707F71AF71F
:100140000DF711F715F7084AD73B3BCE016E84BC7B
:10015000BFFDC12F3D6C74319ABD56833DDA3D0021
:10016000C77F11BED9E4BB4C3E916BAAAABE00006A
:1001700000803F05A84CCDB2D44EB93836A9020C48
:1001800050B9918688083CA6AAAA2ABE0000008021
:100190003F005072696E7465722068616C746564AA
:1001A0002E206B696C6C28292063616C6C6564215E
:1001B000004D4F52542E004D4F52542E0020746F5C
:1001C0006F206C6F6E6720657874727573696F6EDF
:1001D0002070726576656E7465640020636F6C6470
:1001E00020657874727573696F6E207072657665BC
:1001F0006E746564006F6B00526573656E643A20BF
:10020000004D36303020486F74656E6420746F6F17
:1002100020636F6C6420746F206368616E67652073
:1002200066696C616D656E74004368616E676572C6
:100230002066696C616D656E740050617573652030
:10024000666F722066696C616D656E7420636861AB
:100250006E6765003A20007A5F6D61783A20007A17
:100260005F6D696E3A2000446563616C616765206B
:100270005A00446563616C61676573206170706CDE
:100280006971756573004572723A20546F6F20660C
:1002900061722100546F6F206661722066726F6D0B
:1002A000207265666572656E636520706F696E7435
:1002B0000053657474696E672054726176656C20B2
:1002C000416363656C65726174696F6E3A200053B7
:1002D000657474696E67205265747261637420413D
:1002E0006363656C65726174696F6E3A2000536573
:1002F0007474696E67205072696E7420416363651F
:100300006C65726174696F6E3A200053657474692C
:100310006E67205072696E7420616E642054726141
:1003200076656C20416363656C65726174696F6E9C
:100330003A20004D31343520533C696E6465783E77
:10034000206F7574206F662072616E67652028309B
:100350002D3129007A5F6D696E3A2000795F6D61F9
:10036000783A2000785F6D696E3A2000205A3A0092
:1003700020593A0020436F756E7420583A200020AF
:10038000453A00205A3A0020593A00583A0055554B
:1003900049443A63656465326132662D34316132B5
:1003A0002D343734382D396231322D63353563368B
:1003B00032663336376666204255494C445F434FB8
:1003C00044453A313439353536383433372D653292
:1003D000302D66696C3A6469732D7363723A656E89
:1003E000610A00446973634561737932303020419A
:1003F000727265742E00446973634561737932309B
:10040000302070726574652E00436861756666659C
:10041000207465726D696E6565003F0020573A0073
:10042000456E20636861756666652E2E2E004469F0
:100430007363456173793230302070726574652E54
:10044000006F6B004D3131332053004D4F52542E0D
:10045000004543484F00494E464F004552524F52C7
:10046000530044525952554E00434F4D4D554E493D
:10047000434154494F4E006F666600510456045B79
:10048000046204690444454255473A00456E2063BE
:100490006861756666652E2E2E004469736345613A
:1004A00073793230302070726574652E0053746138
:1004B0006E6461726420446576696174696F6E3A36
:1004C00020004D65616E3A20002020207369676D21
:1004D000613A2000206D65616E3A20002020207A6C
:1004E0003A2000206F66200020207A3A2000793AD6
:1004F0002000783A2000202020616E676C653A2049
:10050000005374617274696E6720726164697573F7
:100510003A2000506F736974696F6E696E6720745A
:1005200068652070726F62652E2E2E0A003F4E7530
:100530006D626572206F66206C65677320696E203E
:100540006D6F76656D656E74206E6F7420706C6172
:10055000757369626C652028302D3135292E0A00AB
:10056000590058003F53616D706C652073697A655E
:10057000206E6F7420706C61757369626C652028E1
:10058000342D3530292E0A004D3438205A2D507222
:100590006F6265205265706561746162696C69742F
:1005A0007920746573740A003F566572626F7365D3
:1005B000204C6576656C206E6F7420706C6175736D
:1005C00069626C652028302D34292E0A00256920A7
:1005D0006D696E2C2025692073656300456E64206B
:1005E00066696C65206C69737400426567696E208A
:1005F00066696C65206C69737400417563756E2063
:100600006D6F7576656D656E742E00446973634514
:100610006173793230302070726574652E005265D6
:100620007072692E206465206C27696D70722E00CF
:10063000417474656E2E206465206C277574696C36
:100640002E005445535400205A3A200020593A2095
:100650000042656420583A2000205A3A2000205970
:100660003A200042656420583A2000202B00200ADE
:10067000436F7272656374656420426564204865E7
:10068000696768742076732E2042656420546F7009
:100690006F6C6F67793A200A00202B002028302CDD
:1006A00030290A002020204F2D2D2046524F4E5435
:1006B000202D2D2B0A002020207C202020202020EF
:1006C00020202020207C0A002020207C20202020A8
:1006D000282D29202020207C20540A002054207C12
:1006E00020202020202020202020207C20480A00BC
:1006F0002046207C20282D29204E20282B29207CB4
:1007000020470A002045207C202020202020202077
:100710002020207C20490A00204C207C2020202002
:10072000282B29202020207C20520A002020207CF9
:1007300020202020202020202020207C0A00202093
:10074000202B2D2D2D204241434B202D2D2B0A00F7
:10075000200A4265642048656967687420546F7098
:100760006F6772617068793A200A004D65616E208A
:100770006F662073616D706C656420706F696E7454
:10078000733A200020643A200020623A200045712C
:100790006E20636F656666696369656E74733A207F
:1007A000613A200028422961636B00284629726F54
:1007B0006E74002852296967687400284C296566A0
:1007C00074003F4E756D626572206F662070726FA7
:1007D000626564202850296F696E747320697320E4
:1007E000696D706C61757369626C65202832206D6B
:1007F000696E696D756D292E0A0052756E6E696E8F
:100800006720696E204452592D52554E206D6F64F9
:100810006500473239204175746F20426564204C71
:100820006576656C696E670A003F285629657262B5
:100830006F7365204C6576656C20697320696D70F7
:100840006C61757369626C652028302D34292E0027
:100850005265762E2064616E732058592061762E81
:100860005A005265762E2064616E732058592061BB
:10087000762E5A005761726E696E673A20486F6D26
:10088000696E672042756D702044697669736F7276
:10089000203C2031005A20736F6E646520657874A7
:1008A000652E206C6974005A20736F6E6465206534
:1008B0007874652E206C6974005265706F732E2EEB
:1008C0002E0020403A00202F0020543A0020706F64
:1008D000736974696F6E206F7574206F6620726122
:1008E0006E67652E003F50726F62652000627573FF
:1008F000793A2070617573656420666F7220696E45
:1009000070757400627573793A20706175736564EF
:1009100020666F72207573657200627573793A2074
:1009200070726F63657373696E6700220A00556E9B
:100930006B6E6F776E20636F6D6D616E643A20220F
:100940000020496E76616C69642065787472756404
:1009500065722000256920686575726573202569B8
:10096000206D696E7574657300446F6E65207072DA
:10097000696E74696E672066696C65004D4F5254EC
:100980002E0053544F5050452E005072696E7465BE
:10099000722073746F707065642064756520746F65
:1009A000206572726F72732E2046697820746865B4
:1009B000206572726F7220616E6420757365204DC0
:1009C00039393920746F20726573746172742E2006
:1009D0002854656D70657261747572652069732045
:1009E00072657365742E2053657420697420616686
:1009F0007465722072657374617274696E67290020
:100A00004E6F204C696E65204E756D626572207761
:100A100069746820636865636B73756D2C204C6125
:100A20007374204C696E653A20004E6F20436865F0
:100A3000636B73756D2077697468206C696E6520CF
:100A40006E756D6265722C204C617374204C696EFA
:100A5000653A2000636865636B73756D206D69731B
:100A60006D617463682C204C617374204C696E65F1
:100A70003A20004C696E65204E756D626572206982
:100A800073206E6F74204C617374204C696E652006
:100A90004E756D6265722B312C204C617374204C45
:100AA000696E653A20004D31313000446F6E65202B
:100AB000736176696E672066696C652E004D323908
:100AC000002020506C616E6E6572427566666572BC
:100AD00042797465733A20002046726565204D6541
:100AE0006D6F72793A20004D6179203233203230B7
:100AF000313700436F6D70696C65643A2000446162
:100B0000676F6D612E467200207C20417574686F9E
:100B1000723A2000323031362D30342D32342031CB
:100B2000323A303000204C61737420557064617427
:100B300065643A200020312E312E302D524336008C
:100B40004D61726C696E0020536F667477617265D7
:100B500020526573657400205761746368646F6721
:100B6000205265736574002042726F776E206F7536
:100B700074205265736574002045787465726E61E7
:100B80006C20526573657400506F77657255700004
:100B90007374617274002200656E717565756569A4
:100BA0006E67202200FF01FF0000A0400000A0406F
:100BB0000000004000004F4300004E4300004D4342
:100BC000000000C000004D430000000000004D4345
:100BD00000004D4300004D43000000C0000080BFF6
:100BE000000000006563686F3A004572726F723AE8
:100BF000007C3C3E5E2B3D3F2F5B5D3B2C2A225C04
:100C0000004D383420582059205A20450043616E49
:100C10006E6F7420656E746572207375626469729C
:100C20003A20006175746F25692E67006572726FD6
:100C3000722077726974696E6720746F2066696CC0
:100C400065004E6F74205344207072696E74696E33
:100C500067005344207072696E74696E6720627910
:100C60007465200044656C6574696F6E2066616907
:100C70006C65642C2046696C653A200046696C6599
:100C80002064656C657465643A006F70656E2066FB
:100C900061696C65642C2046696C653A2000577266
:100CA0006974696E6720746F2066696C653A20000C
:100CB0002E0A006F70656E206661696C65642C2079
:100CC00046696C653A20002E0A006F70656E2066DA
:100CD00061696C65642C2046696C653A2000466940
:100CE0006C652073656C6563746564002053697A74
:100CF000653A200046696C65206F70656E65643AE0
:100D000020006F70656E206661696C65642C2046FA
:100D1000696C653A20004E6F7720667265736820B3
:100D200066696C653A20004E6F7720646F696E6764
:100D30002066696C653A20002220706F73002220C3
:100D4000706172656E743A2200535542524F555489
:100D5000494E452043414C4C207461726765743A9A
:100D600022004D4F52542E00747279696E672074C0
:100D70006F2063616C6C207375622D67636F6465AF
:100D80002066696C6573207769746820746F6F20C2
:100D90006D616E79206C6576656C732E204D4158BF
:100DA000206C6576656C2069733A004D3234004DD5
:100DB00032332025730053442063617264206F6BCB
:100DC000006F70656E526F6F74206661696C656448
:100DD00000766F6C756D652E696E69742066616949
:100DE0006C656400534420696E6974206661696CA7
:100DF0000020204D383531205A005A2D50726F6234
:100E000065204F666673657420286D6D293A002051
:100E1000204D3230302044300020204D3230302000
:100E200044002044697361626C65640046696C61CA
:100E30006D656E742073657474696E67733A002013
:100E40004C0020430020440020490020204D333036
:100E5000312050005049442073657474696E677383
:100E60003A0020460020420020204D3134352053E6
:100E70003120480020460020420020204D313435EA
:100E80002053302048004D6174657269616C2068A0
:100E9000656174757020706172616D6574657273DF
:100EA0003A00205A0020590020204D323036205878
:100EB00000486F6D65206F666673657420286D6DE0
:100EC000293A00204500205A0020580020420020E6
:100ED000540020204D323035205300416476616E3D
:100EE000636564207661726961626C65733A205350
:100EF0003D4D696E20666565647261746520286D7C
:100F00006D2F73292C20543D4D696E2074726176CB
:100F1000656C20666565647261746520286D6D2F4F
:100F200073292C20423D6D696E696D756D20736566
:100F3000676D656E742074696D6520286D73292C4A
:100F400020583D6D6178696D756D205859206A652E
:100F5000726B20286D6D2F73292C20205A3D6D61F6
:100F600078696D756D205A206A65726B20286D6DE9
:100F70002F73292C2020453D6D6178696D756D209A
:100F800045206A65726B20286D6D2F7329002054EF
:100F90000020520020204D32303420500041636345
:100FA000656C65726174696F6E733A20503D707242
:100FB000696E74696E672C20523D7265747261634C
:100FC0007420616E6420543D74726176656C0020FB
:100FD0004500205A0020590020204D323031205841
:100FE000004D6178696D756D20416363656C657254
:100FF0006174696F6E20286D6D2F7332293A00205D
:101000004500205A0020590020204D32303320580E
:10101000004D6178696D756D2066656564726174F7
:10102000657320286D6D2F73293A00204500205AE2
:101030000020590020204D3932205800537465702B
:10104000732070657220756E69743A00486172642D
:10105000636F6465642044656661756C74205365D4
:101060007474696E6773204C6F61646564002062FC
:101070007974657329002073746F726564207365D9
:101080007474696E677320726574726965766564DD
:10109000202800206279746573290053657474698F
:1010A0006E67732053746F726564202800457272F6
:1010B0006F722077726974696E6720746F2045457E
:1010C00050524F4D210020746F6F206C6F6E67205F
:1010D000657874727573696F6E2070726576656E6F
:1010E0007465640020636F6C642065787472757336
:1010F000696F6E2070726576656E746564004D3838
:101100003420582059205A204500456E6473746F6E
:10111000707320256320256320256320256300202C
:101120005A3A0020593A0020583A00656E647374A8
:101130006F7073206869743A200024F4D43050C36F
:101140008E20C2A24017828B7011127A910D816C91
:10115000D90AA861E108C7586607615143061E4BCA
:101160005D05C145A7041A411104093D9803713971
:1011700031034036DB0265339102D4305402802EB5
:101180001D02632CEE01752AC501B028A0011027AD
:1011900081018F2564012B244B01E0223401AC2115
:1011A0001F018D200D01801FFC00841EED00971D86
:1011B000DF00B81CD200E61BC600201BBC00641A6E
:1011C000B200B219A8000A19A0006A189900D11734
:1011D000910040178B00B516840031167E00B315C0
:1011E00079003A157300C7146F0058146A00EE13A3
:1011F00066008813630025135E00C7125B006C1243
:10120000570015125400C111510070114F002111E7
:101210004B00D61049008D104700461044000210C4
:101220004200C00F4000800F3E00420F3C00060FFE
:101230003B00CB0E3800930E37005C0E3500270EB6
:101240003400F30D3200C10D3100900D3000600DFF
:101250002E00320D2D00050D2C00D90C2B00AE0CEC
:101260002900850C29005C0C2700350C27000E0C8A
:101270002600E80B2400C40B2400A00B23007D0BE8
:1012800023005A0B2100390B2100180B2000F80A0B
:101290001F00D90A1E00BB0A1E009D0A1D00800AFD
:1012A0001D00630A1C00470A1B002C0A1B00110AC0
:1012B0001A00F7091A00DD091900C4091900AB0961
:1012C0001900920917007B091800630917004C09DF
:1012D000160036091600200916000A091500F5083F
:1012E0001500E0081400CC081400B8081400A40885
:1012F0001400900813007D0812006B0813005808B2
:1013000012004608120034081100230811001208C8
:10131000110001081100F0071000E0071000D007CD
:101320001000C0071000B0070F00A10710009107C0
:101330000E0083070F0074070F0065070E005707A4
:101340000E0049070E003B070D002E070E00200778
:101350000D0013070D0006070D00F9060C00ED0641
:101360000D00E0060C00D4060C00C8060C00BC06FC
:101370000C00B0060C00A4060B0099060C008D06AC
:101380000B0082060B0077060B006C060B00610653
:101390000A0057060B004C060A0042060A003806EF
:1013A0000A002E060A0024060A001A060A00100681
:1013B000090007060A00FD050900F4050900EB0510
:1013C0000900E2050900D9050900D0050900C70593
:1013D0000900BE050900B5050800AD050800A50512
:1013E00009009C050800940508008C050800840588
:1013F00008007C050800740508006C0507006505F9
:1014000008005D050700560508004E050700470562
:1014100007004005080038050700310507002A05C8
:101420000700230507001C050600160507000F0529
:1014300007000805060002050700FB040600F50486
:101440000700EE040600E8040600E2040700DB04DF
:101450000600D5040600CF040600C9040600C30434
:101460000600BD040600B7040600B1040500AC0484
:101470000600A6040600A00405009B0406009504CF
:101480000500900406008A04050085040500800418
:1014900006007A04050075040500700405006B045D
:1014A000050066040500610405005C04050057049E
:1014B0000500520405004D040500480405004304DE
:1014C00005003E0404003A0405003504050030041C
:1014D00004002C04050027040400230405001E0456
:1014E00004001A04040016040500110404000D048D
:1014F0000400090405000404040000040400FC03C3
:101500000400F8030400F4030400F0030400EC03F7
:101510000400E8030400E4030400E0030400DC0327
:101520000400D8030400D4030400D0030400CC0357
:101530000400C8030300C503030024F404D9201BDE
:10154000C40C5C0E9804C4095F0265077101F405C0
:10155000F900FB04B30048048700C1036900580385
:10156000550003034500BE023A00840231005302D5
:101570002A002902250004022000E4011C00C80101
:101580001900AF01170098011400840113007101C4
:1015900010006101100051010E0043010D003601E1
:1015A0000B002B010B0020010B00150109000C01A1
:1015B000090003010800FB000800F3000800EB002D
:1015C0000700E4000600DE000600D8000600D20096
:1015D0000600CC000500C7000500C2000500BD00E4
:1015E0000400B9000400B5000400B1000400AD001F
:1015F0000400A9000400A5000300A20003009F004E
:1016000004009B0003009800030095000200930073
:101610000300900003008D0002008B00030088008F
:1016200002008600020084000300810002007F00A7
:1016300002007D0002007B000200790002007700BA
:1016400001007600020074000200720001007100C7
:1016500002006F0002006D0001006C0002006A00D1
:1016600001006900020067000100660001006500DA
:1016700001006400020062000100610001006000DE
:1016800001005F0002005D0001005C0001005B00E2
:1016900001005A00010059000100580001005700E4
:1016A00001005600010055000100540001005300E4
:1016B00000005300010052000100510001005000E1
:1016C00001004F0001004E0000004E0001004D00DF
:1016D00001004C0001004B0000004B0001004A00DB
:1016E00001004900010048000000480001004700D7
:1016F00001004600000046000100450000004500D2
:1017000001004400010043000000430001004200CA
:1017100000004200010041000000410001004000C3
:1017200001003F0000003F0001003E0000003E00BD
:1017300001003D0000003D0001003C0000003C00B5
:1017400000003C0001003B0000003B0001003A00AB
:1017500000003A00010039000000390001003800A3
:10176000000038000000380001003700000037009A
:101770000100360000003600000036000100350090
:101780000000350000003500010034000000340086
:10179000000034000100330000003300000033007B
:1017A0000100320000003200000032000100310070
:1017B0000000310000003100010030000000300066
:1017C0000000300001002F0000002F0000002F005B
:1017D00000002F0001002E0000002E0000002E004F
:1017E00001002D0000002D0000002D0000002D0044
:1017F00001002C0000002C0000002C0000002C0038
:1018000001002B0000002B0000002B0000002B002B
:1018100001002A0000002A0000002A0000002A001F
:101820000100290000002900000029000000290013
:101830000000290001002800000028000000280006
:1018400000002800000028000100270000002700F9
:1018500000002700000027000000270001002600EC
:1018600000002600000026000000260000002600E0
:1018700001002500000025000000250000002500D3
:1018800000002500000025000100240000002400C5
:1018900000002400000024000000240001002300B8
:1018A00000002300000023000000230000002300AC
:1018B000000023000000230001002200000022009D
:1018C0000000220000002200000022000000220090
:1018D0000100210000002100000021000000210083
:1018E0000000210000002100000021000100200074
:1018F0000000200000002000000020000000200068
:1019000000002000000020000000200001001F0057
:1019100000001F0000001F0000001F0000001F004B
:1019200000001F0000001F0001001E0000001E003C
:1019300000001E0000001E000000546865726D610A
:101940006C2052756E6177617900454D42414C4C77
:10195000454D454E5420544845524D49515545003A
:1019600048656174696E67206661696C65640045ED
:10197000727265757220646520636861756666655C
:10198000004D494E54454D50207472696767657229
:101990006564004572723A2054454D502E204D49E1
:1019A0004E00626564002C2073797374656D20733A
:1019B000746F7070656421204865617465725F4959
:1019C000443A20004D415854454D50207472696787
:1019D0006765726564004572723A2054454D502E19
:1019E000204D41580023646566696E65202044459A
:1019F0004641554C545F4B64200023646566696E14
:101A000065202044454641554C545F4B69200023D6
:101A1000646566696E65202044454641554C545FB7
:101A20004B702000504944204175746F74756E6589
:101A30002066696E6973686564212050757420742E
:101A40006865206C617374204B702C204B69206199
:101A50006E64204B6420636F6E7374616E747320C8
:101A600066726F6D2062656C6F7720696E746F208F
:101A7000436F6E66696775726174696F6E2E680078
:101A8000504944204175746F74756E6520666169B4
:101A90006C6564212074696D656F757400504944EC
:101AA000204175746F74756E65206661696C65643C
:101AB000212054656D706572617475726520746F54
:101AC0006F206869676800204B643A2000204B69EA
:101AD0003A2000204B703A200020436C61737369F8
:101AE000632050494420002054753A2000204B7553
:101AF0003A2000206D61783A2000206D696E3A200E
:101B00000020643A200020626961733A20000001DD
:101B100035012001330140012C0160012501A001A4
:101B20001C01D001100110020A0140020401A002B0
:101B3000FC00E002F7000003F4003003F100E003D2
:101B4000E7009004DE00E004DB007005D40020060E
:101B5000CF00D006C9006007C5003008BF001009DB
:101B6000BA00000AB500100BAF00B00CA900E00DE0
:101B7000A40000109C00B011970080139100701514
:101B80008C0090178300D0197D00601C7700001F27
:101B9000710090216C0020246600B026610020298D
:101BA0005C00702B5700F02D510050304B008032FC
:101BB0004600C034400040363B00C0373600203974
:101BC0003100703A2A00703B2600703C2000F03C47
:101BD0001C00803E1400203F0A000040EFFE4361DD
:101BE0007274652072657469726565004361727410
:101BF0006520696E7365726565004D34323800206A
:101C0000003F000920005A00590058004D3630307E
:101C1000205041004368616E6765722066696C619F
:101C20006D656E7400466C757800466C757800566C
:101C30006974652E2076656E74696C617465757261
:101C400000566974652E2076656E74696C617465E2
:101C500075720042757365004275736500205669A0
:101C60007465737365002056697465737365004D00
:101C7000656E75207072696E636970616C00446591
:101C8000706C2E2058004465706C2E2059004465FD
:101C9000706C2E205A004578747275646572004528
:101CA00078747275646572004465706C2E205A00F9
:101CB0004465706C2E2059004465706C2E205800CD
:101CC0004465706C6163657220756E206178650093
:101CD0004465706C2E20302E316D6D004465706C43
:101CE0002E20316D6D004465706C2E2031306D6D8D
:101CF000005072657061726572002020205061741E
:101D000069656E74657A2E2E2E004F4B00202020C0
:101D10005361757665676172646573002020205099
:101D20006172616D6574726573004730205A3000CE
:101D3000473238004D383400707569732076616C15
:101D40006964657A004465706C2E205A00656E20C7
:101D50007265676C616E74206C276F66667365745C
:101D60000050696E63657A206C6120666575696CE8
:101D70006C65004F4B0070756973206170707579E8
:101D8000657A20737572204F4B00656E2064657311
:101D9000736F7573206465206C61206275736500D4
:101DA000476C697373657A20756E65206665756921
:101DB0006C6C6500473238004D3834004730205A8B
:101DC0003000473238004D383400446563616C613F
:101DD0006765205A00446563616C616765205A003D
:101DE0005265696E697469616C69736572005072DD
:101DF000657061726572004D3834004172726574AD
:101E00006572206D6F7465757273005265676C65DD
:101E10007220646563616C2E206F726967696E65FC
:101E2000005072656368617566666167652041424E
:101E300053004732380A4732390047323900526579
:101E4000676C2E204E69762E20506C61746561752A
:101E500000473238004F726967696E65206175749A
:101E60006F2E004D656E75207072696E63697061CA
:101E70006C004F7074696F6E73206176616E63657C
:101E80006573004D383000416C6C756D6572206172
:101E90006C696D2E004D383100457465696E647251
:101EA0006520616C696D2E00526566726F696469A8
:101EB00072005265676C2E205A204F6666736574F7
:101EC0000050726563686175666661676520504C95
:101ED00041004465706C6163657220756E206178A5
:101EE00065004D656E75207072696E636970616C16
:101EF0000053617576657220636F6E666967004294
:101F0000757365004275736500566974652E207699
:101F1000656E74696C617465757200566974652EBE
:101F20002076656E74696C61746575720054656DB8
:101F300070657261747572650053617576657220A3
:101F4000636F6E66696700427573650042757365FD
:101F500000566974652E2076656E74696C617465CF
:101F6000757200566974652E2076656E74696C61B1
:101F7000746575720054656D706572617475726513
:101F8000005265676C2E2070726563682E20414296
:101F900053005265676C2E2070726563682E205066
:101FA0004C41005049442D43005049442D430050BA
:101FB00049442D44005049442D44005049442D4982
:101FC000005049442D49005049442D500050494487
:101FD0002D50000820466163746575720008204624
:101FE0006163746575720008204D61780008204DAA
:101FF00061780008204D696E0008204D696E00541C
:10200000656D702E204175746F2E0041727265747B
:10201000004D61726368652000566974652E2076F4
:10202000656E74696C617465757200566974652EAD
:102030002076656E74696C617465757200427573A3
:1020400065004275736500436F6E74726F6C6572E4
:1020500000457061732F6D6D00457061732F6D6D5C
:10206000005A7061732F6D6D005A7061732F6D6D22
:1020700000597061732F6D6D00597061732F6D6D14
:1020800000587061732F6D6D00587061732F6D6D06
:1020900000412D4465706C2E00412D4465706C2EFE
:1020A00000412D7265747261637400412D72657414
:1020B0007261637400416D6178204500416D617803
:1020C000204500416D6178205A00416D6178205AA9
:1020D00000416D6178205900416D617820590041BF
:1020E0006D6178205800416D617820580056646514
:1020F000706C206D696E00566465706C206D696E41
:1021000000566D696E00566D696E00566D617845BA
:1021100000566D61784500566D61785A00566D61C4
:10212000785A00566D61785900566D61785900569D
:102130006D61785800566D6178580056652D6A6556
:10214000726B0056652D6A65726B00567A2D6A6552
:10215000726B00567A2D6A65726B005678792D6A1B
:1021600065726B005678792D6A65726B0041636306
:10217000656C00416363656C00446563616C616715
:1021800065205A00446563616C616765205A0043AD
:102190006F6E74726F6C6572004469616D2E2046BB
:1021A000696C2E004469616D2E2046696C2E0045D5
:1021B00020656E206D6D33004172726574004D6153
:1021C000726368652000436F6E74726F6C65720095
:1021D00052657374617572657220646566617574A9
:1021E00073004C69726520636F6E666967005361A6
:1021F0007576657220636F6E6669670046696C610B
:102200006D656E74004D6F7576656D656E74005406
:10221000656D7065726174757265004D656E7520CF
:102220007072696E636970616C00022E2E004D65DC
:102230006E75207072696E636970616C00506173B5
:1022400020646520636172746500496D70722E2090
:1022500064657075697320534400417272657465DA
:102260007220696D70722E0052657072656E6472B4
:102270006520696D70722E00496E746572726F6DA3
:1022800070726520696D70722E00436F6E74726F8C
:102290006C6572005072657061726572005265679C
:1022A0006C6572005375727665696C6C65720000BE
:1022B000060900FE070192032120FFFF08FF07FF28
:1022C00000000006000001070706020080808080F1
:1022D000800080030202060105A0A0050707060092
:1022E000005050F850F850500507070600002078BD
:1022F000A07028F020050707060000C0C810204085
:1023000098180507070600006090A040A890680292
:102310000303060104C040800307070601002040B4
:102320008080804020030707060100804020202095
:10233000408005050506000120A870A820050505B8
:102340000600012020F820200203030602FFC040FF
:1023500080050101060003F8020202060200C0C067
:102360000505050600010810204080050707060046
:10237000007088888888887003070706010040C0BD
:1023800040404040E0050707060000708808708064
:1023900080F8050707060000F81020100808F0056F
:1023A000070706000010305090F8101005070706C8
:1023B0000000F880F0080888700507070600007024
:1023C0008080F0888870050707060000F808102054
:1023D0002020200507070600007088887088887014
:1023E0000507070600007088887808087002050550
:1023F000060200C0C000C0C00206060602FFC0C040
:1024000000C04080040707060000102040804020E4
:1024100010050303060002F800F804070706010090
:1024200080402010204080050707060000708808C3
:102430001020002005070706000070880868A8A87B
:1024400070050707060000708888F88888880507E7
:1024500007060000F08888F08888F0050707060066
:102460000070888080808870050707060000F0886B
:1024700088888888F0050707060000F88080F080CB
:1024800080F8050707060000F88080F0808080054E
:102490000707060000708880B8888870050707065F
:1024A0000000888888F8888888010707060200806D
:1024B000808080808080050707060000381010109B
:1024C0001090600507070600008890A0C0A09088C3
:1024D000050707060000808080808080F8050707D8
:1024E00006000088D8A888888888050707060000A5
:1024F0008888C8A89888880507070600007088881B
:1025000088888870050707060000F08888F08080BA
:102510008005070706000070888888A8906805076E
:1025200007060000F08888F0A090880507070600DD
:1025300000788080700808F0050707060000F82082
:10254000202020202005070706000088888888882A
:10255000887005070706000088888888885020054D
:1025600007070600008888888888A850050707069E
:1025700000008888502050888805070706000088DA
:10258000888850202020050707060000F808102042
:102590004080F8030707060100E08080808080E02B
:1025A0000505050600018040201008030707060105
:1025B00000E02020202020E0050303060004205036
:1025C00088050101060000F80202020602058040AB
:1025D00005050506000070087888780507070600DD
:1025E000008080B0C88888F005050506000070806E
:1025F00080887005070706000008086898888878B2
:102600000505050600007088F880700507070600BC
:10261000003048E0404040400506060600FF708854
:10262000887808700507070600008080B0C8888891
:1026300088010707060200800080808080800308F0
:10264000080601FF200020202020A04004070706E4
:102650000000808090A0C0A090030707060100C082
:102660004040404040E0050505060000D0A8A8A86D
:10267000A8050505060000B0C88888880505050678
:10268000000070888888700506060600FFF08888BC
:10269000F080800506060600FF788888780808051F
:1026A0000505060000B0C88080800505050600000D
:1026B00070807008F00407070600004040E04040CA
:1026C00040300505050600008888889868050505DE
:1026D00006000088888850200505050600008888C7
:1026E000A8A850050505060000885020508805065A
:1026F000060600FF88888878087005050506000032
:10270000F8102040F80307070601002040408040F1
:1027100040200107070602008080808080808003BF
:102720000707060100804040204040800502020665
:102730000002689000000006000000000006000093
:102740000000000600000000000600000000000677
:10275000000000000006000000000006000000006D
:102760000006000000000006000000000006000057
:102770000000000600000000000600000000000647
:10278000000000000006000000000006000000003D
:102790000006000000000006000000000006000027
:1027A0000000000600000000000600000000000617
:1027B000000000000006000000000006000000000D
:1027C00000060000000000060000000000060000F7
:1027D00000000006000000000006000000000006E7
:1027E00000000000000600000000000600000000DD
:1027F00000060000000000060000000000060000C7
:10280000010707060200800080808080800507079E
:102810000600002070A8A0A8702005070706000089
:10282000304040E04050A805050506000088705083
:102830007088050707060000885020F820F820015E
:102840000707060200808080008080800508080657
:10285000000030482050502090600301010601071D
:10286000A0050707060000F888B8B8B888F805077B
:1028700007060001700878887800F805050506004D
:10288000012850A05028050303060001F80808029B
:1028900002020602064080050707060000F888A825
:1028A0008898A8F8050101060006F804040406004B
:1028B00003609090600507070600002020F82020A4
:1028C00000F804050506000360902040F0030505AC
:1028D000060003E020E020E002020206020640803B
:1028E0000508080600FF8888888898E88080050722
:1028F0000706000078989878181818020202060255
:1029000002C0C00202020602FF4080030505060065
:102910000340C04040E00507070600017088888832
:102920007000F8050505060001A0502850A0050715
:10293000070600008890A858B80808050707060091
:10294000008890B848982038050808060000C04064
:10295000C048D838080805070706000020002040B6
:102960008088700508080600004020007088F888FC
:10297000880508080600001020007088F88888057F
:1029800008080600002050007088F88888050808AC
:102990000600006890007088F8888805080806001E
:1029A000005000708888F888880508080600002014
:1029B00050207088F888880507070600003860A056
:1029C000B8E0A0B80508080600FF7088808088700D
:1029D0002060050808060000402000F880F080F81C
:1029E000050808060000081000F880F080F80508C7
:1029F00008060000205000F880F080F80507070660
:102A000000005000F880F080F803080806010080FC
:102A10004000E0404040E00308080601002040007C
:102A2000E0404040E003080806010040A000E0400C
:102A30004040E0030707060100A000E0404040E0FE
:102A4000050707060000704848E848487005080870
:102A500006000068900088C8A89888050808060045
:102A600000402070888888887005080806000010DB
:102A700020708888888870050808060000205000AB
:102A800070888888700508080600006890007088C3
:102A900088887005080806000050007088888888BB
:102AA00070050505060001885020508805080806B5
:102AB00000FF1070A8A8A8A870400508080600002C
:102AC0004020888888888870050808060000102043
:102AD00088888888887005080806000020500088CB
:102AE0008888887005080806000050008888888853
:102AF000887005080806000010208850202020203B
:102B00000509090600FFC040704848704040E004D5
:102B100008080601FF609090A09090E080050808EA
:102B20000600004020007008788878050808060034
:102B3000001020007008788878050808060000203A
:102B40005000700878887805080806000068900032
:102B5000700878887805070706000050007008782C
:102B600088780508080600002050207008788878CA
:102B7000050606060000D02878A0A850050606061F
:102B800000FF708088702060050808060000402063
:102B9000007088F88070050808060000102000709A
:102BA00088F880700508080600002050007088F83A
:102BB000807005070706000050007088F8807003D9
:102BC000080806010080400040C04040E0030808BB
:102BD00006010020400040C04040E0030808060114
:102BE0000040A00040C04040E0030707060100A0ED
:102BF0000040C04040E0050707060000A040A010CC
:102C0000788870050808060000689000B0C88888B9
:102C10008805080806000040200070888888700534
:102C200008080600001020007088888870050808D1
:102C3000060000205000708888887005080806008B
:102C400000689000708888887005070706000050AB
:102C50000070888888700505050600012000F800CE
:102C6000200507070600FF1070A8A8A870400508F7
:102C70000806000040200088888898680508080633
:102C80000000102000888888986805080806000061
:102C900020500088888898680507070600005000C3
:102CA00088888898680509090600FF102000888830
:102CB00088F808700407070601FFC04060506040B4
:102CC000E00508080600FF50008888887808700032
:102CD000060900FE000000000001090008FE0000D7
:102CE00005080806000040F0C88888987810050894
:102CF00008060000C0F88888888888F80505050659
:102D000000012030F830200508080600002070F887
:102D100020202020E00509090600FF2070A8A8B89F
:102D2000888870200509090600FFE080C0B0A82847
:102D30003028280509090600FFF8A88888888888AF
:102D4000A8F8050A0A0600FE205050505088A8A88E
:102D5000887003030306000340A040000000000049
:102D6000000000000000007FFFE000000000000005
:102D70000000000000007000E00000000000000003
:102D8000000000000061F86000000000000000008A
:102D90000000000041F820000000000000000000DA
:102DA00000000040F02000000000000000000000D3
:102DB0000000406020000000000000000000000053
:102DC000005801A07F8000000000000000410400C6
:102DD0005C63A0FFC0000000000000002082005ED5
:102DE000F7A0FFC0000000000000002082005EF796
:102DF000A0FFC0000000000000004104005C63A0D0
:102E00007F80000000000000008208005801A07FC1
:102E10008000000000000001041000406020FFC09E
:102E20000000000000000104100040F020FFC0007E
:102E300000000000000082080041F820FFC00000F0
:102E4000000000000041040061F8603F0000000045
:102E5000000000000000007000E01E000000000004
:102E6000000001FFFF807FFFE00C00000000000079
:102E70000001FFFF800000000000000000000000D3
:102E8000000000007FFFE0000000000000000000E4
:102E90000000007000E000000000000000000000E2
:102EA0000000630C60000000000000000000000053
:102EB00000470E200000000000000000000000009D
:102EC0004F0F200000000000000000000000005F25
:102ED0000FA00000000000000000000000005E07DE
:102EE000A07F80000000000000004104004060203E
:102EF000FFC00000000000000020820040F020FF22
:102F0000C00000000000000020820040F020FFC050
:102F1000000000000000004104004060207F8000AD
:102F20000000000000008208005E07A07F80000013
:102F300000000000010410005F0FA0FFC0000000AF
:102F4000000000010410004F0F20FFC0000000002F
:102F5000000000820800470E20FFC00000000000B3
:102F60000000410400630C603F000000000000000E
:102F7000000000007000E01E0000000000000001E2
:102F8000FFFF807FFFE00C0000000000000001FF59
:102F9000FF80000000FF8007F800FE000FC01C004B
:102FA000700780FFF00FF803FF807FF01E00F0072E
:102FB00080FFF80FFC0FFF80FFFC1F01F00FC0E047
:102FC0003C1FFC0F0001E01E1F03F00FC0E01E1F9E
:102FD000FE1E0001C00E1F87F01CE0E00E3FFE1C2D
:102FE0000001C00E1FCF701CE0E00E3FFF3C00034D
:102FF00080071DEE703870E00E7FFF380FF38007FA
:103000001CFE703870E00E7F7FB80FF380071C7CC9
:10301000707838E00EFF3FBC007380071C3870707A
:1030200038E00EFE3FDC0071C00E1C1070701CE01A
:103030001DFE3FDE00E1E01E1C0070E01CE07DFC98
:103040001FEF81E0F03C1C0070E01EFFFBFC1FE75F
:10305000FFC07FF81C0071CFFEFFE3FC0FE3FF8091
:103060003FF01C0071CFFFFC03F80FF07C000780DD
:103070001C00718FFF0007F807F00000000000003F
:103080000000000007F007F800000000000000004A
:1030900000000FF003F80000FFFFFFFFFFFFFF003D
:1030A0000FE003FC0013800000000003FF001FE09E
:1030B00001FC0006000000000001FF000FC001FE3F
:1030C0000014000000000000FF000FC000FE00948C
:1030D000000000000C007F00078000FF01E41E7864
:1030E00000000CC03F000380007F00043FFC000094
:1030F0000CC01F000300007F80F473CE08030C0196
:103100008F00C100003F815461863E0FCCC7E700AD
:10311000E000003FC05461867F1FCCCFF301E00088
:10312000001FC0246186E39CECCE7100F000001FFC
:10313000E0846186C1986CCC31007800000FE154C6
:103140006186C1980CCC31007C00000FF15461867F
:10315000C1980CCC3100783FFFFFF0F46186E19814
:103160000CCC3100787FFFFFFA0461867DF80EFCFD
:103170003100F07FFFFFFA8461861DF806FC330002
:10318000F0FFFFFFFDF60000000000000201E0FF7D
:10319000FFFFFC030000000000000E01E0FFFFFF46
:1031A000FE01FFFFFFFFFFFFF800000A0B02090C02
:1031B0000D0E0807030401000000000000000000DD
:1031C00000000000000000000000000000000000FF
:1031D00000000000001211100000000000000000BC
:1031E00000000000000000000000000000000001DE
:1031F0000210202008081020401020408002010208
:1032000001080402010102040810204080804020CF
:10321000100804020180040201804020100804020A
:103220000108040201010204081020408001020488
:103230000810204080050505050705080808080254
:103240000202020A0A08080404040401010101013F
:103250000101010303030303030303040707070C2E
:103260000C0C0C0C0C0C0C020202020606060606E4
:103270000606060B0B0B0B0B0B0B0B0000200023A1
:1032800000260029002C002F00320000010000035E
:10329000010601090100002200250028002B002E54
:1032A000003100340002010000050108010B01009B
:1032B000002100240027002A002D003000330001E7
:1032C000010000040107010A014E414E494E4954D4
:1032D00059494E46CDCCCC3D0AD7233C17B7D138FF
:1032E00077CC2B329595E6241FB14F0A0000204180
:1032F0000000C84200401C4620BCBE4CCA1B0E5AEF
:10330000AEC59D7405581AF00D5811241FBECFEF9D
:10331000D1E2DEBFCDBF00E00CBF14E0A0E0B2E020
:10332000E6E8F2E102E00BBF02C007900D92A43D77
:10333000B107D9F726E1A4EDB4E001C01D92A5358F
:10334000B207E1F713E3C8E0D3E300E006C0229739
:103350000109FE010BBF0E941DFEC430D10780E0B1
:103360000807A9F70E94E6F40D9431090C940000B7
:103370001F920F920FB60F9211240BB60F922F933C
:103380003F938F939F93EF93FF932091C6009FB736
:10339000F894E091550581E08E0F8F7730915605B6
:1033A000831731F0F0E0EB52FB4F208380935505FB
:1033B0009FBFFF91EF919F918F913F912F910F9020
:1033C0000BBE0F900FBE0F901F9018959A01AB0186
:1033D000211581EE38074105510549F182E08093BE
:1033E000C00060E079E08DE390E00E94D6FD2150BE
:1033F000310941095109CA01B90122E030E040E038
:1034000050E00E94D6FD3093C5002093C400809107
:10341000C10080618093C1008091C1008860809369
:10342000C1008091C10080688093C100089510920E
:10343000C00020E130E0E7CF3FB7F8942091560577
:1034400080915505821759F0E22FF0E0EB52FB4FC7
:10345000808190E02F5F2F772093560502C08FEF79
:103460009FEF3FBF08958FB7F894909156059093C2
:1034700055058FBF08954F925F926F927F928F9202
:103480009F92AF92BF92CF92DF92EF92FF920F93F3
:103490001F93CF93DF93CDB7DEB7A0970FB6F89405
:1034A000DEBF0FBECDBF5C01411551056105710541
:1034B000E9F420E030E040E350E060E070E0A09606
:1034C0000FB6F894DEBF0FBECDBFDF91CF911F9135
:1034D0000F91FF90EF90DF90CF90BF90AF909F90B3
:1034E0008F907F906F905F904F905BC08E010F5FC9
:1034F0001F4FC12CD12C76014801422E512C612C3A
:10350000712C8FEFC81AD80AE80AF80ACB01BA0161
:10351000A30192010E94B4FDCA01F80161938F01D9
:10352000A901BC01411551056105710551F7F1E093
:10353000CF1AD108E108F108F401EC0DFD1D8081DE
:103540008A3010F440E301C047E3480F552747FD98
:103550005095652F752F20E030E0C50122D081E025
:10356000C81AD108E108F108EFEFCE16DE06EE0624
:10357000FE0611F7A0960FB6F894DEBF0FBECDBFC2
:10358000DF91CF911F910F91FF90EF90DF90CF903F
:10359000BF90AF909F908F907F906F905F904F9073
:1035A00008952115310539F48091C00085FFFCCFC5
:1035B0004093C60008952A30310509F41CC05BCF42
:1035C000CF93DF93EC0120E030E04DE050E060E08D
:1035D00070E0E7DF20E030E04AE050E060E070E0DB
:1035E000CE01DF91CF91DDCF9A01AB01662757FD68
:1035F0006095762FD6CFCF92DF92EF92FF92CF9346
:10360000DF93EC016A017B0177FF0FC020E030E01F
:103610004DE250E060E070E0C4DFF094E094D094BC
:10362000C094C11CD11CE11CF11C2AE0B701A60109
:10363000CE01DF91CF91FF90EF90DF90CF901BCF25
:103640002115310539F48091C00085FFFCCF4093EE
:10365000C600089510CF9A01462F50E060E070E058
:10366000EFCFCF93DF93EC019A01AB0160E070E004
:10367000E7DFCE01DF91CF91A3CF8F929F92AF92E0
:10368000BF92CF92DF92EF92FF921F93CF93DF937F
:10369000EC016A017B01122F20E030E0A901C70193
:1036A000B6010E940FFF87FF0CC020E030E04DE222
:1036B00050E060E070E0CE0174DFF7FAF094F7F8C4
:1036C000F094B12C60E070E080E09FE3B11641F02F
:1036D00020E030E040E251E40E9416FFB394F6CFC0
:1036E0009B01AC01C701B6010E9436FE6B017C0153
:1036F0000E9483FF4B015C010E94AFFF9B01AC0164
:10370000C701B6010E9435FE6B017C012AE0B501BC
:10371000A401CE01B0DE112341F020E030E04EE202
:1037200050E060E070E0CE013CDF112319F120E0B1
:1037300030E040E251E4C701B6010F94E4016B01AF
:103740007C010E947EFF4B01AA2497FCA094BA2C16
:10375000B501A401CE014FDFC501B4010E94B1FF44
:103760009B01AC01C701B6010E9435FE6B017C01D3
:103770001150DBCFDF91CF911F91FF90EF90DF9041
:10378000CF90BF90AF909F908F90089576CFFC011F
:1037900065917591859194910895CF92DF92EF9202
:1037A000FF920F931F93CF93DF93EC01CC0FDD1F9C
:1037B000CC0FDD1FFE01E251FA4FDE01A650BA4FD9
:1037C0002D913D914D915C916081718182819381B8
:1037D0000E9436FE6B017C01CE018852944FD7DFE8
:1037E0008E010B5D1D4FA70196010E9436FEF80168
:1037F0006083718382839383CE018453944FC7DFA8
:10380000C75EDD4FA70196010E9436FE688379836B
:103810008A839B83DF91CF911F910F91FF90EF904F
:10382000DF90CF90089580910C12811103C081E048
:1038300080930C12089560E082E698E00E9438CEF2
:10384000E4EEFBE08491882341F09091C00095FF65
:10385000FCCF8093C6003196F5CFE0E5F8E0849187
:10386000882341F09091C00095FFFCCF8093C60063
:103870003196F5CF8091C00085FFFCCF8AE0809320
:10388000C600089580910C12811110920C120895B7
:103890000E943DF56093DF057093E0058093E1059C
:1038A0009093E205089580913D0290913E02A0918F
:1038B0003F02B09140028093C5079093C607A09342
:1038C000C707B093C80780913B0290913C02909348
:1038D00008068093070684E690E090933C0280936C
:1038E0003B02D6DF81E00C9459A10E9461A1809136
:1038F000C5079091C607A091C707B091C8078093EC
:103900003D0290933E02A0933F02B093400280910B
:1039100007069091080690933C0280933B02B8CF33
:10392000FC012491222341F03091C00035FFFCCFEF
:103930002093C6000196F4CF4AE050E084ED94E075
:1039400053CEFC012491222341F03091C00035FF79
:10395000FCCF2093C6000196F4CF22E030E084ED46
:1039600094E014CFFC012491222341F03091C00057
:1039700035FFFCCF2093C6000196F4CF2AE030E05B
:1039800084ED94E05DCE20918F0730919007F9018E
:10399000EE53FA4F8083C901019664E070E00E9403
:1039A000A1FD9093900780938F0780918D07909150
:1039B0008E07019690938E0780938D070895CF937D
:1039C000FC01C62F80818B33D9F020918D07309177
:1039D0008E0724303105A4F440918F075091900751
:1039E00080E6849F9001859F300D1124BF01C9019D
:1039F000835F994F0F9432068C2FC5DF81E001C0A1
:103A000080E0CF910895CF93DF93D82FC92FD7DFD0
:103A1000882309F43CC0E4EEFBE08491882341F064
:103A20009091C00095FFFCCF8093C6003196F5CFF2
:103A3000E8E9FBE08491882341F09091C00095FF74
:103A4000FCCF8093C6003196F5CFED2FFC2F8191EE
:103A5000882339F09091C00095FFFCCF8093C60079
:103A6000F6CFE6E9FBE08491882341F09091C00015
:103A700095FFFCCF8093C6003196F5CF8091C000B2
:103A800085FFFCCF8AE08093C60081E001C080E022
:103A9000DF91CF910895DF92EF92FF920F931F93E2
:103AA000CF93DF93CDB7DEB76E970FB6F894DEBF36
:103AB0000FBECDBF6091E3057091E40561157105FE
:103AC00059F14DE150E08E010F5F1F4FC8010F9477
:103AD000C1051E8EF8017F01E01AF10AD190DD20A8
:103AE00019F08AE0D812F7CFF801EE0DFF1D108211
:103AF00060E0C80188DF882379F0DD20B1F08FEF26
:103B0000E81AF80A8091E3059091E4058E0D9F1D57
:103B10009093E4058093E30581E02091E3053091E3
:103B2000E405232B39F480E005C01092E4051092DF
:103B3000E305F2CF6E960FB6F894DEBF0FBECDBF91
:103B4000DF91CF911F910F91FF90EF90DF9008953B
:103B50009093E4058093E3059ECF9898A09A0895EA
:103B6000269A2E980895F9DFFBDF40E950ED63E0D7
:103B700070E084ED94E02ADCE0E9FBE084918823A6
:103B800041F09091C00095FFFCCF8093C600319624
:103B9000F5CF8091C00085FFFCCF8AE08093C600FE
:103BA000E4EEFBE08491882341F09091C00095FF02
:103BB000FCCF8093C6003196F5CF84B780FF14C048
:103BC000E8E8FBE09491992341F02091C00025FFA3
:103BD000FCCF9093C6003196F5CF9091C00095FF31
:103BE000FCCF9AE09093C60081FF14C0E8E7FBE0A9
:103BF0009491992341F02091C00025FFFCCF909330
:103C0000C6003196F5CF9091C00095FFFCCF9AE0A9
:103C10009093C60082FF14C0E7E6FBE094919923DD
:103C200041F02091C00025FFFCCF9093C600319653
:103C3000F5CF9091C00095FFFCCF9AE09093C6001D
:103C400083FF14C0E7E5FBE09491992341F02091B4
:103C5000C00025FFFCCF9093C6003196F5CF909120
:103C6000C00095FFFCCF9AE09093C60085FF14C07A
:103C7000E7E4FBE08491882341F09091C00095FF38
:103C8000FCCF8093C6003196F5CF8091C00085FFB0
:103C9000FCCF8AE08093C60014BEE0E4FBE0849190
:103CA000882341F09091C00095FFFCCF8093C6001F
:103CB0003196F5CFE5E3FBE08491882341F09091C4
:103CC000C00095FFFCCF8093C6003196F5CF809160
:103CD000C00085FFFCCF8AE08093C600E4EEFBE0E5
:103CE0008491882341F09091C00095FFFCCF809390
:103CF000C6003196F5CFE5E2FBE08491882341F0E0
:103D00009091C00095FFFCCF8093C6003196F5CF0F
:103D1000E4E1FBE08491882341F09091C00095FF9D
:103D2000FCCF8093C6003196F5CFE8E0FBE08491AC
:103D3000882341F09091C00095FFFCCF8093C6008E
:103D40003196F5CFEEEFFAE08491882341F090911F
:103D5000C00095FFFCCF8093C6003196F5CF8091CF
:103D6000C00085FFFCCF8AE08093C600E3EFFAE055
:103D70008491882341F09091C00095FFFCCF8093FF
:103D8000C6003196F5CFE7EEFAE08491882341F042
:103D90009091C00095FFFCCF8093C6003196F5CF7F
:103DA0008091C00085FFFCCF8AE08093C600E4EEDE
:103DB000FBE08491882341F09091C00095FFFCCFF7
:103DC0008093C6003196F5CFE8EDFAE08491882320
:103DD00041F09091C00095FFFCCF8093C6003196D2
:103DE000F5CF0E9406634AE050E0BC0184ED94E008
:103DF000FBDBE1ECFAE08491882341F09091C00074
:103E000095FFFCCF8093C6003196F5CF4AE050E095
:103E100060ED74E084ED94E0E7DB8091C00085FF05
:103E2000FCCF8AE08093C60081E08093C205809336
:103E3000C3058093C4058093C5050E94D67B0E946C
:103E4000B2CE0E943FAE0E9487810E9463F40E941E
:103E50005BA9809101018061809301019FB7F89473
:103E6000809102018F7E809302019FBF08952F925F
:103E70003F924F925F926F927F928F929F92AF92FA
:103E8000BF92CF92DF92EF92FF920F931F93CF9347
:103E9000DF93CDB7DEB76E970FB6F894DEBF0FBED7
:103EA000CDBF8091CC07882309F42BC180918D0769
:103EB00090918E07892B11F410925A0577247394F0
:103EC0004091480A5091490A60914A0A70914B0A00
:103ED0008091440A9091450AA091460AB091470A00
:103EE000481759076A077B0708F4712CA12CB12CDD
:103EF000662463949AE0592E2CE3C22ED12CE12C37
:103F0000F12C34E5232E39E0332E8E010F5F1F4F45
:103F100040E6442E80918D0790918E0704970CF017
:103F2000F0C07110EEC080915A058111EAC08091F5
:103F30009F099091A009A091A109B091A209809335
:103F4000480A9093490AA0934A0AB0934B0A87E91A
:103F500099E00E94D45C9C01E82F772473948091AF
:103F6000480A9091490AA0914A0AB0914B0A40919F
:103F7000440A5091450A6091460A7091470A841795
:103F80009507A607B70790F4712C2F3F8FEF3807DE
:103F900069F02A3079F02D3069F0233219F02A3394
:103FA00009F08DC080915905811189C0E33211F467
:103FB00060925A0510925905A114B10481F08091C4
:103FC0008F0790919007489EF001499EF00D1124B3
:103FD000EA0DFB1DE35FF94F108280E0D4DC77200F
:103FE00009F48CC0E9E6F9E08491882341F09091CE
:103FF000C00095FFFCCF8093C6003196F5CF80912D
:10400000C00085FFFCCF5092C6008BEC95E00E946B
:1040100094AA8BEC95E00E94BAAA4C01A12CB12C79
:10402000C501B401A70196010E94B4FDCA01B901FE
:10403000A70196010E94B4FD7F936F93C501B4015F
:1040400020E13EE040E050E00E94B4FD3F932F931A
:104050003F922F921F930F930F9456060FB6F8942A
:10406000DEBF0FBECDBFE4EEFBE08491882341F0BC
:104070009091C00095FFFCCF8093C6003196F5CF9C
:10408000F8018191882339F09091C00095FFFCCF11
:104090008093C600F6CF8091C00085FFFCCF509280
:1040A000C60061E0C8010E941DCC8AEC97E00E9426
:1040B000447361E08AEC97E00E94CB6D1FC09FE5DE
:1040C000A916B10408F026CFEB3311F4609259051C
:1040D0008091590581111ECF80918F079091900793
:1040E000489EF001499EF00D1124EA0DFB1DE35F8F
:1040F000F94F2083C50101965C010CCFA12CB12C96
:1041000009CF6E960FB6F894DEBF0FBECDBFDF911C
:10411000CF911F910F91FF90EF90DF90CF90BF90C4
:10412000AF909F908F907F906F905F904F903F9057
:104130002F9008950F931F93CF93DF930091E50580
:104140001091E60565E470E0C8010F941E06EC01CD
:10415000C8010196209761F0188260E070E00F942A
:10416000000325E42883DF91CF911F910F910895DB
:1041700060E070E0DF91CF911F910F910D940003EB
:104180008091E5059091E6054AE050E060E070E03E
:1041900001960D9468048091E5059091E6054AE04A
:1041A00050E060E070E001960F946804CB01089540
:1041B000682F772767FD70958091930790919407FA
:1041C0000F941E069093E6058093E50521E0892B68
:1041D00009F420E0822F08950F931F93CF93DF936C
:1041E0008C0184E5E5DF882361F1D5DFEC01181649
:1041F00019064CF5E4EEFBE08491882341F09091A0
:10420000C00095FFFCCF8093C6003196F5CF80911A
:10421000C00085FFFCCF8DE48093C6004AE050E0EB
:10422000B80184ED94E0E0D9BE0181E499E078DB47
:104230008091C00085FFFCCF8AE08093C60081E0BA
:1042400005C08091EB058093CA0580E0DF91CF9196
:104250001F910F9108950F931F93CF93DF9300D079
:1042600000D0CDB7DEB726E0E4EEF2E0DE01119635
:1042700001900D922A95E1F7FC01EE0FFF1F21E05E
:1042800030E02C0F3D1FE20FF31F60817181161685
:1042900017061CF1E4EEFBE02491222341F030915B
:1042A000C00035FFFCCF2093C6003196F5CFE4E780
:1042B000F8E02491222341F03091C00035FFFCCF7B
:1042C0002093C6003196F5CF2091C00025FFFCCF8A
:1042D0002AE02093C6006AE070E08C01000F111FF5
:1042E000000F111F0A5E1B4F882777FD8095982FBE
:1042F0000E94B1FF9B01AC01F80160817181828154
:1043000093810E9416FF60933D0270933E0280935A
:104310003F029093400226960FB6F894DEBF0FBE80
:10432000CDBFDF91CF911F910F9108958F929F92F2
:10433000AF92BF92CF92DF92EF92FF920F931F93B3
:1043400020E030E040E752E460913D0270913E028F
:1043500080913F02909140020E9416FF4B015C0148
:10436000E090BD07F090BE070091BF071091C00715
:104370002091B9073091BA074091BB075091BC0713
:104380006091B5077091B6078091B7079091B80713
:10439000E091EB05EF93E1ECCE2EE7E0DE2E0E94FC
:1043A00032830F901F910F91FF90EF90DF90CF908D
:1043B000BF90AF909F908F9008954F925F926F92B1
:1043C0007F928F929F92AF92BF92EF92FF920F9344
:1043D0001F93CF93DF93CDB7DEB728970FB6F8942E
:1043E000DEBF0FBECDBF4B015C0180913D029091BD
:1043F0003E02A0913F02B091400289839A83AB8331
:10440000BC83412C512CF0E76F2EF3E47F2E4092B9
:104410003D0250923E0260923F0270924002E09252
:10442000BD07F092BE070093BF071093C0072D830E
:104430003E834F8358877ADF0E94DEA96091130282
:1044400070911402882777FD8095982F0E94B1FF04
:1044500060933D0270933E0280933F02909340022E
:104460008092B5079092B607A092B707B092B807AE
:104470002D813E814F8158852093B9073093BA072B
:104480004093BB075093BC0751DF0E94DEA989818E
:104490009A81AB81BC8180933D0290933E02A093B0
:1044A0003F02B093400228960FB6F894DEBF0FBECD
:1044B000CDBFDF91CF911F910F91FF90EF90BF90F3
:1044C000AF909F908F907F906F905F904F900895E6
:1044D0004F925F926F927F928F929F92AF92BF9214
:1044E000CF92DF92EF92FF920F931F932B013C012B
:1044F00020E030E040E752E460913D0270913E02DE
:1045000080913F02909140020E9416FF4B015C0196
:104510002091B9073091BA074091BB075091BC0771
:104520006091B5077091B6078091B7079091B80771
:10453000E091EB05EF93A1ECCA2EA7E0DA2E830100
:1045400072010E9432830F901F910F91FF90EF90A4
:10455000DF90CF90BF90AF909F908F907F906F90A3
:104560005F904F9008958F929F92AF92BF92CF929B
:10457000DF92EF92FF920F931F9320E030E040E72D
:1045800052E40E9416FF4B015C01E090AD07F090F1
:10459000AE070091AF071091B0072091A9073091A5
:1045A000AA074091AB075091AC076091A5077091A5
:1045B000A6078091A7079091A807E091EB05EF93DC
:1045C000B1EBCB2EB7E0DB2E0E9432830F901F9110
:1045D0000F91FF90EF90DF90CF90BF90AF909F90A2
:1045E0008F90089560913D0270913E0280913F024C
:1045F00090914002B8CFCF92DF92EF92FF920F934B
:104600001F93E090BD07F090BE070091BF07109187
:10461000C0072091B9073091BA074091BB0750916C
:10462000BC076091B5077091B6078091B70790916C
:10463000B807E1ECCE2EE7E0DE2E0E94838E1F91BC
:104640000F91FF90EF90DF90CF9008952F923F92BF
:104650004F925F926F927F928F929F92AF92BF9292
:10466000CF92DF92EF92FF920F931F93CF93DF933E
:104670008C01FC01EB55F44FF4902F2C332427FCD4
:104680003094EC01CC0FDD1FCC0FDD1FDE01AB54ED
:10469000B84F1D921D921D921C921397ACDF0230F1
:1046A000110511F437FCBFD8CE018C54944F6FD84C
:1046B0004B015C016F2D772767FD7095872F972F32
:1046C0000E94B1FF2B013C01CE018B55984F7C011C
:1046D00020E030E040EC5FE3C501B4010F94E40159
:1046E000A30192010F94E401F70160837183828337
:1046F0009383FE01EA5EFB4F80819181A281B381A9
:1047000080933D0290933E02A0933F02B0934002FB
:1047100069DF0E94DEA9CE018B54984F6C01FC0129
:10472000108211821282138266DF80E00E9459A1FA
:10473000CE018855944F5C012AD89058A30192016C
:104740000F94E401F70160837183828393834ADFCE
:104750000E94DEA981E00E9459A1C8017CDDC5014B
:1047600016D89B01AC010E9436FEA30192010F9462
:10477000E401F701608371838283938333DF0E94B6
:10478000DEA9FE01E650FA4F1082118212821382D6
:10479000CE018054944F0E94C71BFE01E251FA4F94
:1047A00020813181428153810E9436FEF60160836F
:1047B000718382839383C8010E94CD1B023011054F
:1047C000D1F42091C6053091C7054091C80550919C
:1047D000C9056091BD077091BE078091BF07909198
:1047E000C0070E9435FE6093BD077093BE0780939B
:1047F000BF079093C007FFDEFE01EB55F84FCB5487
:10480000D84F88819981AA81BB8180839183A283BB
:10481000B38310923D0210923E0210923F0210921A
:1048200040020E9466A1F801EE55F84F81E08083B6
:10483000F801E156F84F808302301105A9F437FEE4
:1048400013C0DF91CF911F910F91FF90EF90DF90F8
:10485000CF90BF90AF909F908F907F906F905F9020
:104860004F903F902F900EC8DF91CF911F910F91E5
:10487000FF90EF90DF90CF90BF90AF909F908F9080
:104880007F906F905F904F903F902F9008958F9200
:104890009F92AF92BF92CF92DF92EF92FF920F93CF
:1048A0001F930E94481C8EE492E00E9409F280E06F
:1048B00090E0A0E7B3E480933D0290933E02A09382
:1048C0003F02B093400260E070E087E593EC00DEC9
:1048D0000E94DEA982E090E00E9445AA4B015C01A3
:1048E0002091B9073091BA074091BB075091BC079E
:1048F0006091B5077091B6078091B7079091B8079E
:10490000A1ECCA2EA7E0DA2E850174010E94838EE5
:1049100080EB9BE00E94C71B9B01AC01C501B40169
:104920000E9436FE4B015C01D3DD0E94DEA90E948D
:1049300066A182E090E08FDC80EB9BE00E94C71BC9
:104940009B01AC010E9436FE9B01AC01C501B40184
:104950000E9435FEBDDD0E94DEA90E9466A182E0B4
:1049600090E00E9445AA6093BD077093BE078093B4
:10497000BF079093C0071F910F91FF90EF90DF90BA
:10498000CF90BF90AF909F908F9035CE80E1E5EAB9
:10499000F7E0A5EBB7E001900D928A95E1F7089555
:1049A000EF92FF920F931F93E090BD07F090BE0728
:1049B0000091BF071091C00700DD1F910F91FF907C
:1049C000EF900895EF92FF920F931F937B018C015C
:1049D0002091B9073091BA074091BB075091BC07AD
:1049E0006091B5077091B6078091B7079091B807AD
:1049F000E4DC1F910F91FF90EF9008954F925F922A
:104A00006F927F928F929F92AF92BF92CF92DF92DE
:104A1000EF92FF920F931F93CF93DF9300D01F92DB
:104A2000CDB7DEB769837A838B839C8329013A01F2
:104A3000C801B7018501C6DF20E030E048EA51E453
:104A4000C301B2010E9435FE9B01AC0169817A81EC
:104A50008B819C81A5DFC0FC0E94131C18DF809015
:104A6000BD079090BE07A090BF07B090C007C1FCE3
:104A70000E94421C033011050CF448C0E3E6F6E046
:104A80008491882341F09091C00095FFFCCF8093E2
:104A9000C6003196F5CF23E030E049815A816B8121
:104AA0007C8184ED94E00E94C61BEEE5F6E08491E3
:104AB000882341F09091C00095FFFCCF8093C60001
:104AC0003196F5CF23E030E0B301A20184ED94E00C
:104AD0000E94C61BE9E5F6E08491882341F090919D
:104AE000C00095FFFCCF8093C6003196F5CF23E040
:104AF00030E0B501A40184ED94E00E94C61B8091D2
:104B0000C00085FFFCCF8AE08093C600C501B401D8
:104B10000F900F900F900F90DF91CF911F910F91F9
:104B2000FF90EF90DF90CF90BF90AF909F908F90CD
:104B30007F906F905F904F900895CF92DF92EF92A9
:104B4000FF920F931F93CF93DF93B2E1EB2EB4E06C
:104B5000FB2E05EA17E0C5EBD7E089E0C82E86E01A
:104B6000D82EF70181917F0123DB8823C9F0E2DA97
:104B7000F6012081211104C02091EA05222329F0A9
:104B8000288139814A815B8103C020E030E0A9019E
:104B90000E9436FEF801608371838283938309C08B
:104BA00088819981AA81BB81F80180839183A28346
:104BB000B3830C5F1F4F2496FFEFCF1ADF0A86E105
:104BC000E81684E0F80669F686E4F2DA882391F0C4
:104BD000B1DA6B017C0120E030E0A9010F941201F1
:104BE000181644F4C0923D02D0923E02E0923F0279
:104BF000F0924002DF91CF911F910F91FF90EF90C3
:104C0000DF90CF900895E4EEFBE08491882341F09B
:104C10009091C00095FFFCCF8093C6003196F5CFF0
:104C2000EEE2F9E08491882341F09091C00095FF75
:104C3000FCCF8093C6003196F5CFE0919507F091B7
:104C400096078191882339F09091C00095FFFCCFA1
:104C50008093C600F6CFEBE2F9E08491882341F01F
:104C60009091C00095FFFCCF8093C6003196F5CFA0
:104C70000895CF92DF92EF92FF920E943DF56B0173
:104C80007C0180910E02882309F483C02091C00525
:104C90003091C1052115310509F47BC08091BC0517
:104CA0009091BD05A091BE05B091BF05B701A601C9
:104CB000481B590B6A0B7B0B77FD7EC023303105F7
:104CC00079F03CF4213031050CF463C0E4EEFBE0F4
:104CD00011C02430310509F05CC0E4EEFBE042C0B5
:104CE000E4EEFBE023C09091C00095FFFCCF8093E1
:104CF000C600319684918111F6CFEAE1F9E0849102
:104D0000882341F09091C00095FFFCCF8093C600AE
:104D10003196F5CF8091C00085FFFCCF37C09091D0
:104D2000C00095FFFCCF8093C6003196849181111D
:104D3000F6CFE4E0F9E08491882341F09091C0003F
:104D400095FFFCCF8093C6003196F5CF8091C000CF
:104D500085FFFCCF1BC09091C00095FFFCCF8093D6
:104D6000C600319684918111F6CFEDEEF8E0849182
:104D7000882341F09091C00095FFFCCF8093C6003E
:104D80003196F5CF8091C00085FFFCCF8AE08093FB
:104D9000C60020910E0230E0A8EEB3E00E94F8FDBC
:104DA0006C0D7D1D8E1D9F1D6093BC057093BD0510
:104DB0008093BE059093BF05FF90EF90DF90CF905A
:104DC0000895E5EEF8E02491222379F03091C000B7
:104DD00035FFFCCF2093C6003196F5CF3091C0004F
:104DE00035FFFCCF2093C6000196FC0124912111D0
:104DF000F5CFEDECF8E08491882341F09091C0006C
:104E000095FFFCCF8093C6003196F5CF8091C0000E
:104E100085FFFCCF8AE08093C60008958F929F9211
:104E2000AF92BF92CF92DF92EF92FF920F931F93B8
:104E3000CF93DF9300D01F92CDB7DEB785E4B8D90A
:104E4000B82E811102C00E94DEA992E1C92E94E021
:104E5000D92E2AEFE22E25E0F22E05EB17E0812C69
:104E6000912CA12CF60181916F01A2D9882361F1C7
:104E7000F801208131814281538129833A834B8318
:104E80005C8358D9F801608371838283938329817D
:104E90003A814B815C81F3E08F169104A9F00E9466
:104EA00035FE9B01AC01F7016081718182819381A4
:104EB0000E9436FEF7016083718382839383C4016D
:104EC0000E94CD1BAA24A394FFEF8F1A9F0A84E0AF
:104ED000E80EF11C0C5F1F4FE4E08E16910409F000
:104EE000C1CFAA2089F00F900F900F900F90DF9103
:104EF000CF911F910F91FF90EF90DF90CF90BF90D7
:104F0000AF909F908F9077CBBB20A1F081EC97E082
:104F10000F900F900F900F90DF91CF911F910F91F5
:104F2000FF90EF90DF90CF90BF90AF909F908F90C9
:104F30000C94778F0F900F900F900F90DF91CF917F
:104F40001F910F91FF90EF90DF90CF90BF90AF90A7
:104F50009F908F900895EAEEF5E08491882341F0C8
:104F60009091C00095FFFCCF8093C6003196F5CF9D
:104F70008091C00085FFFCCF8AE08093C6008AEC58
:104F800097E00E940F6AECEDF5E08491882341F0F0
:104F90009091C00095FFFCCF8093C6003196F5CF6D
:104FA0008091C00085FFFCCF8AE08093C600089501
:104FB000EF92FF920F931F93CF93DF93CDB7DEB79E
:104FC0006E970FB6F894DEBF0FBECDBF8BEC95E0A9
:104FD0000E94BAAABC0180E090E02CE330E040E0FF
:104FE00050E00E94B4FD7F936F933F932F938DEC1D
:104FF00095E09F938F938E010F5F1F4F1F930F9329
:105000000F9456060FB6F894DEBF0FBECDBFE4EE88
:10501000FBE08491882341F09091C00095FFFCCF84
:105020008093C6003196F5CFF8018191882339F03D
:105030009091C00095FFFCCF8093C600F6CF809181
:10504000C00085FFFCCF8AE08093C60060E0C80105
:105050000E941DCC80916311882329F11092631165
:10506000E090EB05F12C8701000F111F03591C4E36
:10507000F80160817181882777FD8095982F0E94C3
:10508000B1FF209146023091470240914802509171
:1050900049020F941201181634F4F801118210829B
:1050A000C7010E94CBAE6E960FB6F894DEBF0FBE5E
:1050B000CDBFDF91CF911F910F91FF90EF90089599
:1050C0001F93CF93DF938091CC0781110E94DEA9BB
:1050D000C0919307D091940761E270E0CE010F94E4
:1050E0001E06009711F0EC01219680E561D8882317
:1050F00041F011E08091E5059091E6058C179D0740
:1051000008F010E08091CD07882391F1212F41E034
:10511000BE018AEC97E00E94096F83E549D8882395
:1051200039F08091E5059091E6058C179D0768F0B0
:105130008AEC97E00E94806B11111AC08BEC95E00D
:10514000DF91CF911F910C94E1AA25D8AC0166277D
:1051500057FD6095762F4093480A5093490A609313
:105160004A0A70934B0A87E999E00E94A15DE0CF5B
:10517000DF91CF911F9108950F931F93CF93DF93EA
:1051800083E516D8882379F106D88C018F3F9105E5
:1051900009F048F580E50CD8882331F00E94CB2037
:1051A000EC0197FD20C002C0CDE0D0E0ECEDF3E0D3
:1051B00081919191C817D907B1F084E0E231F807E5
:1051C000B9F761E08C2F0E941BF7602F8C2F0E9493
:1051D00054F7B8018C2F0E9405F6299721F41093FB
:1051E000ED050093EC05DF91CF911F910F9108958C
:1051F000CF92DF92EF92FF920F931F93CF93DF93A3
:1052000088E690E00E94EC20811154C08091C9078B
:1052100083FD50C083E50E94D820882309F44AC04A
:105220000E949A206B017C010091CA0510E0E80100
:10523000CC0FDD1FC359DC4E0E947EFF798368834B
:10524000C8010E94CBAE20E030E04AEA52E4C70138
:10525000B6010E940FFF181654F08BEC95E00E94E7
:1052600094AA60E08AE994E00E9438CE04C08BECF6
:1052700095E00E94E1AAE091CA0584E0E89FF00170
:105280001124ED5AFC4E2081318142815381C701A6
:10529000B6010F94120118166CF460E08CE894E0EB
:1052A000DF91CF911F910F91FF90EF90DF90CF9002
:1052B0000C9438CEDF91CF911F910F91FF90EF901A
:1052C000DF90CF900895E9ECF8E08491882341F0D5
:1052D0009091C00095FFFCCF8093C6003196F5CF2A
:1052E000E091CA0584E0E89FF0011124ED5AFC4EDC
:1052F000408151816281738121E030E084ED94E04E
:105300000E94C61BE6ECF8E08491882341F090915E
:10531000C00095FFFCCF8093C6003196F5CFE09199
:10532000CA05F0E0EE0FFF1FE359FC4E608171816A
:10533000882777FD8095982F0E94B1FFAB01BC01B3
:1053400021E030E084ED94E00E94C61BE2ECF8E03E
:105350008491882341F09091C00095FFFCCF809309
:10536000C6003196F5CF8091CA0590E00E94E3AB6C
:105370004AE050E0BC0184ED94E00C94F41A89E614
:1053800090E00E94EC20811115C0E1E4F4E08491EA
:10539000882341F09091C00095FFFCCF8093C60018
:1053A0003196F5CF90DF8091C00085FFFCCF8AE079
:1053B0008093C600089583E50E94D820882319F0C1
:1053C0000E94CB2001C080E08093C907E4EEFBE09F
:1053D0008491882341F09091C00095FFFCCF809389
:1053E000C6003196F5CFE5E8F4E08491882341F0DA
:1053F0009091C00095FFFCCF8093C6003196F5CF09
:105400008091C907811103C0E7E7F4E03BC02BE7B7
:1054100034E080E090E060E0ACE24091C90750E009
:10542000082E02C0559547950A94E2F740FF1AC02E
:1054300071E0760F662331F04091C00045FFFCCF4C
:10544000A093C600F90145915491FA016491662335
:1054500051F0E091C000E5FFFCCF6093C6004F5FC4
:105460005F4FF3CF762F01962E5F3F4F853091052A
:1054700061F0672FD2CF9091C00095FFFCCF809351
:10548000C600319684918111F6CF8091C00085FFCE
:10549000FCCF8AE08093C600089583E50E94D8205F
:1054A000811103C0E4EEFBE00FC00E94CB208D33DE
:1054B00008F08CE380930E0208959091C00095FF50
:1054C000FCCF8093C600319684918111F6CF409134
:1054D0000E0250E060E070E084E494E00E94B21CB0
:1054E0008091C00085FFFCCF8AE08093C6000895BC
:1054F00083E50E94D820882341F10E94CB2082308E
:1055000010F1EAEEFBE08491882341F09091C00015
:1055100095FFFCCF8093C6003196F5CFE3E3F3E02F
:105520008491882341F09091C00095FFFCCF809337
:10553000C6003196F5CF8091C00085FFFCCF8AE090
:105540008093C6000895813069F188E40E94D820D4
:10555000882391F00E94CB208A3A91053CF0853057
:1055600021E092072CF084E091E002C08AEA90E00A
:1055700090933F1680933E1686E40E94D82088239D
:10558000E9F10E94CB208F3F910519F014F08FEFC5
:1055900090E097FF02C080E090E090933B168093EC
:1055A0003A16089588E40E94D820882391F00E943A
:1055B000CB208A3A91053CF0853021E092072CF00F
:1055C00084E091E002C08AEA90E0909339168093DB
:1055D000381686E40E94D820882381F00E94CB20D0
:1055E0008F3F910519F014F08FEF90E097FF02C004
:1055F00080E090E09093351680933416089583E50B
:105600000E94D820882399F00E949A2020E030E060
:105610004AE754E40F94E4010E9483FF609315026B
:10562000709316028093170290931802089588E5EC
:105630000E94D820811111C089E50E94D8208111D3
:105640000CC08AE50E94D820811107C085E40E9421
:10565000D820811102C00C945BAA0E94DEA988E5C3
:105660000E94D820882319F05F9A1092A20789E53A
:105670000E94D820882319F08A9A1092A3078AE5FD
:105680000E94D820882351F09FB7F8948091080198
:105690008160809308019FBF1092A40785E40E9457
:1056A000D820882311F0129A089508953F924F92BE
:1056B0005F926F927F928F929F92AF92BF92CF92A2
:1056C000DF92EF92FF920F931F93CF93DF9362E1EC
:1056D000862E64E0962EC4EAD1E174EBA72E71E128
:1056E000B72E04E611E1312CF40181914F010E94A3
:1056F000D820882309F458C0F3E03F124FC00E941D
:105700009A206B017C0120E030E040EA51E40E94E5
:105710000FFF87FF3EC0A7019601688179818A81CA
:105720009B810E9416FF2B013C019B01AC01609103
:1057300078117091791180917A1190917B110F9469
:10574000E401609378117093791180937A119093AA
:105750007B11A3019201F5016081718182819381A6
:105760000F94E401F5016083718382839383F801D0
:1057700060817181828193810E94AFFFA3019201B8
:105780000F94E4010E9483FFF80160837183828398
:105790009383C882D982EA82FB8206C00E949A2043
:1057A000688379838A839B8333942496F4E0AF0ED5
:1057B000B11C0C5F1F4F84E0381296CFDF91CF9160
:1057C0001F910F91FF90EF90DF90CF90BF90AF901F
:1057D0009F908F907F906F905F904F903F90089533
:1057E0008F929F92AF92BF92CF92DF92EF92FF92F1
:1057F000EBE8F3E08491882341F09091C00095FF9D
:10580000FCCF8093C6003196F5CF4091B5075091FB
:10581000B6076091B7077091B80722E030E084EDD9
:1058200094E00E94C61BE7E8F3E08491882341F0EE
:105830009091C00095FFFCCF8093C6003196F5CFC4
:105840004091B9075091BA076091BB077091BC07AE
:1058500022E030E084ED94E00E94C61BE3E8F3E030
:105860008491882341F09091C00095FFFCCF8093F4
:10587000C6003196F5CF4091BD075091BE076091AB
:10588000BF077091C00722E030E084ED94E00E94F1
:10589000C61BEFE7F3E08491882341F09091C000AC
:1058A00095FFFCCF8093C6003196F5CF4091C1079C
:1058B0005091C2076091C3077091C40722E030E0A5
:1058C00084ED94E00E94C61B8FB7F8944091C811F4
:1058D0005091C9116091CA117091CB118090CC1177
:1058E0009090CD11A090CE11B090CF11C090D0115A
:1058F000D090D111E090D211F090D3118FBFE4E796
:10590000F3E08491882341F09091C00095FFFCCF93
:105910008093C6003196F5CF2AE030E084ED94E024
:105920000E94D11AE0E7F3E08491882341F090913E
:10593000C00095FFFCCF8093C6003196F5CF2AE0DA
:1059400030E0B501A40184ED94E00E94D11AECE6A8
:10595000F3E08491882341F09091C00095FFFCCF43
:105960008093C6003196F5CF2AE030E0B701A6015A
:1059700084ED94E00E94D11A8091C00085FFFCCF95
:105980008AE08093C600FF90EF90DF90CF90BF90A9
:10599000AF909F908F9008958F929F92AF92BF92F9
:1059A000CF92DF92EF92FF920E94DEA98EE492E006
:1059B0000E9409F20E94531C80E1E5EBF7E0A5EAA2
:1059C000B7E001900D928A95E1F710923D02109296
:1059D0003E0210923F021092400288E50E94D820B9
:1059E000D82E89E50E94D820E82E8AE50E94D8208A
:1059F000F82ED11005C0E11007C091E0982705C02E
:105A0000EE2011F0982F01C090E09093110220E059
:105A100030E040EE50E46091BD077091BE07809188
:105A2000BF079091C0070E940FFF1816B4F140E025
:105A300050E060EE70E44093AD075093AE07609382
:105A4000AF077093B00720E030E040E752E4609188
:105A5000BC117091BD118091BE119091BF110F9436
:105A6000E40160933D0270933E0280933F02909365
:105A700040020E94F2220E94DEA94091AD0750919F
:105A8000AE076091AF077091B0074093BD07509388
:105A9000BE076093BF077093C00780911102811108
:105AA00002C0DD2021F080E090E00E94262380915A
:105AB0001102811102C0EE2021F081E090E00E94ED
:105AC000262380911102882309F45BC00E94FB22E7
:105AD00080E090E0AAECB2E48093A5079093A6073B
