:100000000C94510D0C94800D0C94800D0C94800D6B
:100010000C94800D0C94800D0C94800D0C94800D2C
:100020000C94800D0C94800D0C94800D0C94800D1C
:100030000C94800D0C94D2910C94800D0C94800D36
:100040000C94800D0C943FA40C9422AA0C94800D67
:100050000C94820D0C94800D0C94800D0C94800DEA
:100060000C94800D0C94800D0C94800D0C94800DDC
:100070000C94800D0C94800D0C94800D0C94800DCC
:100080000C94800D0C94800D0C94800D88A495A484
:10009000B4A4B7A4BAA4BDA4C0A4C3A4C6A4C9A44C
:1000A000CCA4CFA4D9A43DAB42AB47AB51AB7FAB03
:1000B0007FAB5BAB63AB6BAB75AB9BAB9EAB91AB01
:1000C00095ABB5ABB5ABA2ABA6ABACABB0AB084A8E
:1000D000D73B3BCE016E84BCBFFDC12F3D6C74315C
:1000E0009ABD56833DDA3D00C77F11BED9E4BB4CB3
:1000F0003E916BAAAABE000000803F05A84CCDB27D
:10010000D44EB93836A9020C50B9918688083CA65D
:10011000AAAA2ABE000000803F005072696E746572
:10012000722068616C7465642E206B696C6C282980
:100130002063616C6C656421004B494C4C45442E36
:10014000200020746F6F206C6F6E6720657874726A
:100150007573696F6E2070726576656E7465640084
:1001600020636F6C6420657874727573696F6E209C
:1001700070726576656E746564006F6B00526573AE
:10018000656E643A20004D36303020486F74656EDD
:100190006420746F6F20636F6C6420746F206368D9
:1001A000616E67652066696C616D656E7400506193
:1001B00075736520666F722066696C616D656E741B
:1001C000206368616E6765003A20007A5F6D617830
:1001D0003A20007A5F6D696E3A20005A204F6666B9
:1001E00073657400546F6F206661722066726F6D64
:1001F000207265666572656E636520706F696E74E6
:100200000053657474696E672054726176656C2062
:10021000416363656C65726174696F6E3A20005367
:10022000657474696E6720526574726163742041ED
:100230006363656C65726174696F6E3A2000536523
:100240007474696E67205072696E742041636365CF
:100250006C65726174696F6E3A20005365747469DD
:100260006E67205072696E7420616E6420547261F2
:1002700076656C20416363656C65726174696F6E4D
:100280003A20007A5F6D696E3A2000795F6D61787F
:100290003A2000785F6D696E3A2000205A3A0020BB
:1002A000593A0020436F756E7420583A200020455B
:1002B0003A00205A3A0020593A00583A0055554918
:1002C000443A63656465326132662D343161322DA2
:1002D000343734382D396231322D63353563363257
:1002E000663336376666204255494C445F434F4477
:1002F000453A313439353536383433372D64323078
:100300006D656C2D626F786469723A6469732D62F1
:100310006F7865766F3A6469732D626F7866696C81
:100320003A6469732D626F786C61733A6469732DF6
:10033000626F786F6C653A6469732D626F7874725E
:10034000613A6469732D656E643A6E632D686F74EB
:100350003A6E6F6E2D7072696865613A6F72697678
:10036000312D7769663A6E6F6E2D7A70726F3A6FC3
:1003700072610A003F0020573A006F6B004D313127
:10038000332053004B494C4C45442E2000454348F4
:100390004F00494E464F004552524F52530044526F
:1003A0005952554E00434F4D4D554E4943415449C6
:1003B0004F4E006F6666008D03920397039E03A560
:1003C0000344454255473A005374616E6461726458
:1003D00020446576696174696F6E3A20004D6561ED
:1003E0006E3A20002020207369676D613A2000205A
:1003F0006D65616E3A20002020207A3A2000206F3F
:1004000066200020207A3A2000793A2000783A20AD
:1004100000202020616E676C653A20005374617281
:1004200074696E67207261646975733A2000506F59
:10043000736974696F6E696E672074686520707285
:100440006F62652E2E2E0A003F4E756D626572201A
:100450006F66206C65677320696E206D6F76656DC1
:10046000656E74206E6F7420706C61757369626C58
:10047000652028302D3135292E0A00590058003FBB
:1004800053616D706C652073697A65206E6F74209E
:10049000706C61757369626C652028342D35302964
:1004A0002E0A004D3438205A2D50726F626520524A
:1004B00065706561746162696C69747920746573D3
:1004C000740A003F566572626F7365204C657665ED
:1004D0006C206E6F7420706C61757369626C65203E
:1004E00028302D34292E0A002569206D696E2C20B4
:1004F00025692073656300456E642066696C65201C
:100500006C69737400426567696E2066696C65206A
:100510006C69737400205A3A200020593A20004236
:10052000656420583A2000205A3A200020593A2089
:100530000042656420583A2000202B00200A436FB7
:1005400072726563746564204265642048656967FA
:1005500068742076732E2042656420546F706F6C2F
:100560006F67793A200A00202B002028302C302990
:100570000A002020204F2D2D2046524F4E54202D72
:100580002D2B0A002020207C20202020202020202D
:100590002020207C0A002020207C20202020282DC4
:1005A00029202020207C20540A002054207C202058
:1005B0002020202020202020207C20480A002046C7
:1005C000207C20282D29204E20282B29207C2047E4
:1005D0000A002045207C20202020202020202020D0
:1005E000207C20490A00204C207C20202020282B21
:1005F00029202020207C20520A002020207C20203E
:100600002020202020202020207C0A002020202BB9
:100610002D2D2D204241434B202D2D2B0A00200A49
:100620004265642048656967687420546F706F671D
:1006300072617068793A200A004D65616E206F66BC
:100640002073616D706C656420706F696E74733AAD
:10065000200020643A200020623A200045716E207C
:10066000636F656666696369656E74733A20613AA3
:10067000200028422961636B00284629726F6E743E
:10068000002852296967687400284C29656674003F
:100690003F4E756D626572206F662070726F626585
:1006A00064202850296F696E747320697320696D06
:1006B000706C61757369626C65202832206D696E9B
:1006C000696D756D292E0A0052756E6E696E672010
:1006D000696E204452592D52554E206D6F6465004D
:1006E000473239204175746F20426564204C65762D
:1006F000656C696E670A003F2856296572626F73E0
:1007000065204C6576656C20697320696D706C613D
:10071000757369626C652028302D34292E00486F6E
:100720006D6520582F59206265666F7265205A00EA
:100730005761726E696E673A20486F6D696E672007
:1007400042756D702044697669736F72203C203168
:10075000005A2070726F6265206F75742E2062657A
:10076000640020403A00202F0020543A0020706F8F
:10077000736974696F6E206F7574206F6620726183
:100780006E67652E003F50726F6265200062757360
:10079000793A2070617573656420666F7220696EA6
:1007A00070757400627573793A2070617573656451
:1007B00020666F72207573657200627573793A20D6
:1007C00070726F63657373696E6700220A00556EFD
:1007D0006B6E6F776E20636F6D6D616E643A202271
:1007E0000020496E76616C69642065787472756466
:1007F00065722000256920686F7572732025692055
:100800006D696E7574657300446F6E6520707269F2
:100810006E74696E672066696C65004B494C4C4587
:10082000442E20005072696E7465722073746F706C
:100830007065642064756520746F206572726F72D4
:10084000732E2046697820746865206572726F7215
:1008500020616E6420757365204D39393920746FBD
:1008600020726573746172742E202854656D7065F2
:100870007261747572652069732072657365742E78
:1008800020536574206974206166746572207265F6
:100890007374617274696E6729004E6F204C696EC3
:1008A00065204E756D626572207769746820636893
:1008B00065636B73756D2C204C617374204C696E8D
:1008C000653A20004E6F20436865636B73756D2039
:1008D00077697468206C696E65206E756D626572EB
:1008E0002C204C617374204C696E653A200063685B
:1008F00065636B73756D206D69736D617463682CCE
:10090000204C617374204C696E653A20004C696E0E
:1009100065204E756D626572206973206E6F74205C
:100920004C617374204C696E65204E756D62657202
:100930002B312C204C617374204C696E653A200079
:100940004D31313000446F6E6520736176696E679A
:100950002066696C652E004D3239002020506C6194
:100960006E6E657242756666657242797465733A39
:1009700020002046726565204D656D6F72793A20C2
:10098000004D6179203238203230313700436F6DAD
:1009900070696C65643A20004461676F6D612E4632
:1009A0007200207C20417574686F723A20003230EA
:1009B00031362D30342D32342031323A303000206F
:1009C0004C61737420557064617465643A20002032
:1009D000312E312E302D524336004D61726C696ECE
:1009E0000020536F66747761726520526573657479
:1009F00000205761746368646F6720526573657483
:100A0000002042726F776E206F7574205265736597
:100A100074002045787465726E616C205265736550
:100A20007400506F77657255700073746172740052
:100A30002200656E7175657565696E67202200FF1D
:100A400001FF0000A0400000A040000000400000A6
:100A50004D4300004D4300004D43000000000000E6
:100A60004D430000000000004D4300004D430000D6
:100A70004D4300000000000000000000000065631E
:100A8000686F3A004572726F723A007C3C3E5E2B92
:100A90003D3F2F5B5D3B2C2A225C004D38342058B3
:100AA0002059205A2045006461676F6D6125692EC9
:100AB00067006572726F722077726974696E672061
:100AC000746F2066696C65004E6F7420534420700B
:100AD00072696E74696E67005344207072696E7437
:100AE000696E672062797465200044656C6574697D
:100AF0006F6E206661696C65642C2046696C653A8E
:100B0000200046696C652064656C657465643A0014
:100B10006F70656E206661696C65642C2046696C37
:100B2000653A200057726974696E6720746F206699
:100B3000696C653A20002E0A006F70656E20666150
:100B4000696C65642C2046696C653A20002E0A00A9
:100B50006F70656E206661696C65642C2046696CF7
:100B6000653A200046696C652073656C6563746541
:100B700064002053697A653A200046696C65206FED
:100B800070656E65643A20006F70656E20666169FD
:100B90006C65642C2046696C653A20004E6F7720A6
:100BA00066726573682066696C653A20004E6F77DF
:100BB00020646F696E672066696C653A20002220A8
:100BC000706F73002220706172656E743A22005358
:100BD0005542524F5554494E452043414C4C207488
:100BE00061726765743A22004B494C4C45442E2093
:100BF00000747279696E6720746F2063616C6C2079
:100C00007375622D67636F64652066696C65732018
:100C10007769746820746F6F206D616E79206C65E0
:100C200076656C732E204D4158206C6576656C207E
:100C300069733A004D3234004D323320257300532E
:100C4000442063617264206F6B006F70656E526F39
:100C50006F74206661696C656400766F6C756D6594
:100C60002E696E6974206661696C65640053442066
:100C7000696E6974206661696C0020204D383531D9
:100C8000205A005A2D50726F6265204F6666736558
:100C90007420286D6D293A0020204D3230302044D8
:100CA000300020204D3230302044002044697361F0
:100CB000626C65640046696C616D656E7420736575
:100CC0007474696E67733A00204C0020430020441E
:100CD0000020490020204D3330312050005049443D
:100CE0002073657474696E67733A00205A00205946
:100CF0000020204D323036205800486F6D65206F3F
:100D0000666673657420286D6D293A0020450020C1
:100D10005A0020580020420020540020204D32303C
:100D200035205300416476616E636564207661729C
:100D30006961626C65733A20533D4D696E2066654A
:100D400065647261746520286D6D2F73292C2054A1
:100D50003D4D696E2074726176656C2066656564D0
:100D60007261746520286D6D2F73292C20423D6DB2
:100D7000696E696D756D207365676D656E7420743D
:100D8000696D6520286D73292C20583D6D61786947
:100D90006D756D205859206A65726B20286D6D2F16
:100DA00073292C20205A3D6D6178696D756D205A2C
:100DB000206A65726B20286D6D2F73292C202045C9
:100DC0003D6D6178696D756D2045206A65726B2097
:100DD000286D6D2F73290020540020520020204DD3
:100DE000323034205000416363656C657261746910
:100DF0006F6E733A20503D7072696E74696E672C25
:100E000020523D7265747261637420616E64205477
:100E10003D74726176656C00204500205A002059AF
:100E20000020204D3230312058004D6178696D75B9
:100E30006D20416363656C65726174696F6E202813
:100E40006D6D2F7332293A00204500205A00205939
:100E50000020204D3230332058004D6178696D7587
:100E60006D2066656564726174657320286D6D2FF1
:100E700073293A00204500205A0020590020204DB7
:100E80003932205800537465707320706572207574
:100E90006E69743A0048617264636F6465642044EB
:100EA000656661756C742053657474696E67732030
:100EB0004C6F616465640020627974657329002059
:100EC00073746F7265642073657474696E677320E0
:100ED0007265747269657665642028002062797491
:100EE0006573290053657474696E67732053746F5A
:100EF0007265642028004572726F7220777269747F
:100F0000696E6720746F20454550524F4D21002077
:100F1000746F6F206C6F6E6720657874727573697B
:100F20006F6E2070726576656E7465640020636F05
:100F30006C6420657874727573696F6E2070726569
:100F400076656E746564004D383420582059205AF7
:100F5000204500205A3A0020593A0020583A0065AE
:100F60006E6473746F7073206869743A200024F49F
:100F7000D43050C38E20C2A24017828B7011127AD7
:100F8000910D816CD90AA861E108C75866076151C3
:100F900043061E4B5D05C145A7041A411104093DD6
:100FA0009803713931034036DB0265339102D43046
:100FB0005402802E1D02632CEE01752AC501B02853
:100FC000A001102781018F2564012B244B01E02211
:100FD0003401AC211F018D200D01801FFC00841EF7
:100FE000ED00971DDF00B81CD200E61BC600201BD9
:100FF000BC00641AB200B219A8000A19A0006A184D
:101000009900D117910040178B00B5168400311656
:101010007E00B31579003A157300C7146F00581499
:101020006A00EE1366008813630025135E00C71282
:101030005B006C12570015125400C1115100701161
:101040004F0021114B00D61049008D10470046106B
:10105000440002104200C00F4000800F3E00420FCB
:101060003C00060F3B00CB0E3800930E37005C0EA1
:101070003500270E3400F30D3200C10D3100900D04
:101080003000600D2E00320D2D00050D2C00D90C06
:101090002B00AE0C2900850C29005C0C2700350CB8
:1010A00027000E0C2600E80B2400C40B2400A00B24
:1010B00023007D0B23005A0B2100390B2100180B54
:1010C0002000F80A1F00D90A1E00BB0A1E009D0A54
:1010D0001D00800A1D00630A1C00470A1B002C0A21
:1010E0001B00110A1A00F7091A00DD091900C409CA
:1010F0001900AB091900920917007B091800630950
:1011000017004C09160036091600200916000A09B6
:101110001500F5081500E0081400CC081400B80804
:101120001400A4081400900813007D0812006B0836
:101130001300580812004608120034081100230852
:1011400011001208110001081100F0071000E0075B
:101150001000D0071000C0071000B0070F00A10753
:10116000100091070E0083070F0074070F0065073A
:101170000E0057070E0049070E003B070D002E0713
:101180000E0020070D0013070D0006070D00F906DD
:101190000C00ED060D00E0060C00D4060C00C8069D
:1011A0000C00BC060C00B0060C00A4060B0099064F
:1011B0000C008D060B0082060B0077060B006C06F8
:1011C0000B0061060A0057060B004C060A00420697
:1011D0000A0038060A002E060A0024060A001A062B
:1011E0000A001006090007060A00FD050900F405BB
:1011F0000900EB050900E2050900D9050900D00541
:101200000900C7050900BE050900B5050800AD05C0
:101210000800A50509009C050800940508008C0538
:101220000800840508007C050800740508006C05AA
:101230000700650508005D050700560508004E0516
:10124000070047050700400508003805070031057D
:1012500007002A050700230507001C0506001605E0
:1012600007000F0507000805060002050700FB043C
:101270000600F5040700EE040600E8040600E20498
:101280000700DB040600D5040600CF040600C904ED
:101290000600C3040600BD040600B7040600B1043E
:1012A0000500AC040600A6040600A00405009B048B
:1012B000060095040500900406008A0405008504D4
:1012C0000500800406007A0405007504050070041A
:1012D00005006B04050066040500610405005C045C
:1012E000050057040500520405004D04050048049C
:1012F0000500430405003E0404003A0405003504DB
:101300000500300404002C04050027040400230415
:1013100005001E0404001A0404001604050011044C
:1013200004000D0404000904050004040400000482
:101330000400FC030400F8030400F4030400F003B9
:101340000400EC030400E8030400E4030400E003E9
:101350000400DC030400D8030400D4030400D00319
:101360000400CC030400C8030300C503030024F4F5
:1013700004D9201BC40C5C0E9804C4095F026507E5
:101380007101F405F900FB04B30048048700C103B0
:1013900069005803550003034500BE023A00840269
:1013A000310053022A002902250004022000E40132
:1013B0001C00C8011900AF01170098011400840136
:1013C0001300710110006101100051010E00430172
:1013D0000D0036010B002B010B0020010B00150145
:1013E00009000C01090003010800FB000800F300DC
:1013F0000800EB000700E4000600DE000600D8004D
:101400000600D2000600CC000500C7000500C2009F
:101410000500BD000400B9000400B5000400B100DF
:101420000400AD000400A9000400A5000300A20010
:1014300003009F0004009B00030098000300950038
:10144000020093000300900003008D0002008B0057
:10145000030088000200860002008400030081006F
:1014600002007F0002007D0002007B000200790084
:101470000200770001007600020074000200720092
:101480000100710002006F0002006D0001006C009D
:1014900002006A00010069000200670001006600A6
:1014A00001006500010064000200620001006100AB
:1014B0000100600001005F0002005D0001005C00AF
:1014C00001005B0001005A000100590001005800B2
:1014D00001005700010056000100550001005400B2
:1014E00001005300000053000100520001005100B0
:1014F0000100500001004F0001004E0000004E00AE
:1015000001004D0001004C0001004B0000004B00A9
:1015100001004A00010049000100480000004800A5
:1015200001004700010046000000460001004500A0
:10153000000045000100440001004300000043009A
:101540000100420000004200010041000000410093
:101550000100400001003F0000003F0001003E008C
:1015600000003E0001003D0000003D0001003C0085
:1015700000003C0000003C0001003B0000003B007C
:1015800001003A0000003A00010039000000390073
:10159000010038000000380000003800010037006A
:1015A0000000370001003600000036000000360061
:1015B0000100350000003500000035000100340056
:1015C000000034000000340001003300000033004C
:1015D0000000330001003200000032000000320041
:1015E0000100310000003100000031000100300036
:1015F000000030000000300001002F0000002F002C
:1016000000002F0000002F0001002E0000002E001F
:1016100000002E0001002D0000002D0000002D0014
:1016200000002D0001002C0000002C0000002C0008
:1016300000002C0001002B0000002B0000002B00FC
:1016400000002B0001002A0000002A0000002A00F0
:1016500000002A00010029000000290000002900E4
:1016600000002900000029000100280000002800D7
:1016700000002800000028000000280001002700CA
:1016800000002700000027000000270000002700BE
:1016900001002600000026000000260000002600B1
:1016A00000002600010025000000250000002500A4
:1016B0000000250000002500000025000100240096
:1016C000000024000000240000002400000024008A
:1016D000010023000000230000002300000023007D
:1016E000000023000000230000002300010022006E
:1016F0000000220000002200000022000000220062
:101700000000220001002100000021000000210053
:101710000000210000002100000021000000210045
:101720000100200000002000000020000000200038
:101730000000200000002000000020000000200029
:1017400001001F0000001F0000001F0000001F001C
:1017500000001F0000001F0000001F0001001E000D
:1017600000001E0000001E0000001E000000546863
:1017700065726D616C2052756E61776179005448B5
:1017800045524D414C2052554E41574159004865F4
:101790006174696E67206661696C656400486561A3
:1017A00074696E67206661696C6564004D494E54CA
:1017B000454D5020747269676765726564004572B3
:1017C000723A204D494E54454D5000626564002CDC
:1017D0002073797374656D2073746F707065642104
:1017E000204865617465725F49443A20004D415854
:1017F00054454D5020747269676765726564004591
:1018000072723A204D415854454D5000236465662C
:10181000696E65202044454641554C545F4B642019
:101820000023646566696E65202044454641554C39
:10183000545F4B69200023646566696E652020440F
:10184000454641554C545F4B70200050494420415F
:1018500075746F74756E652066696E69736865640A
:10186000212050757420746865206C617374204B5E
:10187000702C204B6920616E64204B6420636F6E76
:101880007374616E74732066726F6D2062656C6F25
:101890007720696E746F20436F6E66696775726139
:1018A00074696F6E2E6800504944204175746F74DE
:1018B000756E65206661696C6564212074696D656B
:1018C0006F757400504944204175746F74756E656E
:1018D000206661696C6564212054656D7065726174
:1018E0007475726520746F6F206869676800204B9B
:1018F000643A2000204B693A2000204B703A2000C7
:1019000020436C6173736963205049442000205464
:10191000753A2000204B753A2000206D61783A20FE
:1019200000206D696E3A200020643A200020626930
:1019300061733A2000500040016000360170002CB5
:101940000180002701A0001D01B0001801C0001394
:1019500001000109014001FE006001FA00D001F020
:10196000004002E600D002DE000003D7004003D0B2
:10197000008004CA00B004C4006005C0009005BC2B
:1019800000A006B6008007AE003008AA00F008A646
:10199000008009A200800A9E00800B9900B00C967E
:1019A00000D00D9100000F8F000012860070157D91
:1019B0000040197400F01D6B0090226200502759FE
:1019C00000602C4E00D0304500C0343C00C037329F
:1019D00000403A2900A03C1D00803E1400203F0A30
:1019E000000040EFFE0000000102000000000000C7
:1019F00000040308070000000000000000000000D1
:101A000000000000000102040810204080010204D0
:101A100008102040800102040810204080804020EF
:101A2000100804020102020202020202020404047B
:101A30000404040404030303030303030301010177
:101A400001010101010000200023002600290000FF
:101A5000002200250028002B000000210024002780
:101A6000002A004E414E494E495459494E46CDCC6C
:101A7000CC3D0AD7233C17B7D13877CC2B3295957C
:101A8000E6241FB14F0A000020410000C842004078
:101A90001C4620BCBE4CCA1B0E5AAEC59D74E748FE
:101AA000EF4811241FBECFEFD0E4DEBFCDBF13E05F
:101AB000A0E0B1E0ECEFFFE601E00BBF02C0079051
:101AC0000D92A233B107D9F721E1A2E3B3E001C03F
:101AD0001D92A63EB207E1F71AE1C0EADAE100E0A2
:101AE00006C022970109FE010BBF0E94D8ACCE3977
:101AF000D10780E00807A9F70E9415AA0C94ECB75B
:101B00000C9400001F920F920FB60F9211240BB687
:101B10000F922F933F938F939F93EF93FF93209177
:101B2000C6009FB7F894E091B30381E08E0F8F77E2
:101B30003091B403831731F0F0E0ED5CFC4F20836B
:101B40008093B3039FBFFF91EF919F918F913F913E
:101B50002F910F900BBE0F900FBE0F901F901895F6
:101B60009A01AB01211581EE38074105510549F174
:101B700082E08093C00060E079E08DE390E00E9415
:101B800091AC2150310941095109CA01B90122E042
:101B900030E040E050E00E9491AC3093C5002093CB
:101BA000C4008091C10080618093C1008091C10018
:101BB00088608093C1008091C10080688093C100DB
:101BC00008951092C00020E130E0E7CF3FB7F894CD
:101BD0002091B4038091B303821759F0E22FF0E013
:101BE000ED5CFC4F808190E02F5F2F772093B40352
:101BF00002C08FEF9FEF3FBF08958FB7F894909189
:101C0000B4039093B3038FBF08954F925F926F9286
:101C10007F928F929F92AF92BF92CF92DF92EF927C
:101C2000FF920F931F93CF93DF93CDB7DEB7A097AB
:101C30000FB6F894DEBF0FBECDBF5C014115510554
:101C400061057105E9F420E030E040E350E060E038
:101C500070E0A0960FB6F894DEBF0FBECDBFDF9147
:101C6000CF911F910F91FF90EF90DF90CF90BF9099
:101C7000AF909F908F907F906F905F904F905BC0E0
:101C80008E010F5F1F4FC12CD12C76014801422ECF
:101C9000512C612C712C8FEFC81AD80AE80AF80A67
:101CA000CB01BA01A30192010E946FACCA01F801F5
:101CB00061938F01A901BC014115510561057105B1
:101CC00051F7F1E0CF1AD108E108F108F401EC0D69
:101CD000FD1D80818A3010F440E301C047E3480FC6
:101CE000552747FD5095652F752F20E030E0C50141
:101CF00022D081E0C81AD108E108F108EFEFCE1632
:101D0000DE06EE06FE0611F7A0960FB6F894DEBFCB
:101D10000FBECDBFDF91CF911F910F91FF90EF903C
:101D2000DF90CF90BF90AF909F908F907F906F90FB
:101D30005F904F9008952115310539F48091C000CE
:101D400085FFFCCF4093C60008952A30310509F481
:101D50001CC05BCFCF93DF93EC0120E030E04DE07F
:101D600050E060E070E0E7DF20E030E04AE050E083
:101D700060E070E0CE01DF91CF91DDCF9A01AB0141
:101D8000662757FD6095762FD6CFCF92DF92EF92E0
:101D9000FF92CF93DF93EC016A017B0177FF0FC0C5
:101DA00020E030E04DE250E060E070E0C4DFF0940D
:101DB000E094D094C094C11CD11CE11CF11C2AE019
:101DC000B701A601CE01DF91CF91FF90EF90DF9098
:101DD000CF901BCF2115310539F48091C00085FFCC
:101DE000FCCF4093C600089510CF9A01462F50E0D3
:101DF00060E070E0EFCFCF93DF93EC019A01AB018D
:101E000060E070E0E7DFCE01DF91CF91A3CF8F924A
:101E10009F92AF92BF92CF92DF92EF92FF921F9369
:101E2000CF93DF93EC016A017B01122F20E030E0B9
:101E3000A901C701B6010E94CAAD87FF0CC020E00E
:101E400030E04DE250E060E070E0CE0174DFF7FA80
:101E5000F094F7F8F094B12C60E070E080E09FE33C
:101E6000B11641F020E030E040E251E40E94D1ADF3
:101E7000B394F6CF9B01AC01C701B6010E94F1AC4F
:101E80006B017C010E943EAE4B015C010E946AAE78
:101E90009B01AC01C701B6010E94F0AC6B017C0153
:101EA0002AE0B501A401CE01B0DE112341F020E00B
:101EB00030E04EE250E060E070E0CE013CDF112304
:101EC00019F120E030E040E251E4C701B6010E9480
:101ED0009FB06B017C010E9439AE4B01AA2497FC94
:101EE000A094BA2CB501A401CE014FDFC501B40105
:101EF0000E946CAE9B01AC01C701B6010E94F0AC20
:101F00006B017C011150DBCFDF91CF911F91FF90CE
:101F1000EF90DF90CF90BF90AF909F908F900895FB
:101F200076CFFC0165917591859194910895CF923A
:101F3000DF92EF92FF920F931F93CF93DF93EC0109
:101F4000CC0FDD1FCC0FDD1FFE01EA5AFB4FDE0177
:101F5000AE59BB4F2D913D914D915C916081718146
:101F6000828193810E94F1AC6B017C01CE018E587D
:101F7000954FD7DF8E01065B1B4FA70196010E948C
:101F8000F1ACF8016083718382839383CE018A5917
:101F9000954FC7DFC85EDE4FA70196010E94F1ACE6
:101FA000688379838A839B83DF91CF911F910F91FF
:101FB000FF90EF90DF90CF90089580917010811185
:101FC00003C081E0809370100895EEE7FAE08491F9
:101FD000882341F09091C00095FFFCCF8093C6000C
:101FE0003196F5CFEEE1F7E08491882341F09091AE
:101FF000C00095FFFCCF8093C6003196F5CF80914D
:10200000C00085FFFCCF8AE08093C60008958091D0
:10201000701081111092701008950E946CAA609344
:102020003B0470933C0480933D0490933E040895D8
:102030008091300190913101A0913201B091330132
:1020400080932D0690932E06A0932F06B093300612
:1020500080912E0190912F019093700480936F04D2
:1020600084E690E090932F0180932E01D6DF81E0EB
:102070000C9427900E942F9080912D0690912E060F
:10208000A0912F06B09130068093300190933101DA
:10209000A0933201B093330180916F04909170044A
:1020A00090932F0180932E01B8CFFC01249122231D
:1020B00041F03091C00035FFFCCF2093C60001965F
:1020C000F4CF4AE050E082E393E058CEFC01249143
:1020D000222341F03091C00035FFFCCF2093C60091
:1020E0000196F4CF22E030E082E393E019CFFC01C7
:1020F0002491222341F03091C00035FFFCCF209382
:10210000C6000196F4CF2AE030E082E393E062CE8D
:102110002091F7053091F805F901E25EFB4F8083CD
:10212000C901019664E070E00E945CAC9093F805F0
:102130008093F7058091F5059091F60501969093AF
:10214000F6058093F5050895CF93FC01C62F808195
:102150008B33D9F02091F5053091F6052430310507
:10216000A4F44091F7055091F80580E6849F900112
:10217000859F300D1124BF01C9018B589B4F0E94D0
:10218000EDB48C2FC5DF81E001C080E0CF910895D0
:10219000CF93DF93D82FC92FD7DF882309F43CC012
:1021A000EEE7FAE08491882341F09091C00095FF1A
:1021B000FCCF8093C6003196F5CFE2E3FAE084913C
:1021C000882341F09091C00095FFFCCF8093C6001A
:1021D0003196F5CFED2FFC2F8191882339F0909126
:1021E000C00095FFFCCF8093C600F6CFE0E3FAE095
:1021F0008491882341F09091C00095FFFCCF80939B
:10220000C6003196F5CF8091C00085FFFCCF8AE0F3
:102210008093C60081E001C080E0DF91CF910895F6
:10222000DF92EF92FF920F931F93CF93DF93CDB77F
:10223000DEB76E970FB6F894DEBF0FBECDBF6091CC
:102240003F04709140046115710559F14DE150E072
:102250008E010F5F1F4FC8010E947CB41E8EF801D3
:102260007F01E01AF10AD190DD2019F08AE0D8123E
:10227000F7CFF801EE0DFF1D108260E0C80188DF86
:10228000882379F0DD20B1F08FEFE81AF80A809109
:102290003F04909140048E0D9F1D909340048093C5
:1022A0003F0481E020913F0430914004232B39F416
:1022B00080E005C01092400410923F04F2CF6E9669
:1022C0000FB6F894DEBF0FBECDBFDF91CF911F9147
:1022D0000F91FF90EF90DF900895909340048093CA
:1022E0003F049ECF40E950ED63E070E082E393E06D
:1022F00037DCEAE2FAE08491882341F09091C00053
:1023000095FFFCCF8093C6003196F5CF8091C00039
:1023100085FFFCCF8AE08093C600EEE7FAE0849167
:10232000882341F09091C00095FFFCCF8093C600B8
:102330003196F5CF84B780FF14C0E2E2FAE09491C1
:10234000992341F02091C00025FFFCCF9093C60057
:102350003196F5CF9091C00095FFFCCF9AE0909315
:10236000C60081FF14C0E2E1FAE09491992341F0A4
:102370002091C00025FFFCCF9093C6003196F5CF89
:102380009091C00095FFFCCF9AE09093C60082FF29
:1023900014C0E1E0FAE09491992341F02091C0004B
:1023A00025FFFCCF9093C6003196F5CF9091C000E9
:1023B00095FFFCCF9AE09093C60083FF14C0E1EF35
:1023C000F9E09491992341F02091C00025FFFCCFC2
:1023D0009093C6003196F5CF9091C00095FFFCCF49
:1023E0009AE09093C60085FF14C0E1EEF9E0849175
:1023F000882341F09091C00095FFFCCF8093C600E8
:102400003196F5CF8091C00085FFFCCF8AE08093A4
:10241000C60014BEEAEDF9E08491882341F0909162
:10242000C00095FFFCCF8093C6003196F5CFEFEC4E
:10243000F9E08491882341F09091C00095FFFCCF92
:102440008093C6003196F5CF8091C00085FFFCCF08
:102450008AE08093C600EEE7FAE08491882341F099
:102460009091C00095FFFCCF8093C6003196F5CFC8
:10247000EFEBF9E08491882341F09091C00095FF43
:10248000FCCF8093C6003196F5CFEEEAF9E0849157
:10249000882341F09091C00095FFFCCF8093C60047
:1024A0003196F5CFE2EAF9E08491882341F09091EA
:1024B000C00095FFFCCF8093C6003196F5CFE8E9C8
:1024C000F9E08491882341F09091C00095FFFCCF02
:1024D0008093C6003196F5CF8091C00085FFFCCF78
:1024E0008AE08093C600EDE8F9E08491882341F00A
:1024F0009091C00095FFFCCF8093C6003196F5CF38
:10250000E1E8F9E08491882341F09091C00095FFC3
:10251000FCCF8093C6003196F5CF8091C00085FF37
:10252000FCCF8AE08093C600EEE7FAE0849188232E
:1025300041F09091C00095FFFCCF8093C60031968A
:10254000F5CFE2E7F9E08491882341F09091C00053
:1025500095FFFCCF8093C6003196F5CF0E94E853DB
:102560004AE050E0BC0182E393E008DCEBE5F9E0EF
:102570008491882341F09091C00095FFFCCF809317
:10258000C6003196F5CF4AE050E060ED74E082E39A
:1025900093E0F4DB8091C00085FFFCCF8AE080935C
:1025A000C60081E080931E0480931F048093200462
:1025B000809321040E94EB6A0E94889C0E94907084
:1025C0000E949CA90C94D4972F923F924F925F92B5
:1025D0006F927F928F929F92AF92BF92CF92DF9233
:1025E000EF92FF920F931F93CF93DF93CDB7DEB798
:1025F0006E970FB6F894DEBF0FBECDBF8091340644
:10260000882309F426C18091F5059091F605892B60
:1026100011F41092B60311E04091B0085091B10846
:102620006091B2087091B3088091AC089091AD08A8
:10263000A091AE08B091AF08481759076A077B0709
:1026400008F410E0A12CB12C01E09CE3C92ED12CA0
:10265000E12CF12C20E1422E2EE0522E612C712C27
:10266000CE0101961C018091F5059091F605049725
:102670000CF0EFC01111EDC08091B6038111E9C0DB
:102680008091070890910808A0910908B0910A0864
:102690008093B0089093B108A093B208B093B308A8
:1026A0008FEF97E00E94B64D9C01E82F11E08091DA
:1026B000B0089091B108A091B208B091B3084091D0
:1026C000AC085091AD086091AE087091AF088417C6
:1026D0009507A607B70790F410E02F3F9FEF390743
:1026E00069F02A3079F02D3069F0233219F02A335D
:1026F00009F08CC08091B503811188C0E33211F4D8
:102700000093B6031092B503A114B10489F080912F
:10271000F7059091F805A0E6A89FF001A99FF00D9C
:102720001124EA0DFB1DEB58FB4F108280E0F0DC1A
:10273000112309F48BC0E8E0F8E08491882341F08C
:102740009091C00095FFFCCF8093C6003196F5CFE5
:102750008091C00085FFFCCFBAE0B093C60087E24D
:1027600094E00E94DC9887E294E00E9402994C0178
:10277000A12CB12CC501B401A70196010E946FAC38
:10278000CA01B901A70196010E946FAC7F936F93B4
:10279000C501B401A30192010E946FAC3F932F9336
:1027A000A4EFB7E0BF93AF933F922F920E9411B571
:1027B0000FB6F894DEBF0FBECDBFEEE7FAE084910E
:1027C000882341F09091C00095FFFCCF8093C60014
:1027D0003196F5CFF1018191882339F09091C000B5
:1027E00095FFFCCF8093C600F6CF8091C00085FF97
:1027F000FCCF9AE09093C60082E396E00E94E062EC
:1028000061E082E396E00E94A35E20C0AFE5AA16D5
:10281000B10408F028CFEB3311F40093B503809195
:10282000B503811120CF8091F7059091F805B0E6AE
:10283000B89FF001B99FF00D1124EA0DFB1DEB5874
:10284000FB4F2083C50101965C010DCFA12CB12C5B
:102850000ACF6E960FB6F894DEBF0FBECDBFDF91E4
:10286000CF911F910F91FF90EF90DF90CF90BF908D
:10287000AF909F908F907F906F905F904F903F9020
:102880002F9008950F931F93CF93DF9300914104EE
:102890001091420465E470E0C8010E94D9B4EC01D3
:1028A000C8010196209761F0188260E070E00E94F4
:1028B000BBB125E42883DF91CF911F910F9108953B
:1028C00060E070E0DF91CF911F910F910C94BBB14C
:1028D00080914104909142044AE050E060E070E051
:1028E00001960C9423B380914104909142044AE0F4
:1028F00050E060E070E001960E9423B3CB010895A0
:10290000682F772767FD70958091FB059091FC05F6
:102910000E94D9B4909342048093410421E0892B12
:1029200009F420E0822F08950F931F93CF93DF9334
:102930008C0184E5E5DF882361F1D5DFEC01181611
:1029400019064CF5EEE7FAE08491882341F0909166
:10295000C00095FFFCCF8093C6003196F5CF8091E3
:10296000C00085FFFCCF8DE48093C6004AE050E0B4
:10297000B80182E393E002DABE0181EE97E095DBD5
:102980008091C00085FFFCCF8AE08093C60081E083
:1029900005C0809147048093260480E0DF91CF91A9
:1029A0001F910F9108950F931F93CF93DF9300D042
:1029B00000D000D0CDB7DEB726E0E2E8F1E0DE01DE
:1029C000119601900D922A95E1F7FC01EE0FFF1F81
:1029D00021E030E02C0F3D1FE20FF31F6081718179
:1029E000161617061CF1EEE7FAE02491222341F0B7
:1029F0003091C00035FFFCCF2093C6003196F5CF53
:102A0000E0E3F7E02491222341F03091C00035FF4C
:102A1000FCCF2093C6003196F5CF2091C00025FF52
:102A2000FCCF2AE02093C6006AE070E08C01000F22
:102A3000111F000F111F0C541D4F882777FD809523
:102A4000982F0E946CAE9B01AC01F80160817181EE
:102A5000828193810E94D1AD6093300170933101E6
:102A6000809332019093330126960FB6F894DEBF1F
:102A70000FBECDBFDF91CF911F910F9108958F921F
:102A80009F92AF92BF92CF92DF92EF92FF920F93FD
:102A90001F9320E030E040E752E4609130017091F4
:102AA000310180913201909133010E94D1AD4B01EF
:102AB0005C01E0902506F090260600912706109113
:102AC000280620912106309122064091230650913C
:102AD000240660911D0670911E0680911F0690913C
:102AE0002006E0914704EF93E9E2CE2EE6E0DE2EE9
:102AF0000E9406720F901F910F91FF90EF90DF9050
:102B0000CF90BF90AF909F908F9008954F925F921B
:102B10006F927F928F929F92AF92BF92EF92FF92AD
:102B20000F931F93CF93DF93CDB7DEB728970FB6E0
:102B3000F894DEBF0FBECDBF4B015C018091300128
:102B400090913101A0913201B091330189839A8330
:102B5000AB83BC83412C512CF0E76F2EF3E47F2E26
:102B600040923001509231016092320170923301F3
:102B7000E0922506F0922606009327061093280679
:102B80002D833E834F8358877ADF0E942698609179
:102B9000120170911301882777FD8095982F0E946C
:102BA0006CAE609330017093310180933201909349
:102BB000330180921D0690921E06A0921F06B092CD
:102BC00020062D813E814F81588520932106309328
:102BD0002206409323065093240651DF0E94269834
:102BE00089819A81AB81BC818093300190933101BE
:102BF000A0933201B093330128960FB6F894DEBF4C
:102C00000FBECDBFDF91CF911F910F91FF90EF903D
:102C1000BF90AF909F908F907F906F905F904F90FC
:102C200008954F925F926F927F928F929F92AF9290
:102C3000BF92CF92DF92EF92FF920F931F932B01DF
:102C40003C0120E030E040E752E4609130017091B7
:102C5000310180913201909133010E94D1AD4B013D
:102C60005C0120912106309122064091230650916B
:102C7000240660911D0670911E0680911F0690919A
:102C80002006E0914704EF93A9E2CA2EA6E0DA2ECF
:102C9000830172010E9406720F901F910F91FF90A5
:102CA000EF90DF90CF90BF90AF909F908F907F90EC
:102CB0006F905F904F9008958F929F92AF92BF92C6
:102CC000CF92DF92EF92FF920F931F9320E030E0BC
:102CD00040E752E40E94D1AD4B015C01E090150643
:102CE000F090160600911706109118062091110613
:102CF00030911206409113065091140660910D0612
:102D000070910E0680910F0690911006E091470495
:102D1000EF93B9E1CB2EB6E0DB2E0E9406720F9046
:102D20001F910F91FF90EF90DF90CF90BF90AF90E9
:102D30009F908F9008956091300170913101809142
:102D4000320190913301B8CFCF92DF92EF92FF9290
:102D50000F931F93E0902506F0902606009127061A
:102D600010912806209121063091220640912306D9
:102D70005091240660911D0670911E0680911F06D9
:102D800090912006E9E2CE2EE6E0DE2E0E94507DF4
:102D90001F910F91FF90EF90DF90CF9008952F92A9
:102DA0003F924F925F926F927F928F929F92AF92DB
:102DB000BF92CF92DF92EF92FF920F931F93CF9328
:102DC000DF938C01FC01E15CF54FF4902F2C332450
:102DD00027FC3094EC01CC0FDD1FCC0FDD1FDE0192
:102DE000A35EB94F1D921D921D921C921397ACDFEA
:102DF0000230110511F437FCE0D8CE01825B954F0B
:102E000090D84B015C016F2D772767FD7095872F58
:102E1000972F0E946CAE2B013C01CE01835F994F2E
:102E20007C0120E030E040EC5FE3C501B4010E948A
:102E30009FB0A30192010E949FB0F701608371834C
:102E400082839383FE01EC54FD4F80819181A281A6
:102E5000B3818093300190933101A0933201B093FC
:102E6000330169DF0E942698CE01835E994F6C0181
:102E7000FC01108211821282138266DF80E00E94C0
:102E80002790CE018E5B954F5C014BD89058A301E3
:102E900092010E949FB0F7016083718382839383C4
:102EA0004ADF0E94269881E00E942790C8017BDDBE
:102EB000C50137D89B01AC010E94F1ACA30192017E
:102EC0000E949FB0F701608371838283938333DF15
:102ED0000E942698FE01EE59FB4F10821182128249
:102EE0001382CE01865A954F1CD8FE01EA5AFB4F39
:102EF00020813181428153810E94F1ACF6016083CF
:102F0000718382839383C80112D802301105D1F4F2
:102F100020912204309123044091240450912504EF
:102F200060912506709126068091270690912806CB
:102F30000E94F0AC609325067093260680932706C6
:102F40009093280601DFFE01E35FF94FC35ED94F7E
:102F500088819981AA81BB8180839183A283B38375
:102F6000109230011092310110923201109233010F
:102F70000E943490F801E65FF94F81E08083F80108
:102F8000E95FF94F808302301105A9F437FE13C0C1
:102F9000DF91CF911F910F91FF90EF90DF90CF9035
:102FA000BF90AF909F908F907F906F905F904F9069
:102FB0003F902F902CC8DF91CF911F910F91FF90E0
:102FC000EF90DF90CF90BF90AF909F908F907F90C9
:102FD0006F905F904F903F902F9008958F929F92A7
:102FE000AF92BF92CF92DF92EF92FF920F931F9317
:102FF00014D881E491E00E9447A780E090E0A0E728
:10300000B3E48093300190933101A0933201B093E7
:10301000330160E070E087E593EC03DE0E942698C0
:1030200082E090E00E948D984B015C012091210686
:1030300030912206409123065091240660911D068E
:1030400070911E0680911F0690912006A9E2CA2E5B
:10305000A6E0DA2E850174010E94507D8AE49AE090
:103060000E94910F9B01AC01C501B4010E94F1AC1B
:103070004B015C01D6DD0E9426980E94349082E0CC
:1030800090E091DC8AE49AE00E94910F9B01AC01F0
:103090000E94F1AC9B01AC01C501B4010E94F0ACEF
:1030A000C0DD0E9426980E94349082E090E00E9449
:1030B0008D9860932506709326068093270690933B
:1030C00028061F910F91FF90EF90DF90CF90BF9057
:1030D000AF909F908F9038CE80E1EDE0F6E0ADE1CB
:1030E000B6E001900D928A95E1F70895EF92FF9274
:1030F0000F931F93E0902506F09026060091270677
:103100001091280603DD1F910F91FF90EF90089515
:10311000EF92FF920F931F937B018C012091210668
:1031200030912206409123065091240660911D069D
:1031300070911E0680911F0690912006E7DC1F917A
:103140000F91FF90EF9008954F925F926F927F9250
:103150008F929F92AF92BF92CF92DF92EF92FF92A7
:103160000F931F93CF93DF9300D000D0CDB7DEB77E
:1031700069837A838B839C8329013A01C801B70153
:103180008501C6DF20E030E040EB51E4C301B2012D
:103190000E94F1AC9B01AC0169817A818B819C8199
:1031A000A5DFC0FC0E94DD0F19DF809025069090FE
:1031B0002606A0902706B0902806C1FC0E940710A2
:1031C000033011050CF448C0E1E3F5E08491882355
:1031D00041F09091C00095FFFCCF8093C6003196DE
:1031E000F5CF23E030E049815A816B817C8182E315
:1031F00093E00E94900FECE2F5E08491882341F087
:103200009091C00095FFFCCF8093C6003196F5CF1A
:1032100023E030E0B301A20182E393E00E94900F2B
:10322000E7E2F5E08491882341F09091C00095FF9A
:10323000FCCF8093C6003196F5CF23E030E0B50196
:10324000A40182E393E00E94900F8091C00085FF6B
:10325000FCCF8AE08093C600C501B4010F900F90A7
:103260000F900F90DF91CF911F910F91FF90EF90F2
:10327000DF90CF90BF90AF909F908F907F906F9096
:103280005F904F900895CF92DF92EF92FF920F934D
:103290001F93CF93DF93B0EBEB2EB2E0FB2E0DE04C
:1032A00016E0CDE1D6E081E7C82E84E0D82EF70104
:1032B00081917F0125DB8823C9F0E4DAF6012081C2
:1032C000211104C020914604222329F0288139814C
:1032D0004A815B8103C020E030E0A9010E94F1AC8B
:1032E000F801608371838283938309C08881998107
:1032F000AA81BB81F80180839183A283B3830C5F91
:103300001F4F2496FFEFCF1ADF0A84EBE81682E006
:10331000F80669F686E4F4DA882391F0B3DA6B01F3
:103320007C0120E030E0A9010E94CDAF181644F4E2
:10333000C0923001D0923101E0923201F09233011B
:10334000DF91CF911F910F91FF90EF90DF90CF9081
:103350000895EEE7FAE08491882341F09091C0004F
:1033600095FFFCCF8093C6003196F5CFEEECF7E0E9
:103370008491882341F09091C00095FFFCCF809309
:10338000C6003196F5CFE091FD05F091FE058191E3
:10339000882339F09091C00095FFFCCF8093C60040
:1033A000F6CFEBECF7E08491882341F09091C000D8
:1033B00095FFFCCF8093C6003196F5CF0895CF924C
:1033C000DF92EF92FF920E946CAA6B017C018091C8
:1033D0000E01882309F483C020911C0430911D0440
:1033E0002115310509F47BC08091180490911904CE
:1033F000A0911A04B0911B04B701A601481B590BF8
:103400006A0B7B0B77FD7EC02330310579F03CF4ED
:10341000213031050CF463C0EEE7FAE011C024302E
:10342000310509F05CC0EEE7FAE042C0EEE7FAE0F1
:1034300023C09091C00095FFFCCF8093C6003196C9
:1034400084918111F6CFEAEBF7E08491882341F073
:103450009091C00095FFFCCF8093C6003196F5CFC8
:103460008091C00085FFFCCF37C09091C00095FFD0
:10347000FCCF8093C600319684918111F6CFE4EAA7
:10348000F7E08491882341F09091C00095FFFCCF34
:103490008093C6003196F5CF8091C00085FFFCCFA8
:1034A0001BC09091C00095FFFCCF8093C600319661
:1034B00084918111F6CFEDE8F7E08491882341F003
:1034C0009091C00095FFFCCF8093C6003196F5CF58
:1034D0008091C00085FFFCCF8AE08093C6002091D8
:1034E0000E0130E0A8EEB3E00E94B3AC6C0D7D1D80
:1034F0008E1D9F1D609318047093190480931A0405
:1035000090931B04FF90EF90DF90CF900895E5E833
:10351000F7E02491222379F03091C00035FFFCCFF1
:103520002093C6003196F5CF3091C00035FFFCCF17
:103530002093C6000196FC0124912111F5CFEDE600
:10354000F7E08491882341F09091C00095FFFCCF73
:103550008093C6003196F5CF8091C00085FFFCCFE7
:103560008AE08093C60008958F929F92AF92BF9297
:10357000CF92DF92EF92FF920F931F93CF93DF933F
:1035800000D000D0CDB7DEB785E4BAD9B82E81110E
:1035900002C00E94269890EBC92E92E0D92E22E616
:1035A000E22E24E0F22E0DE116E0812C912CA12CCC
:1035B000F60181916F01A4D9882361F1F80120817E
:1035C00031814281538129833A834B835C835AD969
:1035D000F801608371838283938329813A814B81CF
:1035E0005C81F3E08F169104A9F00E94F0AC9B017E
:1035F000AC01F70160817181828193810E94F1ACFD
:10360000F7016083718382839383C4010E94970FC3
:10361000AA24A394FFEF8F1A9F0A84E0E80EF11CFE
:103620000C5F1F4FE4E08E16910409F0C1CFAA2071
:1036300089F00F900F900F900F90DF91CF911F9115
:103640000F91FF90EF90DF90CF90BF90AF909F9041
:103650008F907ACBBB20A1F089E296E00F900F907B
:103660000F900F90DF91CF911F910F91FF90EF90EE
:10367000DF90CF90BF90AF909F908F900C94447E3E
:103680000F900F900F900F90DF91CF911F910F919E
:10369000FF90EF90DF90CF90BF90AF909F908F9072
:1036A0000895E5E0F5E08491882341F09091C00011
:1036B00095FFFCCF8093C6003196F5CF8091C00076
:1036C00085FFFCCF8AE08093C60082E396E00E94EB
:1036D000E75AE7EFF4E08491882341F09091C0002D
:1036E00095FFFCCF8093C6003196F5CF8091C00046
:1036F00085FFFCCF8AE08093C6000895EF92FF9289
:103700000F931F93CF93DF93CDB7DEB76E970FB6AE
:10371000F894DEBF0FBECDBF87E294E00E9402990D
:10372000BC0180E090E02CE330E040E050E00E94FB
:103730006FAC7F936F933F932F9388EE94E09F93AA
:103740008F938E010F5F1F4F1F930F930E9411B530
:103750000FB6F894DEBF0FBECDBFEEE7FAE084915E
:10376000882341F09091C00095FFFCCF8093C60064
:103770003196F5CFF8018191882339F09091C000FE
:1037800095FFFCCF8093C600F6CF8091C00085FFE7
:10379000FCCF8AE08093C6008091C70F882329F16F
:1037A0001092C70FE0904704F12C8701000F111F02
:1037B00001531E4EF80160817181882777FD809545
:1037C000982F0E946CAE2091390130913A014091BE
:1037D0003B0150913C010E94CDAF181634F4F80122
:1037E00011821082C7010E94049D6E960FB6F89454
:1037F000DEBF0FBECDBFDF91CF911F910F91FF9024
:10380000EF9008951F93CF93DF9380913406811139
:103810000E942698C091FB05D091FC0561E270E002
:10382000CE010E94D9B4009711F0EC01219680E5F9
:1038300067D8882341F011E08091410490914204BF
:103840008C179D0708F010E080913506882391F1D0
:10385000212F41E0BE0182E396E00E94E15F83E513
:103860004FD8882339F080914104909142048C17FD
:103870009D0768F082E396E00E94585C11111AC01F
:1038800087E294E0DF91CF911F910C9429992BD876
:10389000AC01662757FD6095762F4093B008509392
:1038A000B1086093B2087093B3088FEF97E00E945D
:1038B000834EE0CFDF91CF911F9108950F931F9317
:1038C000CF93DF9383E51CD8882371F10CD88C014A
:1038D0008F3F910509F040F580E512D8882329F043
:1038E00002D8EC0197FD20C002C0CBE1D0E0EAE7AE
:1038F000F2E081919191C817D907B1F082E0E03BE5
:10390000F807B9F761E08C2F0E94B6AB602F8C2FBF
:103910000E94EFABB8018C2F0E941AAB249721F4C0
:103920001093490400934804DF91CF911F910F91A8
:103930000895CF92DF92EF92FF920F931F93CF9350
:10394000DF9388E690E00E94941481113EC080913C
:10395000310683FD3AC083E50E9480148823A9F1D3
:103960000E9442146B017C010091260410E0E801E2
:10397000CC0FDD1FC153DE4E0E9439AE79836883C0
:10398000C8010E94049D20E030E04AEA52E4C701E9
:10399000B6010E94CAAD181664F087E294E0DF9188
:1039A000CF911F910F91FF90EF90DF90CF900C94EB
:1039B000DC9887E294E0DF91CF911F910F91FF9007
:1039C000EF90DF90CF900C942999DF91CF911F91C8
:1039D0000F91FF90EF90DF90CF900895E9E6F7E028
:1039E0008491882341F09091C00095FFFCCF809393
:1039F000C6003196F5CFE091260484E0E89FF001FF
:103A00001124EB54FE4E408151816281738121E08B
:103A100030E082E393E00E94900FE6E6F7E08491C5
:103A2000882341F09091C00095FFFCCF8093C600A1
:103A30003196F5CFE0912604F0E0EE0FFF1FE15341
:103A4000FE4E60817181882777FD8095982F0E94B6
:103A50006CAEAB01BC0121E030E082E393E00E9458
:103A6000900FE2E6F7E08491882341F09091C00046
:103A700095FFFCCF8093C6003196F5CF8091260448
:103A800090E00E942B9A4AE050E0BC0182E393E070
:103A90000C94BE0E89E690E00E949414811115C02A
:103AA000EAE7F3E08491882341F09091C00095FF0C
:103AB000FCCF8093C6003196F5CF90DF8091C00097
:103AC00085FFFCCF8AE08093C600089583E50E94BD
:103AD0008014882319F00E94731401C080E0809341
:103AE0003106EEE7FAE08491882341F09091C0001E
:103AF00095FFFCCF8093C6003196F5CFE1ECF3E063
:103B00008491882341F09091C00095FFFCCF809371
:103B1000C6003196F5CF80913106811103C0E3EBE9
:103B2000F3E03BC027EB33E080E090E060E0ACE204
:103B30004091310650E0082E02C0559547950A94F1
:103B4000E2F740FF1AC071E0760F662331F0409132
:103B5000C00045FFFCCFA093C600F90145915491E8
:103B6000FA016491662351F0E091C000E5FFFCCFBB
:103B70006093C6004F5F5F4FF3CF762F01962E5FA5
:103B80003F4F8530910561F0672FD2CF9091C000F3
:103B900095FFFCCF8093C600319684918111F6CFBA
:103BA0008091C00085FFFCCF8AE08093C600089515
:103BB00083E50E948014811103C0EEE7FAE00FC094
:103BC0000E9473148D3308F08CE380930E010895E6
:103BD0009091C00095FFFCCF8093C60031968491F0
:103BE0008111F6CF40910E0150E060E070E08DE76A
:103BF00093E00E9477108091C00085FFFCCF8AE09F
:103C00008093C600089583E50E948014882399F06C
:103C10000E94421420E030E04AE754E40E949FB042
:103C20000E943EAE609314017093150180931601BB
:103C300090931701089588E50E948014811111C0A6
:103C400089E50E94801481110CC08AE50E948014CD
:103C5000811107C085E40E948014811102C00C9478
:103C6000A3980E94269888E50E948014882319F062
:103C70005E9A10920A0689E50E948014882319F042
:103C80005E9A10920B068AE50E948014882321F028
:103C9000159A10920C06089508953F924F925F92E4
:103CA0006F927F928F929F92AF92BF92CF92DF924C
:103CB000EF92FF920F931F93CF93DF9360EB862ECB
:103CC00062E0962EC8E0D0E178E1A72E70E1B72E31
:103CD00008EC1FE0312CF40181914F010E94801407
:103CE000882309F458C0F3E03F124FC00E944214E9
:103CF0006B017C0120E030E040EA51E40E94CAAD53
:103D000087FF3EC0A7019601688179818A819B81E6
:103D10000E94D1AD2B013C019B01AC016091DC0FF5
:103D20007091DD0F8091DE0F9091DF0F0E949FB0A8
:103D30006093DC0F7093DD0F8093DE0F9093DF0FA5
:103D4000A3019201F50160817181828193810E94BA
:103D50009FB0F5016083718382839383F801608152
:103D60007181828193810E946AAEA30192010E94B7
:103D70009FB00E943EAEF80160837183828393837B
:103D8000C882D982EA82FB8206C00E9442146883FC
:103D900079838A839B8333942496F4E0AF0EB11C1D
:103DA0000C5F1F4F84E0381296CFDF91CF911F91A7
:103DB0000F91FF90EF90DF90CF90BF90AF909F90CA
:103DC0008F907F906F905F904F903F9008958F926B
:103DD0009F92AF92BF92CF92DF92EF92FF92EAEB67
:103DE000F2E08491882341F09091C00095FFFCCFD0
:103DF0008093C6003196F5CF40911D0650911E0666
:103E000060911F067091200622E030E082E393E08B
:103E10000E94900FE6EBF2E08491882341F09091AC
:103E2000C00095FFFCCF8093C6003196F5CF40913E
:103E3000210650912206609123067091240622E00B
:103E400030E082E393E00E94900FE2EBF2E0849195
:103E5000882341F09091C00095FFFCCF8093C6006D
:103E60003196F5CF409125065091260660912706A0
:103E70007091280622E030E082E393E00E94900FE8
:103E8000EEEAF2E08491882341F09091C00095FF22
:103E9000FCCF8093C6003196F5CF40912906509112
:103EA0002A0660912B0670912C0622E030E082E316
:103EB00093E00E94900F8FB7F89440912C1050918E
:103EC0002D1060912E1070912F10809030109090D6
:103ED0003110A0903210B0903310C0903410D090B8
:103EE0003510E0903610F09037108FBFE3EAF2E023
:103EF0008491882341F09091C00095FFFCCF80937E
:103F0000C6003196F5CF2AE030E082E393E00E94CC
:103F10009B0EEFE9F2E08491882341F09091C0007C
:103F200095FFFCCF8093C6003196F5CF2AE030E0B4
:103F3000B501A40182E393E00E949B0EEBE9F2E05D
:103F40008491882341F09091C00095FFFCCF80932D
:103F5000C6003196F5CF2AE030E0B701A60182E332
:103F600093E00E949B0E8091C00085FFFCCF8AE009
:103F70008093C600FF90EF90DF90CF90BF90AF90FE
:103F80009F908F9008958F929F92AF92BF92CF9201
:103F9000DF92EF92FF920E94269881E491E00E94C6
:103FA00047A70E94181080E1EDE1F6E0ADE0B6E031
:103FB00001900D928A95E1F7109230011092310133
:103FC000109232011092330188E50E948014D82E9D
:103FD00089E50E948014E82E8AE50E948014F82E5C
:103FE000D11005C0E11007C091E0982705C0EE2070
:103FF00011F0982F01C090E09093110120E030E083
:1040000040EE50E4609125067091260680912706C7
:10401000909128060E94CAAD1816B4F140E050E015
:1040200060EE70E4409315065093160660931706F1
:104030007093180620E030E040E752E460912010D1
:104040007091211080912210909123100E949FB0B6
:10405000609330017093310180933201909333016A
:104060000E949B160E9426984091150650911606B4
:104070006091170670911806409325065093260606
:10408000609327067093280680911101811102C068
:10409000DD2021F080E090E00E94CF168091110198
:1040A000811102C0EE2021F081E090E00E94CF1645
:1040B00080911101882309F45BC00E94A41680E05E
:1040C00090E0ACECB2E480930D0690930E06A093C2
:1040D0000F06B093100680E090E0A8EFB2E4809362
:1040E000110690931206A0931306B09314068091C4
:1040F000250690912606A0912706B0912806809368
:10410000150690931606A0931706B093180680E044
:1041100090E0AAEFB5E48093300190933101A09331
:104120003201B09333010E949B160E942698809121
:104130000D0690910E06A0910F06B0911006809387
:104140001D0690931E06A0931F06B0932006809133
:10415000110690911206A0911306B0911406809357
:10416000210690932206A0932306B093240647C00D
:10417000FF2009F46AC080910706882309F463C010
:1041800080910806882309F45EC080901D069090F7
:104190001E06A0901F06B0902006C0902106D09069
:1041A0002206E0902306F090240620E030E0A901EA
:1041B000C501B4010E94CDAF87FD1EC020E030E0F4
:1041C0004DE453E4C501B4010E94CAAD1816A4F031
:1041D00020E030E040EB51E4C701B6010E94CDAFD2
:1041E00087FD0AC020E030E043E653E4C701B60192
:1041F0000E94CAAD18161CF4EEE7FAE00CC082E08B
:1042000090E00E94CF1621C09091C00095FFFCCF96
:104210008093C600319684918111F6CFE1E5F7E0F5
:104220008491882341F09091C00095FFFCCF80934A
:10423000C6003196F5CF8091C00085FFFCCF8AE0A3
:104240008093C60002C00E94E50F0E94A41680E081
:104250000E94279080912D0690912E06A0912F0606
:10426000B09130068093300190933101A0933201D8
:10427000B093330180916F049091700490932F015B
:1042800080932E010E940D100E943490FF90EF90B9
:10429000DF90CF90BF90AF909F908F9098CD0E946D
:1042A000DD0F0E9426980E94181080E090E0A0E7A1
:1042B000B3E48093300190933101A0933201B09325
:1042C00033010E94EE17EFE1F5E08491882341F07D
:1042D0009091C00095FFFCCF8093C6003196F5CF3A
:1042E00020E030E0A90160911D0670911E068091CA
:1042F0001F06909120060E94F1AC27E137EB41EDBB
:1043000058E30E94F1ACAB01BC0122E030E082E353
:1043100093E00E94900FEAE1F5E08491882341F058
:104320009091C00095FFFCCF8093C6003196F5CFE9
:1043300020E030E040EB51E46091210670912206CC
:1043400080912306909124060E94F0AC27E137EB80
:1043500041ED58E30E94F1ACAB01BC0122E030E03A
:1043600082E393E00E94900FE5E1F5E084918823D9
:1043700041F09091C00095FFFCCF8093C60031962C
:10438000F5CF27E137EB41ED58E3609125067091B9
:10439000260680912706909128060E94F1ACAB0179
:1043A000BC0122E030E082E393E00E94900F809114
:1043B000C00085FFFCCF8AE08093C6000E943A10BF
:1043C0000E94071004CD2F923F924F925F926F92FE
:1043D0007F928F929F92AF92BF92CF92DF92EF9295
:1043E000FF920F931F93CF93DF93CDB7DEB7CA5ED3
:1043F000D1090FB6F894DEBF0FBECDBF809107067E
:10440000882341F080910806882321F080910906D5
:1044100081111BC0C651DF4F0FB6F894DEBF0FBE2F
:10442000CDBFDF91CF911F910F91FF90EF90DF9063
:10443000CF90BF90AF909F908F907F906F905F9044
:104440004F903F902F900C94E50F86E50E948014CA
:104450008823D1F00E947314853070F0E3ECF4E00F
:104460008491882309F4C2C59091C00095FFFCCFC8
:104470008093C6003196F4CFC353DF4F8883CD5C61
:10448000D0401816A4F406C021E0C353DF4F2883A0
:10449000CD5CD040E3EAF4E08491882341F0909130
:1044A000C00095FFFCCF8093C6003196F5CF80E524
:1044B0000E9480148823B1F00E9473149CEF980F1F
:1044C0009F3210F4382E10C0EFE7F4E08491882377
:1044D00009F48CC59091C00095FFFCCF8093C60075
:1044E0003196F4CF9AE0392E80901D0690901E06EA
:1044F000A0901F06B0902006409021065090220602
:104500006090230670902406C0902506D090260661
:10451000E0902706F090280685E40E948014CC5194
:10452000DF4F8883C45ED04088E50E9480148823D2
:1045300021F10E944214C753DF4F688379838A8335
:104540009B83C95CD04020E030E0A9010E94CAAD45
:1045500087FD10C020E030E04DE453E4C753DF4F47
:10456000688179818A819B81C95CD0400E94CDAFEE
:10457000181694F48DE794E038C020E030E0A901EB
:10458000C501B4010E94F1ACC753DF4F6883798342
:104590008A839B83C95CD04089E50E94801488236C
:1045A00009F43EC00E944214C253DF4F68837983EE
:1045B0008A839B83CE5CD04020E030E0A9010E943A
:1045C000CAAD87FD10C020E030E047E353E4C2539A
:1045D000DF4F688179818A819B81CE5CD0400E94C7
:1045E000CDAF18166CF58BE794E0C651DF4F0FB6D0
:1045F000F894DEBF0FBECDBFDF91CF911F910F9119
:10460000FF90EF90DF90CF90BF90AF909F908F90F2
:104610007F906F905F904F903F902F900C94871AEF
:1046200020E030E040EB51E4C301B2010E94F0AC65
:10463000C253DF4F688379838A839B83CE5CD040EB
:104640008CE40E948014182F882301F10E947314B7
:10465000803170F0E8E4F4E08491882309F4C6C462
:104660009091C00095FFFCCF8093C6003196F4CFA7
:10467000CE52DF4F8883C25DD040813061F432E09A
:10468000CE52DF4F3883C25DD04005C0CE52DF4FDF
:104690001882C25DD04083E50E948014882349F0CF
:1046A000112369F081E0CA52DF4F8883C65DD04094
:1046B00012C0CA52DF4F1882C65DD0400CC091E0D4
:1046C000CA52DF4F9883C65DD040A7E0CE52DF4F7D
:1046D000A883C25DD040C353DF4FB881CD5CD040CA
:1046E000B330ECF420E030E040E751E4C701B6011C
:1046F0000E94F1AC6B017C0181E491E00E9447A72C
:1047000020E030E040EF51E4C701B6010E94CAAD9D
:1047100087FF12C0C701B6010E9488180DC0EEE2E3
:10472000F4E084918823F1F29091C00095FFFCCFD2
:104730008093C6003196F5CF20E030E040EB51E4A5
:10474000C253DF4F688179818A819B81CE5CD040E2
:104750000E94F1ACC852DF4F688379838A839B83C0
:10476000C85DD0409B01AC01C753DF4F68817981A0
:104770008A819B81C95CD0400E9476180E941810E3
:10478000C353DF4F2881CD5CD040332727FD3095C0
:10479000CC52DF4F39832883C45DD040CC51DF4FEA
:1047A0003881C45ED040332319F083E090E002C02A
:1047B00081E090E0CC52DF4FA880B980C45DD0404A
:1047C0006C01E12CF12C00E711E4C253DF4F28818A
:1047D00039814A815B81CE5CD040C753DF4F68810D
:1047E00079818A819B81C95CD0400E94A418A8016C
:1047F0009701609125067091260680912706909179
:1048000028060E94F1AC0E948818CD52DF4F188212
:10481000C35DD040C12CD12C760126013701832DF8
:10482000992787FD9095C052DF4F99838883C05E9A
:10483000D040CE52DF4FA881C25DD040BB27A7FD3C
:10484000B0951197CE51DF4FB983A883C25ED04097
:104850000197C751DF4F99838883C95ED040CD52FD
:10486000DF4FB881C35DD0402B2E312CC052DF4FBB
:1048700028813981C05ED040221633060CF047C330
:104880000E946CAA0E94D0A964EF71E080E090E0E1
:104890000E949BAACE52DF4FB881C25DD040B111B9
:1048A00029C0C852DF4F288139814A815B81C85DA8
:1048B000D040C753DF4F688179818A819B81C95C71
:1048C000D0400E9476184101880C991C880C991CD4
:1048D000CC51DF4F2881C45ED040222309F4D3C1DC
:1048E000CC52DF4FA880B980C45DD040A3E0CA2E6F
:1048F000D12CDEC128E631E040E050E060E070E01D
:10490000CB010E94F9A90E946CAE6B017C012AE0E8
:1049100030E040E050E060E070E0CB010E94F9A997
:104920000E946CAE20E030E040EA50E40E94CDAF3F
:1049300018161CF40FEF1FEF02C001E010E029E190
:1049400030E040E050E065E070E080E090E00E9400
:10495000F9A90E946CAEC452DF4F688379838A83C1
:104960009B83CC5DD040C353DF4F3881CD5CD040BA
:1049700034309CF1AB01BC018CE194E00E946610E4
:10498000B701A60181E194E00E94661064E670E040
:1049900080E090E00E949BAA0130110519F0E8EB3D
:1049A000F1E012C0E0EDF1E08191882381F0909177
:1049B000C00095FFFCCF8093C600F6CF9091C00059
:1049C00095FFFCCF8093C60081918111F7CF64E6FB
:1049D00070E080E090E00E949BAAC952DF4F1882ED
:1049E000C75DD040C801AA2797FDA095BA2FCB512B
:1049F000DF4F88839983AA83BB83C55ED040C952A9
:104A0000DF4F3881C75DD040832F90E0CE51DF4F1C
:104A1000A881B981C25ED0408A179B070CF041CFB4
:104A2000CA52DF4F9881C65DD040992399F0CB518F
:104A3000DF4F688179818A819B81C55ED0400E9469
:104A40006CAE9B01AC010E94F1AC20E030E040E98B
:104A500052E420C02DE230E040E050E069E170E037
:104A600080E090E00E94F9A92B013C01CB51DF4F7F
:104A7000688179818A819B81C55ED0400E946CAE3D
:104A80004B015C01C301B2010E946CAE9B01AC0101
:104A9000C501B4010E949FB09B01AC01C701B601E2
:104AA0000E94F1AC6B017C0120E030E044EB53E468
:104AB0000E94CDAF18164CF420E030E044EB53E4F4
:104AC000C701B6010E94F0ACEDCF20E030E0A901B3
:104AD000C701B6010E94CAAD87FF0BC020E030E0DD
:104AE00044EB53E4C701B6010E94F1AC6B017C01B9
:104AF000ECCF2BED3FE049E450E4C701B6010E9442
:104B00009FB020E030E044E353E40E94D1AD2B019C
:104B10003C010E94CEADC452DF4F288139814A81C9
:104B20005B81CC5DD0400E949FB09B01AC01C7531C
:104B3000DF4F688179818A819B81C95CD0400E9466
:104B4000F1AC4B015C01C301B2010E9402B1C4523D
:104B5000DF4F288139814A815B81CC5DD0400E9442
:104B60009FB09B01AC01C852DF4F688179818A8177
:104B70009B81C85DD0400E94F1AC2B013C0120E03C
:104B800030E0A901C501B4010E94CAAD87FD11C082
:104B900020E030E04DE453E4C501B4010E94CDAF04
:104BA000181654F4812C912C1DE4A12E13E4B12E7F
:104BB00003C0812C912C540120E030E0A901C301F5
:104BC000B2010E94CAAD87FD11C020E030E04DE483
:104BD00053E4C301B2010E94CDAF181654F4412C26
:104BE000512CBDE46B2EB3E47B2E03C0412C512C21
:104BF0003201C353DF4FA881CD5CD040A4308CF18B
:104C0000E0EFF1E08191882339F09091C00095FFA9
:104C1000FCCF8093C600F6CFB501A4018DE094E0EF
:104C20000E946610B301A20189E094E00E94661020
:104C3000409125065091260660912706709128061E
:104C400083E094E00E9466108091C00085FFFCCF55
:104C5000BAE0B093C60067E370E080E090E00E94A5
:104C60009BAAA3019201C501B4010E947618C95202
:104C7000DF4F2881C75DD0402F5FC952DF4F2883A7
:104C8000C75DD040BCCEC751DF4F28813981C95E96
:104C9000D040CC52DF4FA880B980C45DD0402216EE
:104CA000330621F4F2E0CF2ED12C02C0C12CD12C3E
:104CB000E12CF12C00E711E4C253DF4F2881398148
:104CC0004A815B81CE5CD040C753DF4F68817981D8
:104CD0008A819B81C95CD0400E94A418E1E0F0E089
:104CE000EC0FFD1FE80DF91D6083718382839383B0
:104CF00010E0C12CD12C7601E1E0F0E0EC0FFD1FBB
:104D000034E0139FE00DF11D112420813181428197
:104D10005381C701B6010E94F1AC6B017C011F5F9A
:104D2000CD52DF4F8881C35DD040811728F79FEFB8
:104D3000291A390AB101882777FD8095982F0E949A
:104D40006CAE4B015C019B01AC01C701B6010E9436
:104D5000D1AD2B013C0110E0C12CD12C7601E1E05A
:104D6000F0E0EC0FFD1FA4E01A9FE00DF11D1124EF
:104D7000A301920160817181828193810E94F0ACD4
:104D80009B01AC010E949FB09B01AC01C701B60121
:104D90000E94F1AC6B017C011F5FCD52DF4FB881E7
:104DA000C35DD040B117D8F6A50194010E94D1ADE2
:104DB0000E940CB16B017C01C353DF4F2881CD5C95
:104DC000D04022300CF473C04AE050E0B10182E3DD
:104DD00093E00E94BE0EEEEFF3E08491882341F051
:104DE0009091C00095FFFCCF8093C6003196F5CF1F
:104DF0004AE050E0C052DF4F68817981C05ED04008
:104E000082E393E00E94BE0EE7EFF3E084918823F3
:104E100041F09091C00095FFFCCF8093C600319681
:104E2000F5CF409125065091260660912706709196
:104E3000280626E030E082E393E00E94900F62E3D0
:104E400070E080E090E00E949BAAC353DF4F38815E
:104E5000CD5CD040323091F1EFEEF3E084918823C5
:104E600041F09091C00095FFFCCF8093C600319631
:104E7000F5CF26E030E0B301A20182E393E00E9487
:104E8000900FE4EEF3E08491882341F09091C0000C
:104E900095FFFCCF8093C6003196F5CF26E030E039
:104EA000B701A60182E393E00E94900F07C0C353AD
:104EB000DF4F8881CD5CD040813039F48091C000D3
:104EC00085FFFCCF9AE09093C60062E370E080E03B
:104ED00090E00E949BAA20E030E040EA50E460911C
:104EE00025067091260680912706909128060E943B
:104EF000F1AC0E948818CD52DF4FA881C35DD0402D
:104F0000AF5FCD52DF4FA883C35DD040A8CCC35361
:104F1000DF4F3881CD5CD040131614F5EDEDF3E092
:104F20008491882341F09091C00095FFFCCF80933D
:104F3000C6003196F5CF26E030E0B301A20182E34E
:104F400093E00E94900F8091C00085FFFCCF8AE023
:104F50008093C60069E170E080E090E00E949BAA27
:104F6000E8ECF3E08491882341F09091C00095FF34
:104F7000FCCF8093C6003196F5CF26E030E0B70134
:104F8000A60182E393E00E94900F8091C00085FF0C
:104F9000FCCF8AE08093C6008091C00085FFFCCFE3
:104FA0008AE08093C60069E170E080E090E00E94B2
:104FB0009BAA0E943A10C651DF4F0FB6F894DEBF8D
:104FC0000FBECDBFDF91CF911F910F91FF90EF905A
:104FD000DF90CF90BF90AF909F908F907F906F9019
:104FE0005F904F903F902F900C94E71EC651DF4F7B
:104FF0000FB6F894DEBF0FBECDBFDF91CF911F91EA
:105000000F91FF90EF90DF90CF90BF90AF909F9067
:105010008F907F906F905F904F903F902F9008956A
:10502000E9E0F2E08191882339F09091C00095FF8A
:10503000FCCF8093C600F6CF8091C00085FFFCCFE7
:105040008AE08093C600E3E9F2E08491882341F08E
:105050009091C00095FFFCCF8093C6003196F5CFAC
:10506000329B03C0EAEFF1E009C0E4E0F2E006C0E1
:105070009091C00095FFFCCF8093C6008191811173
:10508000F7CF8091C00085FFFCCF8AE08093C600F7
:10509000EBE8F2E08491882341F09091C00095FF05
:1050A000FCCF8093C6003196F5CF339B03C0EAEF67
:1050B000F1E009C0E4E0F2E006C09091C00095FF85
:1050C000FCCF8093C60081918111F7CF8091C00001
:1050D00085FFFCCF8AE08093C600E3E8F2E084918C
:1050E000882341F09091C00095FFFCCF8093C600CB
:1050F0003196F5CF349B03C0EAEFF1E009C0E4E05C
:10510000F2E006C09091C00095FFFCCF8093C600EE
:1051100081918111F7CF8091C00085FFFCCF8AE09B
:105120008093C600089583E50E9480148823F9F0D7
:105130000E944214AB01BC014093F00F5093F10F59
:105140006093F20F7093F30F4093E80F5093E90FC1
:105150006093EA0F7093EB0F8BE592E00E9466106C
:105160008091C00085FFFCCF8AE08093C60080E577
:105170000E9480148823B9F00E944214AB01BC0144
:105180004093F00F5093F10F6093F20F7093F30F71
:105190008EE392E00E9466108091C00085FFFCCFF4
:1051A0008AE08093C60082E50E9480148823B9F0CB
:1051B0000E944214AB01BC014093EC0F5093ED0FE1
:1051C0006093EE0F7093EF0F8FE192E00E946610F4
:1051D0008091C00085FFFCCF8AE08093C60084E503
:1051E0000E9480148823B9F00E944214AB01BC01D4
:1051F0004093E80F5093E90F6093EA0F7093EB0F21
:1052000081E092E00E9466108091C00085FFFCCF93
:105210008AE08093C600089583E50E948014882365
:1052200051F00E9442146093F40F7093F50F809335
:10523000F60F9093F70F84E50E948014882351F0B5
:105240000E9442146093D80F7093D90F8093DA0FA5
:105250009093DB0F82E40E948014882361F00E9407
:1052600042140E943EAE60932810709329108093E0
:105270002A1090932B1088E50E948014882351F007
:105280000E9442146093E40F7093E50F8093E60F41
:105290009093E70F8AE50E948014882351F00E94C2
:1052A00042146093E00F7093E10F8093E20F9093AC
:1052B000E30F85E40E948014882351F00E94421479
:1052C0006093DC0F7093DD0F8093DE0F9093DF0F00
:1052D00008958F929F92AF92BF92CF92DF92EF92FA
:1052E000FF920F931F93CF93DF9320EBC22E22E008
:1052F000D22E3DE1E32E36E0F32E06E514E0C0E0C9
:10530000D0E0F60181916F010E948014882309F199
:105310000E9442144B015C01F801208131814281DD
:1053200053810E94F0AC9B01AC01F7016081718157
:10533000828193810E94F1ACF70160837183828343
:105340009383F80180829182A282B382CE010E946F
:10535000970F2196F4E0EF0EF11C0C5F1F4FC33046
:10536000D10579F6DF91CF911F910F91FF90EF90CA
:10537000DF90CF90BF90AF909F908F900C94A41629
:1053800085E40E948014811110C080E50E94801481
:105390008823A9F00E94421460937E0170937F01DC
:1053A00080938001909381010AC00E9442140E9460
:1053B00039AE161617064CF7E4E8FAE0D5C089E4D2
:1053C0000E948014882361F00E9442140E9450A51C
:1053D00060937A0170937B0180937C0190937D01AF
:1053E00084E40E948014882361F00E9442140E9489
:1053F0005CA5609376017093770180937801909318
:10540000790183E40E948014882351F00E944214A1
:10541000609372017093730180937401909375018E
:105420008CE40E948014882341F00E9442140E9460
:1054300039AE7093100160930F0180910F0190912C
:105440001001C39734F082E390E0909310018093B1
:105450000F010E940C9AEEE7FAE08491882341F054
:105460009091C00095FFFCCF8093C6003196F5CF98
:10547000E2E2F2E08191882339F09091C00095FF3B
:10548000FCCF8093C600F6CF40917E0150917F0102
:10549000609180017091810122E030E082E393E02D
:1054A0000E94900FE6E2F2E08191882339F090911A
:1054B000C00095FFFCCF8093C600F6CF60917A01C3
:1054C00070917B0180917C0190917D010E9456A595
:1054D000AB01BC0122E030E082E393E00E94900F38
:1054E000EAE2F2E08191882339F09091C00095FFC3
:1054F000FCCF8093C600F6CF609176017091770162
:1055000080917801909179010E9462A5AB01BC0164
:1055100022E030E082E393E00E94900FEEE2F2E0BE
:105520008191882339F09091C00095FFFCCF809342
:10553000C600F6CF409172015091730160917401E1
:105540007091750122E030E082E393E00E94900FB9
:105550008091C00085FFFCCF1AC09091C00095FFDC
:10556000FCCF8093C600319684918111F6CFE2E39F
:10557000F2E08191882339F09091C00095FFFCCF33
:105580008093C600F6CF8091C00085FFFCCF8AE0F3
:105590008093C6000895EF92FF920F93CF93DF930D
:1055A00085E40E948014882321F00E947314EC018A
:1055B00002C0C0E0D0E083E40E948014882321F080
:1055C0000E9473147C0103C045E0E42EF12C85E5B4
:1055D0000E948014882329F00E94731401E0892B13
:1055E00009F400E083E50E948014882319F00E94EA
:1055F000421406C0D7FD09C060E070E086E193E484
:10560000209739F41092260404C060E070E08CE822
:1056100092E410921D0410921C049701AE010E94A6
:10562000B99F81E090E090931D0480931C04DF916A
:10563000CF910F91FF90EF9008952F923F924F924C
:105640005F926F927F928F929F92AF92BF92CF9212
:10565000DF92EF92FF920F931F93CF93DF9300D0CF
:1056600000D000D0CDB7DEB787E096E09C838B8377
:10567000E6E5F4E0FA83E9830DE116E01E821D827F
:10568000212C312CEB81FC818191FC83EB838823DD
:1056900009F4ADC0ED81FE81E85EFE4F20813181CD
:1056A00042815381ED81FE81E65BFB4F6081718118
:1056B000828193810E94F1AC20E030E040E05FE322
:1056C0000E949FB09B01AC01F801608171818281D1
:1056D00093810E94CDAF18164CF48D819E81865A1D
:1056E000954F0E94910F9B01AC0103C020E030E078
:1056F000A901F80180809180A280B380C501B40126
:105700000E94F0AC6B017C0120E030E040EA51ECFB
:105710000E94CDAF18161CF0E4E8FAE038C020E093
:1057200030E040EA51E4C701B6010E94CAAD87FFEC
:10573000F3CFE981FA814080518062807380A701B4
:105740009601C301B2010E94F0AC6B017C01A30180
:1057500092010E94F0AC9B01AC01C501B4010E9412
:10576000F1ACF8016083718382839383E981FA81CC
:10577000C082D182E282F382C1010E94970F37C0BA
:105780009091C00095FFFCCF8093C6003196849124
:105790008111F6CFE4EEF1E08491882341F09091FD
:1057A000C00095FFFCCF8093C6003196F5CF809165
:1057B000C00085FFFCCF8AE08093C60026960FB616
:1057C000F894DEBF0FBECDBFDF91CF911F910F9137
:1057D000FF90EF90DF90CF90BF90AF909F908F9011
:1057E0007F906F905F904F903F902F900895FFEFC4
:1057F0002F1A3F0A89819A8104969A838983ED81C1
:10580000FE813496FE83ED830C5F1F4FF3E02F166D
:10581000310409F037CF26960FB6F894DEBF0FBEDD
:10582000CDBFDF91CF911F910F91FF90EF90DF904F
:10583000CF90BF90AF909F908F907F906F905F9030
:105840004F903F902F900C94A416CF92DF92EF923E
:10585000FF92EEE7FAE08491882341F09091C00036
:1058600095FFFCCF8093C6003196F5CFEBEDF1E0CC
:105870008491882341F09091C00095FFFCCF8093E4
:10588000C6003196F5CF8091C00085FFFCCF80E245
:105890008093C6008AE50E948014882309F452C0D0
:1058A0000E9442146B017C0120E030E040EA51ECA0
:1058B0000E94CDAF87FD0AC020E030E040EA51E40D
:1058C000C701B6010E94CAAD18161CF4E3EDF1E061
:1058D00018C0C0922204D0922304E0922404F092D3
:1058E000250422E030E0B701A60182E393E00E94A4
:1058F000900F34C09091C00095FFFCCF8093C600FC
:10590000319684918111F6CF4AE050E06CEE7FEF42
:1059100082E393E00E94BE0EEBECF1E084918823D9
:1059200041F09091C00095FFFCCF8093C600319666
:10593000F5CF4AE050E064E170E082E393E00E943A
:10594000BE0E0CC0409122045091230460912404A7
:105950007091250488EC91E00E9466108091C0004F
:1059600085FFFCCF8AE08093C600FF90EF90DF9028
:10597000CF900895E091470484E0E89FF00111245E
:10598000EB54FE4E20910A0130910B0140910C0125
:1059900050910D0160817181828193810E94CAAD15
:1059A00087FF23C0E4E8FAE08491882341F09091D6
:1059B000C00095FFFCCF8093C6003196F5CFE6E896
:1059C000F1E08491882341F09091C00095FFFCCFD5
:1059D0008093C6003196F5CF8091C00085FFFCCF43
:1059E0008AE08093C60081E0089580E00895CF9218
:1059F000DF92EF92FF92882361F1EEE7FAE0949153
:105A0000992341F02091C00025FFFCCF9093C60060
:105A10003196F5CF9091C00095FFFCCF94E590931F
:105A2000C6004AE050E0682F82E393E00E94F50E42
:105A3000E2E3F2E08191882339F09091C00095FF74
:105A4000FCCF8093C600F6CF8091C00085FFFCCFCD
:105A500040C01092260486E40E948014882399F0A6
:105A60000E9442146B017C0120E030E0A9010E94F9
:105A7000CDAF181644F4C0923001D0923101E092BB
:105A80003201F0923301EEE7FAE08491882341F08D
:105A90009091C00095FFFCCF8093C6003196F5CF62
:105AA000E3E4F2E08191882339F09091C00095FF02
:105AB000FCCF8093C600F6CF6091470470E04AE0C7
:105AC00050E082E393E00E94BE0E8091C00085FF0B
:105AD000FCCF8AE08093C600FF90EF90DF90CF90DC
