:100000000C94DF000C9407010C9407010C94AF04CE
:100010000C94AF040C94AF040C9407010C940701EA
:100020000C9407010C9407010C9407010C94070130
:100030000C9407010C9407010C9407010C94070120
:100040000C942A070C9407010C9407010C940701E7
:100050000C9407010C9407010C9407010C94070100
:100060000C9484030C940701000000002400270076
:100070002A0000000008000201000003040700003D
:1000800000000000000000000000250028002B00F8
:1000900000000000230026002900040404040404D6
:1000A0000404020202020202030303030303010227
:1000B00004081020408001020408102001020408F6
:1000C000102000407A10F35A00A0724E1809001058
:1000D000A5D4E80000E87648170000E40B540200BD
:1000E00000CA9A3B000000E1F505000080969800E8
:1000F000000040420F000000A08601000000102711
:1001000000000000E80300000000640000000000A0
:100110000A00000000000100000000002C76D888D2
:10012000DC674F0823DFC1DFAE59E1B1B796E5E3E5
:10013000E453C63AE651997696E8E6C28426EB89FE
:100140008C9B62ED407C6FFCEFBC9C9F40F2BAA59B
:100150006FA5F490055A2AF75C936B6CF9676DC133
:100160001BFCE0E40D47FEF520E6B500D0ED902E37
:100170000300943577050080841E080000204E0A95
:10018000000000C80C333333330F986E12831141D3
:10019000EF8D2114893BE65516CFFEE6DB18D1849E
:1001A0004B381BF77C1D901DA4BBE42420328472C5
:1001B0005E228100C9F124ECA1E53D27BE0E112489
:1001C0001FBECFEFD8E0DEBFCDBF11E0A0E0B1E0B1
:1001D000EEE6FCE202C005900D92AA34B107D9F711
:1001E00022E0AAE4B1E001C01D92AB36B207E1F70C
:1001F00010E0CFEDD0E004C02197FE010E94250F52
:10020000CE3DD107C9F70E94310C0C9435160C94E1
:10021000000085ED8093BC008091BC0084FDFCCF84
:100220001092160208952091EE013091EF012817E7
:10023000390781F49091EC018091ED01981751F00C
:10024000E091EC01F0E0EB59FE4F8081082E000CAC
:10025000990B08958FEF9FEF08952091EE01309153
:10026000EF012817390739F48FB7F8941092ED0190
:100270001092EC018FBF08951F93CF93DF93DC01A1
:100280005C962D913C915D972115310539F481E003
:1002900090E013969C938E9312973DC05196ED91EA
:1002A000FC91529750969C915097892F80951FB73B
:1002B0005E964C915E9741FB772770F941FD609502
:1002C000F8944081772311F0492B01C048234083E3
:1002D000E9012197F1F748E0508160FF02C0592BF6
:1002E00001C058235083E9012197F1F766954150E9
:1002F00099F7772321F090818923808303C080813F
:10030000982B90831FBF5C968D919C915D97019770
:10031000F1F721E030E0C901DF91CF911F910895FD
:100320002091EE013091EF012817390771F4809187
:10033000ED012091EC0190E0805C9F4F821B9109C0
:1003400060E470E00E94FD0E089580E090E0089562
:100350002091EE013091EF0128173907B9F49091FF
:10036000EC018091ED01981789F0E091EC01F0E04B
:10037000EB59FE4F80812091EC0130E02F5F3F4F21
:100380002F7333272093EC0190E008958FEF9FEFB8
:1003900008953FB7F8948091610190916201A09116
:1003A0006301B091640126B5A89B05C02F3F19F0E9
:1003B0000196A11DB11D3FBFBA2FA92F982F8827E5
:1003C000820F911DA11DB11DBC01CD0142E0660F40
:1003D000771F881F991F4A95D1F70895089581E0E6
:1003E00090E030915B0120915A01321710F480E0C7
:1003F00090E0919581959109089580915B0190918C
:100400005A01891730F48F5F80935B0180E090E0A0
:1004100008958FEF9FEF089580915A0190E0209109
:100420005B01821B91090895CF92DF92EF92FF92B8
:100430000F931F93CF93DF937C018A018091170262
:10044000882389F0EB016B01C40ED51ECC15DD05A8
:10045000F1F06991D701ED91FC910190F081E02DCF
:10046000C7010995F3CF842F413288F49091160289
:10047000943069F44093C701FB0125EA31E0D901CA
:100480009A2F921B981718F491919D93F9CFC80158
:10049000DF91CF911F910F91FF90EF90DF90CF9060
:1004A0000895209117022223C9F0209139022032A9
:1004B00040F021E030E0FC013383228380E090E0D3
:1004C000089580911802E82FF0E0E75EFD4F608309
:1004D0008F5F809318028093390209C080911602C1
:1004E000843029F481E08093C7016093A50181E005
:1004F00090E00895CF92DF92EF92FF920F931F93B7
:10050000CF93DF936C017A018B01C0E0D0E0CE1570
:10051000DF0589F0D8016D918D01D601ED91FC9137
:100520000190F081E02DC6010995892B11F47E011F
:1005300002C02196ECCFC701DF91CF911F910F919F
:10054000FF90EF90DF90CF900895CF92DF92EF92DF
:10055000FF92CF930E943A0B8823D1F180915A02E7
:100560008B3029F0A8F18551823048F031C060917C
:10057000560270E080E090E00E94DF142DC0C09130
:1005800056026C2F6F7770E080E090E00E94E114DB
:1005900020E030E040E853E40E9440156B017C010C
:1005A00080915702682F70E080E090E00E94E11493
:1005B0009B01AC01C701B6010E942C0F2DEC3CEC55
:1005C0004CEC5DE30E944015C7FF06C0905804C084
:1005D00060E070E080EC9FE7CF91FF90EF90DF90BC
:1005E000CF900895CF92DF92EF92FF920E943A0B44
:1005F0008823A1F180915A028B3041F178F1855125
:10060000823060F56091540270E080E090E00E94DA
:10061000DF1420E030E040E853E40E9440156B0115
:100620007C0180915502682F70E080E090E00E948C
:10063000E1149B01AC01C701B6010E942C0F2DEC07
:100640003CEC4CEC5DE30E9440150CC06091540200
:1006500070E080E090E00E94DF1404C060E070E091
:1006600080EC9FE7FF90EF90DF90CF9008950E947D
:10067000C5110F931F93CF93DF93EC01888199816C
:10068000009729F02A813B812617370788F48B01D0
:100690006F5F7F4F0E94FB10009761F09983888302
:1006A0001B830A832C813D81232B11F4FC011082D2
:1006B00081E001C080E0DF91CF911F910F910895FB
:1006C000CF93DF9300D0CDB7DEB790E899838A83CC
:1006D000CE0101960E94C9080F900F90DF91CF9133
:1006E0000895CF93DF9300D0CDB7DEB780E4898340
:1006F0006A83CE0101960E94C90881E090E00F90C4
:100700000F90DF91CF9108951F920F920FB60F9225
:1007100011242F933F934F935F936F937F938F9306
:100720009F93AF93BF93EF93FF938091B900887F1E
:10073000803609F49CC068F5883209F45BC090F4F7
:10074000803109F454C038F4882309F4F3C08830A8
:1007500009F44DC0F3C0883109F44CC0803209F46B
:100760005DC0ECC0803409F468C048F4803309F4FB
:1007700055C0883309F0E2C080931402D5C080359B
:1007800009F44FC0883509F45DC0883409F0D6C03B
:10079000D3C0883909F4C4C0A8F4883709F467C005
:1007A00038F4883609F463C0803709F460C0C6C0E5
:1007B000883809F4B5C0803909F45FC0803809F081
:1007C000BDC05BC0803B09F483C038F4803A09F4B3
:1007D00066C0883A09F47CC0B1C0803C09F4A4C06A
:1007E000883C09F4A1C0883B09F487C0A7C0809168
:1007F000F10110C09091130280911202981770F5C8
:10080000E091130281E08E0F80931302F0E0EE502E
:10081000FE4F80818093BB0085EC83C080931402DF
:100820008BC0E091130281E08E0F809313028091C0
:10083000BB00F0E0EE50FE4F808390911302809158
:1008400012026BC0E091130281E08E0F80931302BD
:100850008091BB00F0E0EE50FE4F80838091150246
:1008600081116AC081E08093F00184EA5EC083E078
:10087000809316021092EB01CFCF8091EB01803272
:1008800008F04EC0E091EB0181E08E0F8093EB0108
:100890008091BB00F0E0E553FE4F8083BDCF809197
:1008A000EB01803230F4E091EB01F0E0E553FE4FD4
:1008B00010820E9409016091EB0170E0E091C90192
:1008C000F091CA018BEC91E009951092EB012CC0DC
:1008D00084E0809316021092C8011092C701E09143
:1008E000C501F091C60109958091C701811105C02C
:1008F00081E08093C7011092A501E091C80181E0D9
:100900008E0F8093C801F0E0EB55FE4F80818093FD
:10091000BB009091C8018091C701981708F47CCF63
:1009200085E88093BC000AC085EC8093BC001092DF
:10093000160204C0109214020E940901FF91EF9167
:10094000BF91AF919F918F917F916F915F914F91E7
:100950003F912F910F900FBE0F901F9018951F92EF
:100960000F920FB60F9211242F933F934F935F93E3
:100970006F937F938F939F93AF93BF93EF93FF9367
:10098000E091EE01F091EF01309709F451C0968D9E
:10099000A685B785858591FF04C09C91892329F49C
:1009A00047C09C91892309F043C0A389B4899C91D5
:1009B0008589809589238C93868997890197F1F79A
:1009C000608D718DA685B785558538E020E0CB0117
:1009D0000197F1F7822F90E095958795282F4C91FC
:1009E000452309F02068315091F7868D81FD2095CF
:1009F0008091ED0190E001968F7399273091EC0181
:100A0000381749F0A091ED01B0E0AB59BE4F2C93DF
:100A10008093ED0103C0868D8160868F828D938DDA
:100A20000197F1F7A389B4899C918589892B8C93CF
:100A3000FF91EF91BF91AF919F918F917F916F91B6
:100A40005F914F913F912F910F900FBE0F901F908C
:100A50001895EF92FF920F931F93CF93DF93FC01B2
:100A6000248135816115710511F480E019C04115AB
:100A70005105A9F07B01EC018A01020F131FB80197
:100A80000E943903882389F3288139818C819D81D3
:100A9000B701820F931F0E94DC111D830C8381E03C
:100AA000DF91CF911F910F91FF90EF900895CF9319
:100AB000DF93EC0188819981009711F00E94631007
:100AC000198218821D821C821B821A82DF91CF91AB
:100AD0000895EF92FF920F931F93CF93DF93CDB7BB
:100AE000DEB764970FB6F894DEBF0FBECDBF7C01B2
:100AF000CB01BA018E010F5F1F4F22E044E00E943C
:100B0000E311FC0101900020E9F73197AF01481B88
:100B1000590BBC01C7010E942905811103C0C701FF
:100B20000E945705C70164960FB6F894DEBF0FBE4A
:100B3000CDBFDF91CF911F910F91FF90EF9008955E
:100B4000EF92FF920F931F93CF93DF93CDB7DEB752
:100B500064970FB6F894DEBF0FBECDBF7C01CB010A
:100B6000BA018E010F5F1F4F22E044E00E94E311A3
:100B7000FC0101900020E9F73197AF01481B590BA8
:100B8000BC01C7010E942905811103C0C7010E9451
:100B90005705C70164960FB6F894DEBF0FBECDBFF0
:100BA000DF91CF911F910F91FF90EF900895EF92F9
:100BB000FF920F931F93CF93DF93EC017B018A0188
:100BC000BA010E943903811104C0CE010E94570569
:100BD00007C01D830C83B701888199810E94DC11B5
:100BE000CE01DF91CF911F910F91FF90EF9008956B
:100BF000FC01808191810C946310FB01DC01119652
:100C00001C921E9213961C921E92129715961C927D
:100C10001E9214978617970749F0608171816115BC
:100C2000710521F0448155810C94D7050895FC018C
:100C3000118210821382128215821482611571054D
:100C400051F0FB0101900020E9F73197AF01461BFD
:100C5000570B0C94D705089590E0FC01EE58FF4F18
:100C60003491FC01E255FF4F2491FC01E656FF4F01
:100C7000E491EE2309F43BC0332339F1333091F092
:100C800038F43130A9F0323001F584B58F7D12C0CF
:100C9000373091F03830A1F03430B9F480918000D1
:100CA0008F7D03C0809180008F77809380000DC07E
:100CB00084B58F7784BD09C08091B0008F7703C061
:100CC0008091B0008F7D8093B000F0E0EE0FFF1FA9
:100CD000EA57FF4FA591B4918FB7F894EC91611149
:100CE00003C020952E2301C02E2B2C938FBF089577
:100CF000CF93DF9390E0FC01E255FF4F2491FC017C
:100D0000E656FF4F8491882361F190E0880F991F88
:100D1000FC01E859FF4FC591D491FC01EA57FF4F00
:100D2000A591B491611109C09FB7F894888120956D
:100D300082238883EC912E230BC0623061F49FB72D
:100D4000F8943881822F809583238883EC912E2B11
:100D50002C939FBF06C08FB7F894E8812E2B288371
:100D60008FBFDF91CF9108958F929F92AF92BF92E4
:100D7000CF92DF92EF92FF926B017C010E94C9013A
:100D80004B015C01C114D104E104F104F1F00E94B3
:100D9000C901DC01CB0188199909AA09BB09883E60
:100DA0009340A105B10570F321E0C21AD108E10812
:100DB000F10888EE880E83E0981EA11CB11CC114B6
:100DC000D104E104F10419F7DDCFFF90EF90DF903B
:100DD000CF90BF90AF909F908F9008952FB7F894C9
:100DE00060915D0170915E0180915F019091600161
:100DF0002FBF08950F931F93CF93DF93EC010E94B1
:100E0000EE06688779878A879B87E881F981068063
:100E1000F781E02DCE01099597FF17C00E94EE06DD
:100E2000088519852A853B85DC01CB01801B910B48
:100E3000A20BB30B0C811D812E813F81801791077E
:100E4000A207B30710F38FEF9FEFDF91CF911F91B0
:100E50000F9108951F920F920FB60F9211242F93A6
:100E60003F938F939F93AF93BF9380915D01909138
:100E70005E01A0915F01B091600130915C0123E0BF
:100E8000230F2D3720F40196A11DB11D05C026E8C2
:100E9000230F0296A11DB11D20935C0180935D017B
:100EA00090935E01A0935F01B09360018091610116
:100EB00090916201A0916301B09164010196A11D1E
:100EC000B11D8093610190936201A0936301B0937F
:100ED0006401BF91AF919F918F913F912F910F909E
:100EE0000FBE0F901F901895CF92DF92EF92FF9256
:100EF0000F931F93CF93DF93CDB7DEB762970FB6F3
:100F0000F894DEBF0FBECDBF8C016B017A01BC012E
:100F1000CE0107960E94FD0540E050E0BE01695FEA
:100F20007F4FCE0101960E94110ACE0107960E94C2
:100F3000F8052D813E81F6018481958128173907B6
:100F400009F046C089819A8160817181009719F00A
:100F500061157105B1F46115710551F0232BA9F0EC
:100F6000FB01208130E088279927821B930B0BC05F
:100F7000009759F0232B49F0FC019081892F90E0D4
:100F800002C00E94D311892B19F5B801CE01079632
:100F90000E94FD0541E050E0BE01695F7F4FCE0138
:100FA0000D960E94110A8D859E85009719F00E946A
:100FB000031203C060E070E0CB01F701718360832E
:100FC000CE010D960E94F805CE0107960E94F80505
:100FD000CE0101960E94F80562960FB6F894DEBF26
:100FE0000FBECDBFDF91CF911F910F91FF90EF907A
:100FF000DF90CF900895DC01ED91FC91DB01149618
:101000004D915C9115976D917C910280F381E02D5B
:1010100009942091390290916602213208F046C06D
:10102000809116028111FCCF32E03093160231E03C
:10103000309315023FEF3093140210921302209365
:101040001202A9E1B2E042EF51E0FA013E2F341B57
:10105000321718F43D913193F9CF1092F10120919C
:10106000F101990F922B9093F1019091F001913041
:1010700041F41092F0019091F1019093BB0095EC36
:1010800001C095EE9093BC00909116029230E1F36E
:10109000909114029F3F79F080911402803241F0C8
:1010A00080911402803331F084E005C081E003C0F8
:1010B00082E001C083E0109218021092390210926F
:1010C000170208958F929F92AF92BF92CF92DF92B4
:1010D000EF92FF92CF93DF93A0915B02882311F0F0
:1010E0003A2F01C030E080915C0290E0880F991F98
:1010F00080579F4FC0906102D0906202E0906302DF
:10110000F090640240E050E0BA01FC01C591D49136
:1011100028812A2323130FC04A015B012FEF821A73
:10112000920AA20AB20A4C155D056E057F0538F4D5
:10113000B501A401EACF342F252FCB0104C030E044
:1011400020E080E090E0632F722FDF91CF91FF903D
:10115000EF90DF90CF90BF90AF909F908F900895C9
:10116000CF93C62F91E09093170292E69093660278
:101170001092180210923902682F8AE392E00E94BE
:1011800051026C2F8AE392E00E945102CF910C949D
:101190000908CF93DF93EC0181E0809317028EE37F
:1011A00080936602109218021092390268818AE3D5
:1011B00092E00E94510269818AE392E00E9451020A
:1011C000DF91CF910C940908CF92DF92EF92FF92BA
:1011D0000E94EE060E94DF1420E030E04AE754E46B
:1011E0000E942C0F0E94980F6B017C010E94EE065A
:1011F0006C157D058E059F05C8F3FF90EF90DF907D
:10120000CF900895CF93DF93E0914602F09147028B
:101210003097C9F08AE091E0918380838091EE015C
:101220009091EF018E179F0759F4A389B4899C917F
:101230008589809589238C931092EF011092EE019D
:10124000CF010E94631085E08093490286E080937D
:1012500048028FE190E00E94CE0FEC011B821A82BF
:1012600088EE93E0A0E0B0E08C839D83AE83BF83E3
:101270008AE091E0998388831F8A1E8A198E188ECE
:101280001B8E1A8E1D8E1C8E6E8D6E7F6D7F6E8FE7
:101290006695617081E0682786E00E942C0661E017
:1012A00086E00E947806E4EBF0E0E491E88BE0EA67
:1012B000F0E0E491F0E0EE0FFF1FEA57FF4F859159
:1012C00094919A8B898B60E085E00E9478068E8DE0
:1012D00081FD04C061E085E00E942C0685E08C87DA
:1012E000E3EBF0E0E491ED87EFE9F0E0E491F0E08A
:1012F000EE0FFF1FE057FF4F859194919F878E87D8
:10130000D0934702C09346028FE190E09D8F8C8F6F
:1013100021E030E03F8B2E8B2DE130E0398F288F9C
:101320002DE030E03B8F2A8F2091680024602093CD
:1013300068002DE630E03C8B2B8B20E22D8B019753
:10134000F1F78A8D9B8D892B09F1E091EE01F091E7
:10135000EF01EC17FD07D1F0309739F0A389B4897C
:101360009C918589809589238C938E8D8E7F8E8F1D
:101370001092ED011092EC01D093EF01C093EE01B9
:10138000EB89FC8990818D89892B8083E0914602CD
:10139000F091470284E690E0A0E0B0E0848395837A
:1013A000A683B783DF91CF910895CF93DF9300D0C9
:1013B00000D000D0CDB7DEB7BC01CE0101960E94AF
:1013C000FD058091460290914702892B11F40E94FD
:1013D0000209BE016F5F7F4F8091460290914702E4
:1013E0000E94FB07CE0101960E94F80526960FB6D3
:1013F000F894DEBF0FBECDBFDF91CF910895CF939C
:10140000DF93EC0141E050E060E371E00E942905C8
:10141000811103C0CE010E945705CE01DF91CF910B
:1014200008956F927F928F929F92AF92BF92CF92C8
:10143000DF92EF92FF920F931F93CF93DF938C0174
:10144000EB01AC80BD80350161E0661A7108E0E017
:10145000F0E02FEF3FEFE12CF12C80E090E09E2EAA
:101460008F2E6E167F0684F1481759072CF1DF0185
:1014700011966D01EA15FB0558F4688179816115B3
:10148000710531F06E0F7F1FDB016C916A3331F013
:10149000E615F70519F0922E832E0AC00196790100
:1014A000BFEFEB1AFB0AE615F70511F49C2C8D2C07
:1014B000F601292D382DD3CF590167012E153F058F
:1014C00060F46901570109C048175907ACF361E39B
:1014D00071E0C8010E94170631C061E371E0C801E4
:1014E0000E9417068C819D81C816D90638F57501B2
:1014F0008A159B0508F47C01E881F981EE0DFF1D3A
:10150000B0801082688179816C0D7D1D6115710537
:1015100061F0FB0101900020E9F73197AF01461B14
:10152000570BC8010E94D70503C0C8010E94570588
:1015300028813981F901EE0DFF1DB082C801DF91CC
:10154000CF911F910F91FF90EF90DF90CF90BF90C0
:10155000AF909F908F907F906F900895EF92FF9241
:101560000F931F93CF93DF93CDB7DEB764970FB67A
:10157000F894DEBF0FBECDBF7C01809146029091F2
:101580004702892B11F40E94020980914602909132
:101590004702DC01ED91FC910480F581E02D099575
:1015A000892BD9F0009146021091470261E371E066
:1015B000CE010D960E941706C8010E94FA0697FDFB
:1015C00012C089831A8241E050E0BE016F5F7F4FF5
:1015D000CE010D960E942905EFCF61E371E0CE01A7
:1015E0000D960E9417061C8A1B8AB701CE01019630
:1015F0000E94FD05BE01635F7F4FCE0107960E94EA
:10160000FD05AE014D5E5F4FBE016F5F7F4FCE01A6
:1016100007960E947407CE0107960E94F805CE0136
:1016200001960E94F8050B891C89CE010D960E9437
:10163000F805C80164960FB6F894DEBF0FBECDBFA3
:10164000DF91CF911F910F91FF90EF90089580E46B
:1016500080937C0080917A00806480937A008091EE
:101660007A0086FDFCCF809178002091790090E08F
:10167000922B0895CF92DF92EF92FF920F931F93D8
:10168000CF93DF93CDB7DEB7C054D1400FB6F894F7
:10169000DEBF0FBECDBF0E94EE0600915D0210912D
:1016A0005E0220915F02309160026B017C01C01AE2
:1016B000D10AE20AF30A40EDC41647E0D406E10479
:1016C000F10418F480916502BCC060935D027093D0
:1016D0005E0280935F029093600210925802109213
:1016E000570210925602109255021092540261E075
:1016F000809159020E942C066AEF70E080E090E031
:101700000E94B40661E0809159020E94780660E070
:10171000809159020E942C0664E170E080E090E024
:101720000E94B406F89461E0809159020E942C0650
:101730008BE990E00197F1F762E0809159020E94F5
:10174000780683E290E00197F1F780E00E9462085A
:10175000672B682B692B21F41092650278943EC0A8
:1017600081E00E946208672B682B692BA9F38E0128
:101770000F5F1F4F6E018FEBC81A8EEFD80A7801EA
:1017800080E00E946208F701608371838283938303
:1017900081E00E946208F7016483758386839783E2
:1017A000F8E0EF0EF11CEC14FD0451F7789420E002
:1017B00030E0F8014081518162817381C480D5801D
:1017C000E680F780411551056105710529F0C114C6
:1017D000D104E104F10421F41092650280E031C0EB
:1017E000F90183E0F595E7958A95E1F7EC5AFD4F0D
:1017F0008081880F4C155D056E057F0508F48160BA
:1018000080832F5F3F4F085F1F4F2832310589F6D5
:101810002091580230E0409154028091550290E0AE
:10182000840F911D40915602840F911D40915702E3
:10183000840F911D99272817390771F681E080934D
:101840006502C05CDE4F0FB6F894DEBF0FBECDBFA1
:10185000DF91CF911F910F91FF90EF90DF90CF908C
:101860000895CF93DF93CDB7DEB764970FB6F894A2
:10187000DEBF0FBECDBF789484B5826084BD84B5D1
:10188000816084BD85B5826085BD85B5816085BD7B
:1018900080916E00816080936E0010928100809133
:1018A00081008260809381008091810081608093BB
:1018B0008100809180008160809380008091B100E0
:1018C00084608093B1008091B00081608093B0000B
:1018D00080917A00846080937A0080917A0082609F
:1018E00080937A0080917A00816080937A00809161
:1018F0007A00806880937A001092C10010925B0198
:1019000010925A0110921802109239021092160287
:1019100081E0809315021092F00161E082E10E9463
:101920002C0661E083E10E942C068091B9008E7F35
:101930008093B9008091B9008D7F8093B90088E4CD
:101940008093B80085E48093BC0080914E02982F6C
:10195000986090934E0212E010935202109253023C
:10196000EBE3FDE03197F1F788620E9460038BE4BE
:1019700096E40197F1F780914E0280620E94600325
:1019800083E592E00197F1F780914E0280620E9418
:10199000600380914E0280620E94600384E0809325
:1019A0004F028CE00E94600381E00E9460038BE3A1
:1019B0009FE10197F1F71093500286E00E946003C7
:1019C00060E080E00E94B0086FEF88E00E94B008FD
:1019D00060E281E00E94B0086FEF84E00E94B008EE
:1019E0006FEF83E00E94B0086FEF82E00E94B008C2
:1019F00060E080E00E94780661E082E00E94780664
:101A00008E010F5F1F4F80E0C82E80E0D82E90E837
:101A1000F92E20ECE22E0E94A502609356017093ED
:101A2000570180935801909359010E94F2026093EC
:101A300052017093530180935401909355010E9479
:101A4000270BBC01990F880B990B0E94E11460933E
:101A50004E0170934F018093500190935101F98290
:101A6000FA82C8010E94C9080E94F2022B013C01BF
:101A70006EE271E0C8010E9417060E94A5024B01A8
:101A80005C0162E371E0CE010F960E941706BE0171
:101A9000615F7F4FCE0109960E94FD05B501A4014B
:101AA000CE0109960E94A0055C014D815E8169818D
:101AB0007A810E942905811103C0C5010E94570542
:101AC000B301A201C5010E94A005BC018AE492E015
:101AD0000E94FB07CE0109960E94F805CE010F96E1
:101AE0000E94F805C8010E94F805F982EA82C8013F
:101AF0000E94C9080E94270B5C0165E371E0CE01DA
:101B00000F960E941706BE01615F7F4FCE010996B6
:101B10000E94FD054AE0B801C5010E942A12F801A1
:101B200001900020E9F73197AF01401B510BB8013C
:101B3000CE0109960E942905811104C0CE010996A3
:101B40000E945705BE01675F7F4F8AE492E00E94C2
:101B5000FB07CE0109960E94F805CE010F960E9460
:101B6000F8058091460290914702892B11F40E945A
:101B700002098091460290914702DC01ED91FC91AF
:101B80000480F581E02D0995892B09F4D2C06AE320
:101B900071E0C8010E941706C8010E94AE0ABC018C
:101BA000990F880B990B0E94E1144B015C01609323
:101BB0004A0170934B0180934C0190934D01C801F1
:101BC0000E94F80520E030E040E85FE3C501B40181
:101BD0000E94DA1481112FC0809056019090570115
:101BE000A0905801B09059016CE371E0CE010F96BE
:101BF0000E941706BE01615F7F4FCE0109960E94C9
:101C0000FD05CE0109960E94FF09B501A4010E94BD
:101C10006905BC01C8010E94FD05C8010E94D509E3
:101C2000C8010E94F805CE0109960E94F805CE0170
:101C30000F960E94F80520E030E040E050E460910B
:101C40004A0170914B0180914C0190914D010E948D
:101C5000DA1481112FC08090520190905301A0900E
:101C60005401B090550161E471E0CE010F960E94DD
:101C70001706BE01615F7F4FCE0109960E94FD05E8
:101C8000CE0109960E94FF09B501A4010E946905D1
:101C9000BC01C8010E94FD05C8010E94D509C80108
:101CA0000E94F805CE0109960E94F805CE010F9614
:101CB0000E94F80520E030E040E450E460914A01E1
:101CC00070914B0180914C0190914D010E94DA146A
:101CD00081112FC080904E0190904F01A090500133
:101CE000B090510165E471E0CE010F960E94170695
:101CF000BE01615F7F4FCE0109960E94FD05CE01B6
:101D000009960E94FF09B501A4010E946905BC0162
:101D1000C8010E94FD05C8010E94D509C8010E94A2
:101D2000F805CE0109960E94F805CE010F960E9493
:101D3000F80520E030E04AEF53E460914E017091E5
:101D40004F0180915001909151010E94DA1487FF58
:101D50000CC061E082E00E942C060E94E40860E072
:101D600082E00E942C060E94E4080E94E408C1144C
:101D7000D10409F450CE0E9400004DCEEAE3F2E017
:101D80001382128288EE93E0A0E0B0E08483958312
:101D9000A683B7838AE191E091838083A4E5B2E0D2
:101DA00084E015968C9315978BE016968C93169776
:101DB000E2EBF0E0E4911796EC931797EEE9F0E090
:101DC000E4911896EC93189740E85EE360E070E0C9
:101DD0001D964D935D936D937C935097EAE4F2E0EA
:101DE000138212828AE291E091838083E6E4F2E03A
:101DF0001182108212821382089597FB072E16F427
:101E0000009407D077FD09D00E94110F07FC05D080
:101E10003EF4909581959F4F0895709561957F4F01
:101E20000895AA1BBB1B51E107C0AA1FBB1FA61721
:101E3000B70710F0A61BB70B881F991F5A95A9F773
:101E400080959095BC01CD010895EE0FFF1F059080
:101E5000F491E02D09945058BB27AA270E94430F04
:101E60000C94C4150E94B61538F00E94BD1520F0E0
:101E700039F49F3F19F426F40C94B3150EF4E09551
:101E8000E7FB0C94AD15E92F0E94D51558F3BA174E
:101E9000620773078407950720F079F4A6F50C9480
:101EA000F7150EF4E0950B2EBA2FA02D0B01B901FA
:101EB00090010C01CA01A0011124FF27591B99F0C0
:101EC000593F50F4503E68F11A16F040A22F232FCC
:101ED000342F4427585FF3CF469537952795A7951C
:101EE000F0405395C9F77EF41F16BA0B620B730BC3
:101EF000840BBAF09150A1F0FF0FBB1F661F771F34
:101F0000881FC2F70EC0BA0F621F731F841F48F4E8
:101F1000879577956795B795F7959E3F08F0B0CF71
:101F20009395880F08F09927EE0F97958795089558
:101F30000E949F0F6894B1110C94F81508950E94A7
:101F4000DD1588F09F5798F0B92F9927B751B0F059
:101F5000E1F0660F771F881F991F1AF0BA95C9F72D
:101F600014C0B13091F00E94F715B1E008950C94BF
:101F7000F715672F782F8827B85F39F0B93FCCF372
:101F8000869577956795B395D9F73EF490958095AA
:101F9000709561957F4F8F4F9F4F0895CF93DF933B
:101FA0008230910510F482E090E0E0916902F091B6
:101FB0006A0220E030E0C0E0D0E0309711F14081CB
:101FC000518148175907C0F04817590761F48281B9
:101FD0009381209719F09B838A832BC090936A0288
:101FE0008093690226C02115310519F04217530765
:101FF00018F49A01BE01DF01EF010280F381E02DA8
:10200000DCCF2115310509F1281B390B24303105AE
:1020100090F412968D919C9113976115710521F0A2
:10202000FB019383828304C090936A0280936902C8
:10203000FD01329644C0FD01E20FF31F819391939D
:10204000225031092D933C933AC020916702309180
:102050006802232B41F42091020130910301309357
:10206000680220936702209100013091010121153F
:10207000310541F42DB73EB740910401509105015F
:10208000241B350BE0916702F0916802E217F30719
:10209000A0F42E1B3F0B2817390778F0AC014E5FD8
:1020A0005F4F2417350748F04E0F5F1F50936802AB
:1020B000409367028193919302C0E0E0F0E0CF018A
:1020C000DF91CF9108950F931F93CF93DF930097E4
:1020D00009F48CC0FC0132971382128200916902CC
:1020E00010916A020115110581F420813181820F5E
:1020F000931F20916702309168022817390779F5FC
:10210000F0936802E093670271C0D80140E050E0AC
:10211000AE17BF0750F412962D913C911397AD0165
:102120002115310509F1D901F3CF9D01DA0133837E
:10213000228360817181860F971F8217930769F44C
:10214000EC0128813981260F371F2E5F3F4F3183E5
:1021500020838A819B8193838283452B29F4F0938A
:102160006A02E093690242C01396FC93EE931297C1
:10217000ED01499159919E01240F351FE217F30794
:1021800071F480819181840F951F029611969C9322
:102190008E938281938113969C938E931297E0E0A5
:1021A000F0E0D80112968D919C911397009719F049
:1021B000F8018C01F6CF8D919C9198012E5F3F4FD5
:1021C000820F931F20916702309168022817390708
:1021D00069F4309729F410926A021092690202C0E1
:1021E000138212821093680200936702DF91CF91ED
:1021F0001F910F910895A0E0B0E0E1E0F1E10C94AF
:102200000216EC01009721F4CB010E94CE0FB8C05A
:10221000FC01E60FF71F9C0122503109E217F3077A
:1022200008F4ACC0D9010D911C911197061717073E
:10223000B0F00530110508F49FC0C8010497861757
:10224000970708F499C002501109061B170B019358
:1022500011936D937C93CF010E9463108DC05B013D
:10226000A01AB10A4C01800E911EA0916902B09192
:102270006A0240E050E0E12CF12C109709F44AC0CA
:10228000A815B905D1F56D907C901197630182E096
:10229000C80ED11CCA14DB0480F1A3014A195B09E2
:1022A0006A0182E0C80ED11C1296BC901297139658
:1022B000AC91B5E0CB16D10440F0B282A383518338
:1022C0004083D9016D937C930AC00E5F1F4FC301F9
:1022D000800F911FF90191838083EB2DFA2FE11478
:1022E000F10431F0D7011396FC93EE93129744C09A
:1022F000F0936A02E09369023FC08D919C9111971F
:102300004817590708F4AC017D0112960D90BC9155
:10231000A02DB3CF8091670290916802881599052E
:10232000E1F446175707C8F480910001909101012C
:10233000009741F48DB79EB740910401509105017B
:10234000841B950BE817F907C8F4F0936802E09333
:102350006702F901718360830FC0CB010E94CE0F29
:102360007C01009759F0A801BE010E94CA11CE015C
:102370000E946310C70104C0CE0102C080E090E05B
:10238000CDB7DEB7EEE00C941E1681E090E0F89435
:102390000C943516FB01DC0102C001900D924150F6
:1023A0005040D8F70895FB01DC018D910190801910
:1023B0000110D9F3990B0895FB01DC0101900D92F6
:1023C0000020E1F70895EF920F931F93CF93DF93CF
:1023D000E80147FD02C034E001C034E1E42F440FBE
:1023E000FF0BF7FF03C0F195E195F109E32E022FF2
:1023F0002E2FAE010E946412CE01DF91CF911F916A
:102400000F91EF9008951F93FC0199278827BC0135
:10241000E89411911032E9F3193010F01E30C8F32E
:102420001B3251F01D3249F4689406C00E943512E7
:10243000610F711D811D911D119110531A30B0F360
:102440003EF490958095709561957F4F8F4F9F4F8B
:102450001F910895BB274A3031F4992322F4BDE23D
:10246000909581959F4F0C944B12592F482F372FE1
:10247000262F660F771F881F991F660F771F881FEB
:10248000991F620F731F841F951F660F771F881F88
:10249000991F0895BB27FB015527AA27880F991F6D
:1024A000AA1FA41710F0A41B83955051B9F7A05D83
:1024B000AA3308F0A95DA193009779F7B111B19300
:1024C0001192CB010C94CA144F925F926F927F923B
:1024D0009F92AF92BF92CF92DF92EF92FF920F93B3
:1024E0001F93CF93DF93CDB7DEB729970FB6F8943C
:1024F000DEBF0FBECDBF6A01122FB02E2BE3201717
:1025000020F0FF24F394F00E02C0BCE3FB2E0F2D4D
:1025100027E0AE014F5F5F4F0E94F213AC0189814B
:10252000982F9970913031F0E1FC06C0E0FE06C0B2
:1025300090E205C09DE203C09BE201C090E0EE2D59
:10254000E07183FF3CC0911102C083E001C084E0D0
:10255000811718F4212F281B01C020E0E1110BC0C6
:10256000F601822F30E2882319F031938150FBCF9E
:10257000C20ED11C20E0992329F0D6019C93F601CC
:1025800031966F01C6010396E2FE0AC03EE4D60111
:102590003C9341E411964C93119712963C9306C0DC
:1025A0003EE6F601308341E641833283FC01322F5F
:1025B00040E2332309F442C041933150FACF82FF05
:1025C00044C0911102C083E001C084E0811718F477
:1025D000212F281B01C020E0E1110BC0F601822F42
:1025E00030E2882319F031938150FBCFC20ED11C09
:1025F00020E0992329F0D6019C93F60131966F01D2
:10260000C6010396E2FE0BC039E4D6013C933EE4DA
:1026100011963C93119736E412963C9307C039E625
:10262000F60130833EE6318336E63283FC01322FF9
:1026300040E2332319F041933150FBCFFC01E20F0C
:10264000F11D10828EEF9FEFB7C0F1E0911101C034
:10265000F0E06F2F70E01416150624F49A012F5F36
:102660003F4F02C021E030E0260F371FBB2029F08A
:102670006B2D70E06F5F7F4F02C060E070E0260F4F
:10268000371F612F70E0261737071CF4121B212F0C
:1026900001C020E03E2D387159F4D601322F60E29E
:1026A000332319F06D933150FBCFC20ED11C20E0C3
:1026B000FF2331F0D6019C93B6016F5F7F4F6B0112
:1026C000E1110BC0F601922F30E3992319F03193F9
:1026D0009150FBCFC20ED11C20E09F2D940F3A8168
:1026E000782F7071A72E84FF03C0313309F4915005
:1026F000191624F4993018F098E001C091E0E42F05
:10270000852F57FF02C0E0E080E06E2F782FE0E0D9
:10271000F0E0AEE29A2E3A01691A71082A01461ACF
:10272000570A0B2D10E01195019511096F3F8FEF9E
:10273000780729F4D6019C92C60101966C014617D0
:10274000570784F0661677066CF47F01E40CF51CDD
:10275000A1E0B0E0AC0FBD1FEA0EFB1ED701119641
:10276000BC9002C090E3B92E615071093196C60148
:1027700001967C016017710724F0D601BC926C01B0
:10278000D5CF6417750741F4363320F4353321F47F
:10279000A11002C081E3B82EF601B082F701822FAA
:1027A00090E2882319F091938150FBCFF701E20F5B
:1027B000F11D108280E090E029960FB6F894DEBFFC
:1027C0000FBECDBFDF91CF911F910F91FF90EF9082
:1027D000DF90CF90BF90AF909F907F906F905F9071
:1027E0004F900895283008F027E03327DA01990F39
:1027F000311D87FD916000966105710539F43260E5
:102800002E5F3D9330E32A95E1F708959F3F30F026
:1028100080387105610509F03C5F3C5F3D93913064
:1028200008F08068911DDF93CF931F930F93FF9261
:10283000EF92192F987F9695E92F96959695E90F27
:10284000FF27E45EFE4F99273327EE24FF24A701DC
:10285000E70105900894079428F4360FE71EF81E48
:10286000491F511D660F771F881F991F0694A1F7F6
:102870000590079428F4E70EF81E491F561FC11D46
:10288000770F881F991F661F0694A1F7059007947C
:1028900028F4F80E491F561FC71FD11D880F991F16
:1028A000661F771F0694A1F70590079420F4490F3F
:1028B000561FC71FD81F990F661F771F881F0694C2
:1028C000A9F784911095177041F0D695C795579543
:1028D0004795F794E7941A95C1F7E2ECF0E0689415
:1028E0001590159135916591959105907FE27395BD
:1028F000E118F10A430B560BC90BD009C0F7E10CE4
:10290000F11E431F561FC91FD01D7EF4703311F4F2
:102910008A95E6CFE894015030F0080F0AF40027BA
:10292000021708F4202F2395022F7A3328F079E339
:102930007D932A95E9F710C07D932A9589F6069430
:1029400097956795379517951794E118F10A430BFA
:10295000560BC90BD00998F023957E9173957A3365
:1029600008F070E37C932013B8F77E9170617D933B
:1029700030F0839571E37D9370E32A95E1F711249C
:10298000EF90FF900F911F91CF91DF91992787FDD5
:1029900090950895DC01FC01672F71917723E1F791
:1029A000329704C07C916D9370836291AE17BF071C
:1029B000C8F308950E941C1508F481E00895E89476
:1029C00009C097FB3EF490958095709561957F4F77
:1029D0008F4F9F4F9923A9F0F92F96E9BB27939525
:1029E000F695879577956795B795F111F8CFFAF435
:1029F000BB0F11F460FF1BC06F5F7F4F8F4F9F4F66
:102A000016C0882311F096E911C0772321F09EE8C3
:102A1000872F762F05C0662371F096E8862F70E029
:102A200060E02AF09A95660F771F881FDAF7880F03
:102A30009695879597F90895990F0008550FAA0B59
:102A4000E0E8FEEF16161706E807F907C0F01216C1
:102A50001306E407F50798F0621B730B840B950BC4
:102A600039F40A2661F0232B242B252B21F4089519
:102A70000A2609F4A140A6958FEF811D811D0895B6
:102A80000E9453150C94C4150E94B61538F00E948C
:102A9000BD1520F0952311F00C94AD150C94B315D1
:102AA00011240C94F8150E94D51570F3959FC1F36D
:102AB000950F50E0551F629FF001729FBB27F00DEC
:102AC000B11D639FAA27F00DB11DAA1F649F662741
:102AD000B00DA11D661F829F2227B00DA11D621F90
:102AE000739FB00DA11D621F839FA00D611D221F4A
:102AF000749F3327A00D611D231F849F600D211D2E
:102B0000822F762F6A2F11249F5750409AF0F1F0B0
:102B100088234AF0EE0FFF1FBB1F661F771F881F19
:102B200091505040A9F79E3F510580F00C94AD158F
:102B30000C94F8155F3FE4F3983ED4F386957795AF
:102B40006795B795F795E7959F5FC1F7FE2B880FBF
:102B5000911D9695879597F9089597F99F6780E855
:102B600070E060E008959FEF80EC089500240A94DF
:102B70001616170618060906089500240A94121658
:102B80001306140605060895092E0394000C11F48B
:102B9000882352F0BB0F40F4BF2B11F460FF04C038
:102BA0006F5F7F4F8F4F9F4F089557FD9058440F91
:102BB000551F59F05F3F71F04795880F97FB991F9C
:102BC00061F09F3F79F08795089512161306140659
:102BD000551FF2CF4695F1DF08C0161617061806E6
:102BE000991FF1CF86957105610508940895E894C1
:102BF000BB2766277727CB0197F908952F923F923D
:102C00004F925F926F927F928F929F92AF92BF92FC
:102C1000CF92DF92EF92FF920F931F93CF93DF93A8
:102C2000CDB7DEB7CA1BDB0B0FB6F894DEBF0FBE05
:102C3000CDBF09942A88398848885F846E847D8452
:102C40008C849B84AA84B984C884DF80EE80FD8054
:102C50000C811B81AA81B981CE0FD11D0FB6F894CA
:0E2C6000DEBF0FBECDBFED010895F894FFCF8B
:102C6E0000006B028000000000003C017A0290011F
:102C7E00A80113012D0100000000510214020C02E4
:102C8E00FD01EF01EE010000000071037A02204801
:102C9E003A00543A00534F4C3A00430054454D50BD
:0A2CAE000048554D00534F4C000044
:00000001FF
